{
  "_format": "hh-sol-artifact-1",
  "contractName": "TimeStamp",
  "sourceName": "contracts/TimeStamp.sol",
  "abi": [
    {
      "inputs": [],
      "name": "getTimeStamp",
      "outputs": [
        {
          "internalType": "uint256",
          "name": "",
          "type": "uint256"
        }
      ],
      "stateMutability": "view",
      "type": "function"
    }
  ],
  "bytecode": "0x6080604052348015600f57600080fd5b50607680601d6000396000f3fe6080604052348015600f57600080fd5b506004361060285760003560e01c8063da235b2214602d575b600080fd5b4260405190815260200160405180910390f3fea2646970667358221220520f11dbdcc56527dbc5ced5b8829a52ead7897ad5c5a9b88b24ce4e27b3594664736f6c634300080b0033",
  "linkReferences": {},
  "deployedLinkReferences": {}
}