{
  "_format": "hh-sol-artifact-1",
  "contractName": "SparklaunchFairLaunchSale",
  "sourceName": "contracts/FairLaunch.sol",
  "abi": [
    {
      "inputs": [
        {
          "internalType": "address",
          "name": "_admin",
          "type": "address"
        }
      ],
      "stateMutability": "nonpayable",
      "type": "constructor"
    },
    {
      "anonymous": false,
      "inputs": [
        {
          "indexed": false,
          "internalType": "bool",
          "name": "_isSaleSucsessful",
          "type": "bool"
        }
      ],
      "name": "LogFinishSale",
      "type": "event"
    },
    {
      "anonymous": false,
      "inputs": [
        {
          "indexed": false,
          "internalType": "address",
          "name": "user",
          "type": "address"
        },
        {
          "indexed": false,
          "internalType": "uint256",
          "name": "amountBNBWithdrawn",
          "type": "uint256"
        }
      ],
      "name": "LogWithdrawBNBIfSaleCancelled",
      "type": "event"
    },
    {
      "anonymous": false,
      "inputs": [
        {
          "indexed": false,
          "internalType": "address",
          "name": "user",
          "type": "address"
        },
        {
          "indexed": false,
          "internalType": "uint256",
          "name": "amountBNBWithdrawn",
          "type": "uint256"
        }
      ],
      "name": "LogWithdrawParticipation",
      "type": "event"
    },
    {
      "anonymous": false,
      "inputs": [
        {
          "indexed": false,
          "internalType": "address",
          "name": "saleOwner",
          "type": "address"
        },
        {
          "indexed": false,
          "internalType": "uint256",
          "name": "tokenPriceInBNB",
          "type": "uint256"
        },
        {
          "indexed": false,
          "internalType": "uint256",
          "name": "saleEnd",
          "type": "uint256"
        },
        {
          "indexed": false,
          "internalType": "uint256",
          "name": "softCap",
          "type": "uint256"
        }
      ],
      "name": "SaleCreated",
      "type": "event"
    },
    {
      "anonymous": false,
      "inputs": [
        {
          "indexed": false,
          "internalType": "address",
          "name": "user",
          "type": "address"
        },
        {
          "indexed": false,
          "internalType": "uint256",
          "name": "amount",
          "type": "uint256"
        }
      ],
      "name": "TokensSold",
      "type": "event"
    },
    {
      "anonymous": false,
      "inputs": [
        {
          "indexed": false,
          "internalType": "address",
          "name": "user",
          "type": "address"
        },
        {
          "indexed": false,
          "internalType": "uint256",
          "name": "amount",
          "type": "uint256"
        }
      ],
      "name": "TokensWithdrawn",
      "type": "event"
    },
    {
      "inputs": [
        {
          "internalType": "uint256",
          "name": "_amount",
          "type": "uint256"
        }
      ],
      "name": "_calculateServiceFee",
      "outputs": [
        {
          "internalType": "uint256",
          "name": "",
          "type": "uint256"
        }
      ],
      "stateMutability": "view",
      "type": "function"
    },
    {
      "inputs": [],
      "name": "admin",
      "outputs": [
        {
          "internalType": "contract IAdmin",
          "name": "",
          "type": "address"
        }
      ],
      "stateMutability": "view",
      "type": "function"
    },
    {
      "inputs": [],
      "name": "factory",
      "outputs": [
        {
          "internalType": "contract ISalesFactory",
          "name": "",
          "type": "address"
        }
      ],
      "stateMutability": "view",
      "type": "function"
    },
    {
      "inputs": [],
      "name": "finishSale",
      "outputs": [],
      "stateMutability": "nonpayable",
      "type": "function"
    },
    {
      "inputs": [
        {
          "internalType": "address",
          "name": "_user",
          "type": "address"
        }
      ],
      "name": "getParticipation",
      "outputs": [
        {
          "internalType": "uint256",
          "name": "",
          "type": "uint256"
        },
        {
          "internalType": "uint256",
          "name": "",
          "type": "uint256"
        }
      ],
      "stateMutability": "view",
      "type": "function"
    },
    {
      "inputs": [
        {
          "internalType": "address",
          "name": "",
          "type": "address"
        }
      ],
      "name": "isParticipated",
      "outputs": [
        {
          "internalType": "bool",
          "name": "",
          "type": "bool"
        }
      ],
      "stateMutability": "view",
      "type": "function"
    },
    {
      "inputs": [],
      "name": "numberOfParticipants",
      "outputs": [
        {
          "internalType": "uint256",
          "name": "",
          "type": "uint256"
        }
      ],
      "stateMutability": "view",
      "type": "function"
    },
    {
      "inputs": [
        {
          "internalType": "uint256",
          "name": "amount",
          "type": "uint256"
        }
      ],
      "name": "participate",
      "outputs": [],
      "stateMutability": "payable",
      "type": "function"
    },
    {
      "inputs": [
        {
          "internalType": "address",
          "name": "token",
          "type": "address"
        },
        {
          "internalType": "address",
          "name": "beneficiary",
          "type": "address"
        }
      ],
      "name": "removeStuckTokens",
      "outputs": [],
      "stateMutability": "nonpayable",
      "type": "function"
    },
    {
      "inputs": [],
      "name": "sale",
      "outputs": [
        {
          "internalType": "contract IERC20",
          "name": "token",
          "type": "address"
        },
        {
          "internalType": "bool",
          "name": "isCreated",
          "type": "bool"
        },
        {
          "internalType": "bool",
          "name": "earningsWithdrawn",
          "type": "bool"
        },
        {
          "internalType": "bool",
          "name": "leftoverWithdrawn",
          "type": "bool"
        },
        {
          "internalType": "bool",
          "name": "tokensDeposited",
          "type": "bool"
        },
        {
          "internalType": "address",
          "name": "saleOwner",
          "type": "address"
        },
        {
          "internalType": "uint256",
          "name": "tokenPriceInBNB",
          "type": "uint256"
        },
        {
          "internalType": "uint256",
          "name": "totalTokensSold",
          "type": "uint256"
        },
        {
          "internalType": "uint256",
          "name": "totalBNBRaised",
          "type": "uint256"
        },
        {
          "internalType": "uint256",
          "name": "saleEnd",
          "type": "uint256"
        },
        {
          "internalType": "uint256",
          "name": "softCap",
          "type": "uint256"
        }
      ],
      "stateMutability": "view",
      "type": "function"
    },
    {
      "inputs": [
        {
          "internalType": "address",
          "name": "_token",
          "type": "address"
        },
        {
          "internalType": "address",
          "name": "_saleOwner",
          "type": "address"
        },
        {
          "internalType": "uint256",
          "name": "_tokenPriceInBNB",
          "type": "uint256"
        },
        {
          "internalType": "uint256",
          "name": "_saleEnd",
          "type": "uint256"
        },
        {
          "internalType": "uint256",
          "name": "_softCap",
          "type": "uint256"
        }
      ],
      "name": "setSaleParams",
      "outputs": [],
      "stateMutability": "nonpayable",
      "type": "function"
    },
    {
      "inputs": [
        {
          "internalType": "address",
          "name": "saleToken",
          "type": "address"
        }
      ],
      "name": "setSaleToken",
      "outputs": [],
      "stateMutability": "nonpayable",
      "type": "function"
    },
    {
      "inputs": [
        {
          "internalType": "address",
          "name": "",
          "type": "address"
        }
      ],
      "name": "userToParticipation",
      "outputs": [
        {
          "internalType": "uint256",
          "name": "amountBought",
          "type": "uint256"
        },
        {
          "internalType": "uint256",
          "name": "amountBNBPaid",
          "type": "uint256"
        }
      ],
      "stateMutability": "view",
      "type": "function"
    },
    {
      "inputs": [],
      "name": "withdraw",
      "outputs": [],
      "stateMutability": "nonpayable",
      "type": "function"
    },
    {
      "inputs": [],
      "name": "withdrawBNBIfSaleCancelled",
      "outputs": [],
      "stateMutability": "nonpayable",
      "type": "function"
    },
    {
      "inputs": [],
      "name": "withdrawEarnings",
      "outputs": [],
      "stateMutability": "nonpayable",
      "type": "function"
    },
    {
      "inputs": [],
      "name": "withdrawParticipation",
      "outputs": [],
      "stateMutability": "nonpayable",
      "type": "function"
    },
    {
      "inputs": [],
      "name": "withdrawUnusedFunds",
      "outputs": [],
      "stateMutability": "nonpayable",
      "type": "function"
    },
    {
      "stateMutability": "payable",
      "type": "receive"
    }
  ],
  "bytecode": "0x608060405234801561001057600080fd5b5060405161192538038061192583398101604081905261002f916100b7565b6001600160a01b0381166100895760405162461bcd60e51b815260206004820152601760248201527f41646472657373207a65726f2076616c69646174696f6e000000000000000000604482015260640160405180910390fd5b600080546001600160a01b039092166001600160a01b031992831617905560018054909116331790556100e7565b6000602082840312156100c957600080fd5b81516001600160a01b03811681146100e057600080fd5b9392505050565b61182f806100f66000396000f3fe60806040526004361061010d5760003560e01c8063b73c6ce911610095578063da0961e711610064578063da0961e7146103d9578063dfa019c2146103f9578063e303417e1461040e578063e6dd299f1461042e578063f851a4401461044357600080fd5b8063b73c6ce9146102f9578063c45a01551461030e578063cad925ef14610346578063cf5b8d4b1461039957600080fd5b80636c41de0a116100dc5780636c41de0a1461026d5780637417040e1461029b578063845c9306146102b15780638f86f5ea146102c4578063a29f481c146102d957600080fd5b80631058c726146101195780633ccfd60b146101305780635e7464f6146101455780636ad1fe021461019357600080fd5b3661011457005b600080fd5b34801561012557600080fd5b5061012e610463565b005b34801561013c57600080fd5b5061012e6105da565b34801561015157600080fd5b506101796101603660046114bf565b600c602052600090815260409020805460019091015482565b604080519283526020830191909152015b60405180910390f35b34801561019f57600080fd5b50600354600454600554600654600754600854600954610200966001600160a01b038082169760ff600160a01b8404811698600160a81b8504821698600160b01b8604831698600160b81b909604909216969290931694929390929091908b565b604080516001600160a01b039c8d1681529a151560208c0152981515988a0198909852951515606089015293151560808801529690911660a086015260c085015260e08401949094526101008301939093526101208201929092526101408101919091526101600161018a565b34801561027957600080fd5b5061028d6102883660046114da565b6106ae565b60405190815260200161018a565b3480156102a757600080fd5b5061028d600b5481565b61012e6102bf3660046114da565b6106d7565b3480156102d057600080fd5b5061012e610735565b3480156102e557600080fd5b5061012e6102f43660046114bf565b6107f9565b34801561030557600080fd5b5061012e6108f1565b34801561031a57600080fd5b5060015461032e906001600160a01b031681565b6040516001600160a01b03909116815260200161018a565b34801561035257600080fd5b506101796103613660046114bf565b6001600160a01b03166000908152600c6020908152604091829020825180840190935280548084526001909101549290910182905291565b3480156103a557600080fd5b506103c96103b43660046114bf565b600d6020526000908152604090205460ff1681565b604051901515815260200161018a565b3480156103e557600080fd5b5061012e6103f43660046114f3565b610951565b34801561040557600080fd5b5061012e610bfe565b34801561041a57600080fd5b5061012e610429366004611540565b610cfc565b34801561043a57600080fd5b5061012e610ec3565b34801561044f57600080fd5b5060005461032e906001600160a01b031681565b336000908152600d602052604090205460ff166104be5760405162461bcd60e51b81526020600482015260146024820152732234b2103737ba103830b93a34b1b4b830ba329760611b60448201526064015b60405180910390fd5b60085442106104ff5760405162461bcd60e51b815260206004820152600d60248201526c14d85b1948199a5b9a5cda1959609a1b60448201526064016104b5565b336000908152600c602052604090206001810154815460065461052191610f85565b6006556007546105319082610f85565b600755336000908152600d60205260408120805460ff19169055600b80549161055983611589565b90915550506040805180820182526000808252602080830182815233808452600c909252939091208251815592516001909301929092559061059b9083610f98565b60408051338152602081018490527f9042377288c67220d6655fe0d51926ec8fb0c0cce3d5ac8be0b2f8829059272291015b60405180910390a1505050565b336000908152600c6020526040812080546105f58382611012565b925082156106a95760035460405163a9059cbb60e01b8152336004820152602481018590526001600160a01b039091169063a9059cbb906044016020604051808303816000875af115801561064e573d6000803e3d6000fd5b505050506040513d601f19601f8201168201806040525081019061067291906115a0565b5060408051338152602081018590527f6352c5382c4a4578e712449ca65e83cdb392d045dfcf1cad9615189db2da244b91016105cd565b505050565b60006106d16127106106cb6002548561101e90919063ffffffff16565b9061102a565b92915050565b600081116107275760405162461bcd60e51b815260206004820152601f60248201527f416d6f756e742073686f756c642062652067726561746572207468616e20300060448201526064016104b5565b610732333483611036565b50565b6004546001600160a01b0316331461078b5760405162461bcd60e51b81526020600482015260196024820152782932b9ba3934b1ba32b2103a379039b0b6329037bbb732b91760391b60448201526064016104b5565b600954600754106107b057600a805460ff191660011790556107ab6112bd565b6107bb565b600a805460ff191690555b600a5460405160ff909116151581527fd13e41b0867a9bd8e3f746147218ad654188510d96d0ed28f60608c1edfec8459060200160405180910390a1565b600054604051630935e01b60e21b81523360048201526001600160a01b03909116906324d7806c90602401602060405180830381865afa158015610841573d6000803e3d6000fd5b505050506040513d601f19601f8201168201806040525081019061086591906115a0565b6108815760405162461bcd60e51b81526004016104b5906115c2565b6001600160a01b0381166108cf5760405162461bcd60e51b8152602060048201526015602482015274496e76616c696420746f6b656e206164647265737360581b60448201526064016104b5565b600380546001600160a01b0319166001600160a01b0392909216919091179055565b6004546001600160a01b031633146109475760405162461bcd60e51b81526020600482015260196024820152782932b9ba3934b1ba32b2103a379039b0b6329037bbb732b91760391b60448201526064016104b5565b61094f6113ed565b565b600054604051630935e01b60e21b81523360048201526001600160a01b03909116906324d7806c90602401602060405180830381865afa158015610999573d6000803e3d6000fd5b505050506040513d601f19601f820116820180604052508101906109bd91906115a0565b6109d95760405162461bcd60e51b81526004016104b5906115c2565b600354600160a01b900460ff1615610a2b5760405162461bcd60e51b815260206004820152601560248201527429b0b6329030b63932b0b23c9031b932b0ba32b21760591b60448201526064016104b5565b6001600160a01b038416610a815760405162461bcd60e51b815260206004820152601f60248201527f2073616c654f776e65723a2063616e7420626520206164647265737320302e0060448201526064016104b5565b82610ac45760405162461bcd60e51b815260206004820152601360248201527250726963653a2063616e74206265207a65726f60681b60448201526064016104b5565b428211610b135760405162461bcd60e51b815260206004820152601c60248201527f53616c65656e643a206d75737420626520696e20206675747572652e0000000060448201526064016104b5565b60008111610b635760405162461bcd60e51b815260206004820152601960248201527f536f66744361703a2063616e206e6f74206265207a65726f2e0000000000000060448201526064016104b5565b600380546001600160a81b0319166001600160a01b0387811691909117600160a01b17909155600480549186166001600160a01b03199092168217905560058490556008839055600982905560408051918252602082018590528101839052606081018290527f2cd2dfcdeb2b58c4b80527e9df5e12da537fa4f6c958a4fb623a83ab74eeab63906080015b60405180910390a15050505050565b336000908152600d602052604090205460ff16610c545760405162461bcd60e51b81526020600482015260146024820152732234b2103737ba103830b93a34b1b4b830ba329760611b60448201526064016104b5565b600a5460ff1615610c9f5760405162461bcd60e51b815260206004820152601560248201527414d85b19481dd85cdb89dd0818d85b98d95b1b1959605a1b60448201526064016104b5565b336000818152600c6020526040902060018101549091610cbf9082610f98565b60408051338152602081018390527f7b6870f3a094e97eefbe1ea5ee571e640c86c2b18f0882386ebf12f65c1463c4910160405180910390a15050565b600054604051630935e01b60e21b81523360048201526001600160a01b03909116906324d7806c90602401602060405180830381865afa158015610d44573d6000803e3d6000fd5b505050506040513d601f19601f82011682018060405250810190610d6891906115a0565b610d845760405162461bcd60e51b81526004016104b5906115c2565b6003546001600160a01b0383811691161415610de25760405162461bcd60e51b815260206004820152601a60248201527f43616e27742077697468647261772073616c6520746f6b656e2e00000000000060448201526064016104b5565b6040516370a0823160e01b81523060048201526001600160a01b0383169063a9059cbb90839083906370a0823190602401602060405180830381865afa158015610e30573d6000803e3d6000fd5b505050506040513d601f19601f82011682018060405250810190610e549190611604565b6040516001600160e01b031960e085901b1681526001600160a01b03909216600483015260248201526044016020604051808303816000875af1158015610e9f573d6000803e3d6000fd5b505050506040513d601f19601f820116820180604052508101906106a991906115a0565b600054604051630935e01b60e21b81523360048201526001600160a01b03909116906324d7806c90602401602060405180830381865afa158015610f0b573d6000803e3d6000fd5b505050506040513d601f19601f82011682018060405250810190610f2f91906115a0565b610f4b5760405162461bcd60e51b81526004016104b5906115c2565b6003544790600090600160a81b900460ff16610f6957600754610f6c565b60005b9050610f8133610f7c8484610f85565b610f98565b5050565b6000610f91828461161d565b9392505050565b604080516000808252602082019092526001600160a01b038416908390604051610fc29190611634565b60006040518083038185875af1925050503d8060008114610fff576040519150601f19603f3d011682016040523d82523d6000602084013e611004565b606091505b50509050806106a957600080fd5b6000610f91828461166f565b6000610f918284611687565b6000610f9182846116a6565b6001600160a01b0383166000908152600d602052604090205460ff16156110975760405162461bcd60e51b815260206004820152601560248201527420b63932b0b23c903830b93a34b1b4b830ba32b21760591b60448201526064016104b5565b60085442106110d85760405162461bcd60e51b815260206004820152600d60248201526c14d85b1948199a5b9a5cda1959609a1b60448201526064016104b5565b60006111726003600201546106cb600360000160009054906101000a90046001600160a01b03166001600160a01b031663313ce5676040518163ffffffff1660e01b8152600401602060405180830381865afa15801561113c573d6000803e3d6000fd5b505050506040513d601f19601f8201168201806040525081019061116091906116c8565b61116b90600a6117cf565b869061101e565b9050600081116111b95760405162461bcd60e51b815260206004820152601260248201527143616e277420627579203020746f6b656e7360701b60448201526064016104b5565b818111156112005760405162461bcd60e51b815260206004820152601460248201527322bc31b2b2b234b7339030b63637bbb0b731b29760611b60448201526064016104b5565b60065461120d9082611012565b60065560075461121d9084611012565b60075560408051808201825282815260208082018681526001600160a01b0388166000908152600c8352848120845181559151600192830155600d909252928120805460ff1916909317909255600b80549192611279836117de565b9091555050604080516001600160a01b0387168152602081018490527f57d61f3ccd4ccd25ec5d234d6049553a586fac134c85c98d0b0d9d5724f4e43e9101610bef565b6006546113025760405162461bcd60e51b8152602060048201526013602482015272139bc81d1bdad95b9cc81dd95c99481cdbdb19606a1b60448201526064016104b5565b600354600160b81b900460ff161561135c5760405162461bcd60e51b815260206004820152601960248201527f546f6b656e7320616c7265616479206465706f73697465642e0000000000000060448201526064016104b5565b60038054600160b81b60ff60b81b198216179091556006546040516323b872dd60e01b815233600482015230602482015260448101919091526001600160a01b03909116906323b872dd906064016020604051808303816000875af11580156113c9573d6000803e3d6000fd5b505050506040513d601f19601f8201168201806040525081019061073291906115a0565b600a805460ff191660011790556003805460ff60b81b1916600160b81b179055600354600160a81b900460ff161561145e5760405162461bcd60e51b815260206004820152601460248201527343616e277420776974686472617720747769636560601b60448201526064016104b5565b6003805460ff60a81b1916600160a81b179055600754600061147f826106ae565b9050600061148d8383610f85565b90506114993382610f98565b6106a93383610f98565b80356001600160a01b03811681146114ba57600080fd5b919050565b6000602082840312156114d157600080fd5b610f91826114a3565b6000602082840312156114ec57600080fd5b5035919050565b600080600080600060a0868803121561150b57600080fd5b611514866114a3565b9450611522602087016114a3565b94979496505050506040830135926060810135926080909101359150565b6000806040838503121561155357600080fd5b61155c836114a3565b915061156a602084016114a3565b90509250929050565b634e487b7160e01b600052601160045260246000fd5b60008161159857611598611573565b506000190190565b6000602082840312156115b257600080fd5b81518015158114610f9157600080fd5b60208082526022908201527f4f6e6c792061646d696e2063616e2063616c6c20746869732066756e6374696f604082015261371760f11b606082015260800190565b60006020828403121561161657600080fd5b5051919050565b60008282101561162f5761162f611573565b500390565b6000825160005b81811015611655576020818601810151858301520161163b565b81811115611664576000828501525b509190910192915050565b6000821982111561168257611682611573565b500190565b60008160001904831182151516156116a1576116a1611573565b500290565b6000826116c357634e487b7160e01b600052601260045260246000fd5b500490565b6000602082840312156116da57600080fd5b815160ff81168114610f9157600080fd5b600181815b8085111561172657816000190482111561170c5761170c611573565b8085161561171957918102915b93841c93908002906116f0565b509250929050565b60008261173d575060016106d1565b8161174a575060006106d1565b8160018114611760576002811461176a57611786565b60019150506106d1565b60ff84111561177b5761177b611573565b50506001821b6106d1565b5060208310610133831016604e8410600b84101617156117a9575081810a6106d1565b6117b383836116eb565b80600019048211156117c7576117c7611573565b029392505050565b6000610f9160ff84168361172e565b60006000198214156117f2576117f2611573565b506001019056fea2646970667358221220763191beec01284c98f750dc26566113a643c105d04ced4fba58ba6851ac59b664736f6c634300080b0033",
  "linkReferences": {},
  "deployedLinkReferences": {}
}