{
  "_format": "hh-sol-artifact-1",
  "contractName": "SalesFactoryS",
  "sourceName": "contracts/_SaleFactory.sol",
  "abi": [
    {
      "inputs": [
        {
          "internalType": "address",
          "name": "_adminContract",
          "type": "address"
        }
      ],
      "stateMutability": "nonpayable",
      "type": "constructor"
    },
    {
      "anonymous": false,
      "inputs": [
        {
          "indexed": false,
          "internalType": "uint256",
          "name": "newFee",
          "type": "uint256"
        }
      ],
      "name": "LogSetFee",
      "type": "event"
    },
    {
      "anonymous": false,
      "inputs": [
        {
          "indexed": false,
          "internalType": "address",
          "name": "newAddress",
          "type": "address"
        }
      ],
      "name": "LogsetFeeAddr",
      "type": "event"
    },
    {
      "anonymous": false,
      "inputs": [
        {
          "indexed": true,
          "internalType": "address",
          "name": "previousOwner",
          "type": "address"
        },
        {
          "indexed": true,
          "internalType": "address",
          "name": "newOwner",
          "type": "address"
        }
      ],
      "name": "OwnershipTransferred",
      "type": "event"
    },
    {
      "anonymous": false,
      "inputs": [
        {
          "indexed": false,
          "internalType": "address",
          "name": "saleContract",
          "type": "address"
        }
      ],
      "name": "SaleDeployed",
      "type": "event"
    },
    {
      "anonymous": false,
      "inputs": [
        {
          "indexed": false,
          "internalType": "address",
          "name": "sale",
          "type": "address"
        },
        {
          "indexed": false,
          "internalType": "address",
          "name": "saleOwner",
          "type": "address"
        },
        {
          "indexed": false,
          "internalType": "address",
          "name": "saleToken",
          "type": "address"
        }
      ],
      "name": "SaleOwnerAndTokenSetInFactory",
      "type": "event"
    },
    {
      "inputs": [],
      "name": "admin",
      "outputs": [
        {
          "internalType": "contract IAdmin",
          "name": "",
          "type": "address"
        }
      ],
      "stateMutability": "view",
      "type": "function"
    },
    {
      "inputs": [
        {
          "internalType": "uint256",
          "name": "",
          "type": "uint256"
        }
      ],
      "name": "allSales",
      "outputs": [
        {
          "internalType": "address",
          "name": "",
          "type": "address"
        }
      ],
      "stateMutability": "view",
      "type": "function"
    },
    {
      "inputs": [],
      "name": "deploySale",
      "outputs": [],
      "stateMutability": "payable",
      "type": "function"
    },
    {
      "inputs": [],
      "name": "fee",
      "outputs": [
        {
          "internalType": "uint256",
          "name": "",
          "type": "uint256"
        }
      ],
      "stateMutability": "view",
      "type": "function"
    },
    {
      "inputs": [],
      "name": "feeAddr",
      "outputs": [
        {
          "internalType": "address payable",
          "name": "",
          "type": "address"
        }
      ],
      "stateMutability": "view",
      "type": "function"
    },
    {
      "inputs": [
        {
          "internalType": "uint256",
          "name": "startIndex",
          "type": "uint256"
        },
        {
          "internalType": "uint256",
          "name": "endIndex",
          "type": "uint256"
        }
      ],
      "name": "getAllSales",
      "outputs": [
        {
          "internalType": "address[]",
          "name": "",
          "type": "address[]"
        }
      ],
      "stateMutability": "view",
      "type": "function"
    },
    {
      "inputs": [],
      "name": "getLastDeployedSale",
      "outputs": [
        {
          "internalType": "address",
          "name": "",
          "type": "address"
        }
      ],
      "stateMutability": "view",
      "type": "function"
    },
    {
      "inputs": [],
      "name": "getNumberOfSalesDeployed",
      "outputs": [
        {
          "internalType": "uint256",
          "name": "",
          "type": "uint256"
        }
      ],
      "stateMutability": "view",
      "type": "function"
    },
    {
      "inputs": [
        {
          "internalType": "address",
          "name": "",
          "type": "address"
        }
      ],
      "name": "isSaleCreatedThroughFactory",
      "outputs": [
        {
          "internalType": "bool",
          "name": "",
          "type": "bool"
        }
      ],
      "stateMutability": "view",
      "type": "function"
    },
    {
      "inputs": [],
      "name": "owner",
      "outputs": [
        {
          "internalType": "address",
          "name": "",
          "type": "address"
        }
      ],
      "stateMutability": "view",
      "type": "function"
    },
    {
      "inputs": [],
      "name": "renounceOwnership",
      "outputs": [],
      "stateMutability": "nonpayable",
      "type": "function"
    },
    {
      "inputs": [
        {
          "internalType": "uint256",
          "name": "_fee",
          "type": "uint256"
        }
      ],
      "name": "setFee",
      "outputs": [],
      "stateMutability": "nonpayable",
      "type": "function"
    },
    {
      "inputs": [
        {
          "internalType": "address payable",
          "name": "_feeAddr",
          "type": "address"
        }
      ],
      "name": "setFeeAddr",
      "outputs": [],
      "stateMutability": "nonpayable",
      "type": "function"
    }
  ],
  "bytecode": "0x608060405234801561001057600080fd5b506040516124b33803806124b383398101604081905261002f916100f9565b610038336100a9565b6001600160a01b0381166100845760405162461bcd60e51b815260206004820152600f60248201526e496e76616c6964206164647265737360881b604482015260640160405180910390fd5b600180546001600160a01b0319166001600160a01b0392909216919091179055610129565b600080546001600160a01b038381166001600160a01b0319831681178455604051919092169283917f8be0079c531659141344cd1fd0a4f28419497f9722a3daafe3b4186f6b6457e09190a35050565b60006020828403121561010b57600080fd5b81516001600160a01b038116811461012257600080fd5b9392505050565b61237b806101386000396000f3fe6080604052600436106100c25760003560e01c80639e75cf451161007f578063b2855b4f11610059578063b2855b4f1461021a578063c050f3d41461023a578063ddca3f4314610242578063f851a4401461025857600080fd5b80639e75cf4514610198578063a00249e8146101c5578063b033342b1461020557600080fd5b8063209a9f41146100c757806339e7fddc146100eb5780635b30b4281461012357806369fe0e2d14610143578063715018a6146101655780638da5cb5b1461017a575b600080fd5b3480156100d357600080fd5b506005545b6040519081526020015b60405180910390f35b3480156100f757600080fd5b5060025461010b906001600160a01b031681565b6040516001600160a01b0390911681526020016100e2565b34801561012f57600080fd5b5061010b61013e366004610891565b610278565b34801561014f57600080fd5b5061016361015e366004610891565b6102a2565b005b34801561017157600080fd5b50610163610363565b34801561018657600080fd5b506000546001600160a01b031661010b565b3480156101a457600080fd5b506101b86101b33660046108aa565b610399565b6040516100e291906108cc565b3480156101d157600080fd5b506101f56101e0366004610931565b60046020526000908152604090205460ff1681565b60405190151581526020016100e2565b34801561021157600080fd5b5061010b6104fe565b34801561022657600080fd5b50610163610235366004610931565b610549565b610163610617565b34801561024e57600080fd5b506100d860035481565b34801561026457600080fd5b5060015461010b906001600160a01b031681565b6005818154811061028857600080fd5b6000918252602090912001546001600160a01b0316905081565b6000546001600160a01b031633146102d55760405162461bcd60e51b81526004016102cc90610955565b60405180910390fd5b8060035414156103275760405162461bcd60e51b815260206004820152601960248201527f416c72656164792073657420746f20746869732076616c75650000000000000060448201526064016102cc565b60038190556040518181527fb7b93f9e109f0cf510fa76f3f87211d618dd9e0e71e9a4a25399e5b4fca38dc8906020015b60405180910390a150565b6000546001600160a01b0316331461038d5760405162461bcd60e51b81526004016102cc90610955565b6103976000610834565b565b60608282116103d65760405162461bcd60e51b8152602060048201526009602482015268109859081a5b9c1d5d60ba1b60448201526064016102cc565b60055482111561041d5760405162461bcd60e51b8152602060048201526012602482015271616363657373206f7574206f66207261676560701b60448201526064016102cc565b600061042984846109a0565b67ffffffffffffffff811115610441576104416109b7565b60405190808252806020026020018201604052801561046a578160200160208202803683370190505b5090506000845b848110156104f4576005818154811061048c5761048c6109cd565b9060005260206000200160009054906101000a90046001600160a01b03168383815181106104bc576104bc6109cd565b6001600160a01b0390921660209283029190910190910152816104de816109e3565b92505080806104ec906109e3565b915050610471565b5090949350505050565b600554600090156105435760058054610519906001906109a0565b81548110610529576105296109cd565b6000918252602090912001546001600160a01b0316919050565b50600090565b6000546001600160a01b031633146105735760405162461bcd60e51b81526004016102cc90610955565b6001600160a01b0381166105c95760405162461bcd60e51b815260206004820152601760248201527f61646472657373207a65726f2076616c69646174696f6e00000000000000000060448201526064016102cc565b600280546001600160a01b0319166001600160a01b0383169081179091556040519081527f094b85991051bfe304763feb3abb04f8fd49bb1629043058ef99387190fd701990602001610358565b600154604051630935e01b60e21b81523360048201526001600160a01b03909116906324d7806c90602401602060405180830381865afa15801561065f573d6000803e3d6000fd5b505050506040513d601f19601f8201168201806040525081019061068391906109fe565b6106cf5760405162461bcd60e51b815260206004820152601b60248201527f4f6e6c792041646d696e2063616e206465706c6f792073616c6573000000000060448201526064016102cc565b6003543410156107175760405162461bcd60e51b8152602060048201526013602482015272139bdd08195b9bdd59da08189b98881cd95b9d606a1b60448201526064016102cc565b6001546040516000916001600160a01b03169061073390610884565b6001600160a01b039091168152602001604051809103906000f08015801561075f573d6000803e3d6000fd5b506001600160a01b03808216600081815260046020526040808220805460ff1916600190811790915560058054918201815583527f036b6384b5eca791c62761152d0c79bb0604c104a5fb6f4eb0703f3154bb3db00180546001600160a01b03191690931790925560025491519394509116913480156108fc0292909190818181858888f193505050501580156107fa573d6000803e3d6000fd5b506040516001600160a01b03821681527f65c0ac3f6aa97317ad1e9f6c73af709aad47dc12a97239e1b08a43a73195f7e090602001610358565b600080546001600160a01b038381166001600160a01b0319831681178455604051919092169283917f8be0079c531659141344cd1fd0a4f28419497f9722a3daafe3b4186f6b6457e09190a35050565b61192580610a2183390190565b6000602082840312156108a357600080fd5b5035919050565b600080604083850312156108bd57600080fd5b50508035926020909101359150565b6020808252825182820181905260009190848201906040850190845b8181101561090d5783516001600160a01b0316835292840192918401916001016108e8565b50909695505050505050565b6001600160a01b038116811461092e57600080fd5b50565b60006020828403121561094357600080fd5b813561094e81610919565b9392505050565b6020808252818101527f4f776e61626c653a2063616c6c6572206973206e6f7420746865206f776e6572604082015260600190565b634e487b7160e01b600052601160045260246000fd5b6000828210156109b2576109b261098a565b500390565b634e487b7160e01b600052604160045260246000fd5b634e487b7160e01b600052603260045260246000fd5b60006000198214156109f7576109f761098a565b5060010190565b600060208284031215610a1057600080fd5b8151801515811461094e57600080fdfe608060405234801561001057600080fd5b5060405161192538038061192583398101604081905261002f916100b7565b6001600160a01b0381166100895760405162461bcd60e51b815260206004820152601760248201527f41646472657373207a65726f2076616c69646174696f6e000000000000000000604482015260640160405180910390fd5b600080546001600160a01b039092166001600160a01b031992831617905560018054909116331790556100e7565b6000602082840312156100c957600080fd5b81516001600160a01b03811681146100e057600080fd5b9392505050565b61182f806100f66000396000f3fe60806040526004361061010d5760003560e01c8063b73c6ce911610095578063da0961e711610064578063da0961e7146103d9578063dfa019c2146103f9578063e303417e1461040e578063e6dd299f1461042e578063f851a4401461044357600080fd5b8063b73c6ce9146102f9578063c45a01551461030e578063cad925ef14610346578063cf5b8d4b1461039957600080fd5b80636c41de0a116100dc5780636c41de0a1461026d5780637417040e1461029b578063845c9306146102b15780638f86f5ea146102c4578063a29f481c146102d957600080fd5b80631058c726146101195780633ccfd60b146101305780635e7464f6146101455780636ad1fe021461019357600080fd5b3661011457005b600080fd5b34801561012557600080fd5b5061012e610463565b005b34801561013c57600080fd5b5061012e6105da565b34801561015157600080fd5b506101796101603660046114bf565b600c602052600090815260409020805460019091015482565b604080519283526020830191909152015b60405180910390f35b34801561019f57600080fd5b50600354600454600554600654600754600854600954610200966001600160a01b038082169760ff600160a01b8404811698600160a81b8504821698600160b01b8604831698600160b81b909604909216969290931694929390929091908b565b604080516001600160a01b039c8d1681529a151560208c0152981515988a0198909852951515606089015293151560808801529690911660a086015260c085015260e08401949094526101008301939093526101208201929092526101408101919091526101600161018a565b34801561027957600080fd5b5061028d6102883660046114da565b6106ae565b60405190815260200161018a565b3480156102a757600080fd5b5061028d600b5481565b61012e6102bf3660046114da565b6106d7565b3480156102d057600080fd5b5061012e610735565b3480156102e557600080fd5b5061012e6102f43660046114bf565b6107f9565b34801561030557600080fd5b5061012e6108f1565b34801561031a57600080fd5b5060015461032e906001600160a01b031681565b6040516001600160a01b03909116815260200161018a565b34801561035257600080fd5b506101796103613660046114bf565b6001600160a01b03166000908152600c6020908152604091829020825180840190935280548084526001909101549290910182905291565b3480156103a557600080fd5b506103c96103b43660046114bf565b600d6020526000908152604090205460ff1681565b604051901515815260200161018a565b3480156103e557600080fd5b5061012e6103f43660046114f3565b610951565b34801561040557600080fd5b5061012e610bfe565b34801561041a57600080fd5b5061012e610429366004611540565b610cfc565b34801561043a57600080fd5b5061012e610ec3565b34801561044f57600080fd5b5060005461032e906001600160a01b031681565b336000908152600d602052604090205460ff166104be5760405162461bcd60e51b81526020600482015260146024820152732234b2103737ba103830b93a34b1b4b830ba329760611b60448201526064015b60405180910390fd5b60085442106104ff5760405162461bcd60e51b815260206004820152600d60248201526c14d85b1948199a5b9a5cda1959609a1b60448201526064016104b5565b336000908152600c602052604090206001810154815460065461052191610f85565b6006556007546105319082610f85565b600755336000908152600d60205260408120805460ff19169055600b80549161055983611589565b90915550506040805180820182526000808252602080830182815233808452600c909252939091208251815592516001909301929092559061059b9083610f98565b60408051338152602081018490527f9042377288c67220d6655fe0d51926ec8fb0c0cce3d5ac8be0b2f8829059272291015b60405180910390a1505050565b336000908152600c6020526040812080546105f58382611012565b925082156106a95760035460405163a9059cbb60e01b8152336004820152602481018590526001600160a01b039091169063a9059cbb906044016020604051808303816000875af115801561064e573d6000803e3d6000fd5b505050506040513d601f19601f8201168201806040525081019061067291906115a0565b5060408051338152602081018590527f6352c5382c4a4578e712449ca65e83cdb392d045dfcf1cad9615189db2da244b91016105cd565b505050565b60006106d16127106106cb6002548561101e90919063ffffffff16565b9061102a565b92915050565b600081116107275760405162461bcd60e51b815260206004820152601f60248201527f416d6f756e742073686f756c642062652067726561746572207468616e20300060448201526064016104b5565b610732333483611036565b50565b6004546001600160a01b0316331461078b5760405162461bcd60e51b81526020600482015260196024820152782932b9ba3934b1ba32b2103a379039b0b6329037bbb732b91760391b60448201526064016104b5565b600954600754106107b057600a805460ff191660011790556107ab6112bd565b6107bb565b600a805460ff191690555b600a5460405160ff909116151581527fd13e41b0867a9bd8e3f746147218ad654188510d96d0ed28f60608c1edfec8459060200160405180910390a1565b600054604051630935e01b60e21b81523360048201526001600160a01b03909116906324d7806c90602401602060405180830381865afa158015610841573d6000803e3d6000fd5b505050506040513d601f19601f8201168201806040525081019061086591906115a0565b6108815760405162461bcd60e51b81526004016104b5906115c2565b6001600160a01b0381166108cf5760405162461bcd60e51b8152602060048201526015602482015274496e76616c696420746f6b656e206164647265737360581b60448201526064016104b5565b600380546001600160a01b0319166001600160a01b0392909216919091179055565b6004546001600160a01b031633146109475760405162461bcd60e51b81526020600482015260196024820152782932b9ba3934b1ba32b2103a379039b0b6329037bbb732b91760391b60448201526064016104b5565b61094f6113ed565b565b600054604051630935e01b60e21b81523360048201526001600160a01b03909116906324d7806c90602401602060405180830381865afa158015610999573d6000803e3d6000fd5b505050506040513d601f19601f820116820180604052508101906109bd91906115a0565b6109d95760405162461bcd60e51b81526004016104b5906115c2565b600354600160a01b900460ff1615610a2b5760405162461bcd60e51b815260206004820152601560248201527429b0b6329030b63932b0b23c9031b932b0ba32b21760591b60448201526064016104b5565b6001600160a01b038416610a815760405162461bcd60e51b815260206004820152601f60248201527f2073616c654f776e65723a2063616e7420626520206164647265737320302e0060448201526064016104b5565b82610ac45760405162461bcd60e51b815260206004820152601360248201527250726963653a2063616e74206265207a65726f60681b60448201526064016104b5565b428211610b135760405162461bcd60e51b815260206004820152601c60248201527f53616c65656e643a206d75737420626520696e20206675747572652e0000000060448201526064016104b5565b60008111610b635760405162461bcd60e51b815260206004820152601960248201527f536f66744361703a2063616e206e6f74206265207a65726f2e0000000000000060448201526064016104b5565b600380546001600160a81b0319166001600160a01b0387811691909117600160a01b17909155600480549186166001600160a01b03199092168217905560058490556008839055600982905560408051918252602082018590528101839052606081018290527f2cd2dfcdeb2b58c4b80527e9df5e12da537fa4f6c958a4fb623a83ab74eeab63906080015b60405180910390a15050505050565b336000908152600d602052604090205460ff16610c545760405162461bcd60e51b81526020600482015260146024820152732234b2103737ba103830b93a34b1b4b830ba329760611b60448201526064016104b5565b600a5460ff1615610c9f5760405162461bcd60e51b815260206004820152601560248201527414d85b19481dd85cdb89dd0818d85b98d95b1b1959605a1b60448201526064016104b5565b336000818152600c6020526040902060018101549091610cbf9082610f98565b60408051338152602081018390527f7b6870f3a094e97eefbe1ea5ee571e640c86c2b18f0882386ebf12f65c1463c4910160405180910390a15050565b600054604051630935e01b60e21b81523360048201526001600160a01b03909116906324d7806c90602401602060405180830381865afa158015610d44573d6000803e3d6000fd5b505050506040513d601f19601f82011682018060405250810190610d6891906115a0565b610d845760405162461bcd60e51b81526004016104b5906115c2565b6003546001600160a01b0383811691161415610de25760405162461bcd60e51b815260206004820152601a60248201527f43616e27742077697468647261772073616c6520746f6b656e2e00000000000060448201526064016104b5565b6040516370a0823160e01b81523060048201526001600160a01b0383169063a9059cbb90839083906370a0823190602401602060405180830381865afa158015610e30573d6000803e3d6000fd5b505050506040513d601f19601f82011682018060405250810190610e549190611604565b6040516001600160e01b031960e085901b1681526001600160a01b03909216600483015260248201526044016020604051808303816000875af1158015610e9f573d6000803e3d6000fd5b505050506040513d601f19601f820116820180604052508101906106a991906115a0565b600054604051630935e01b60e21b81523360048201526001600160a01b03909116906324d7806c90602401602060405180830381865afa158015610f0b573d6000803e3d6000fd5b505050506040513d601f19601f82011682018060405250810190610f2f91906115a0565b610f4b5760405162461bcd60e51b81526004016104b5906115c2565b6003544790600090600160a81b900460ff16610f6957600754610f6c565b60005b9050610f8133610f7c8484610f85565b610f98565b5050565b6000610f91828461161d565b9392505050565b604080516000808252602082019092526001600160a01b038416908390604051610fc29190611634565b60006040518083038185875af1925050503d8060008114610fff576040519150601f19603f3d011682016040523d82523d6000602084013e611004565b606091505b50509050806106a957600080fd5b6000610f91828461166f565b6000610f918284611687565b6000610f9182846116a6565b6001600160a01b0383166000908152600d602052604090205460ff16156110975760405162461bcd60e51b815260206004820152601560248201527420b63932b0b23c903830b93a34b1b4b830ba32b21760591b60448201526064016104b5565b60085442106110d85760405162461bcd60e51b815260206004820152600d60248201526c14d85b1948199a5b9a5cda1959609a1b60448201526064016104b5565b60006111726003600201546106cb600360000160009054906101000a90046001600160a01b03166001600160a01b031663313ce5676040518163ffffffff1660e01b8152600401602060405180830381865afa15801561113c573d6000803e3d6000fd5b505050506040513d601f19601f8201168201806040525081019061116091906116c8565b61116b90600a6117cf565b869061101e565b9050600081116111b95760405162461bcd60e51b815260206004820152601260248201527143616e277420627579203020746f6b656e7360701b60448201526064016104b5565b818111156112005760405162461bcd60e51b815260206004820152601460248201527322bc31b2b2b234b7339030b63637bbb0b731b29760611b60448201526064016104b5565b60065461120d9082611012565b60065560075461121d9084611012565b60075560408051808201825282815260208082018681526001600160a01b0388166000908152600c8352848120845181559151600192830155600d909252928120805460ff1916909317909255600b80549192611279836117de565b9091555050604080516001600160a01b0387168152602081018490527f57d61f3ccd4ccd25ec5d234d6049553a586fac134c85c98d0b0d9d5724f4e43e9101610bef565b6006546113025760405162461bcd60e51b8152602060048201526013602482015272139bc81d1bdad95b9cc81dd95c99481cdbdb19606a1b60448201526064016104b5565b600354600160b81b900460ff161561135c5760405162461bcd60e51b815260206004820152601960248201527f546f6b656e7320616c7265616479206465706f73697465642e0000000000000060448201526064016104b5565b60038054600160b81b60ff60b81b198216179091556006546040516323b872dd60e01b815233600482015230602482015260448101919091526001600160a01b03909116906323b872dd906064016020604051808303816000875af11580156113c9573d6000803e3d6000fd5b505050506040513d601f19601f8201168201806040525081019061073291906115a0565b600a805460ff191660011790556003805460ff60b81b1916600160b81b179055600354600160a81b900460ff161561145e5760405162461bcd60e51b815260206004820152601460248201527343616e277420776974686472617720747769636560601b60448201526064016104b5565b6003805460ff60a81b1916600160a81b179055600754600061147f826106ae565b9050600061148d8383610f85565b90506114993382610f98565b6106a93383610f98565b80356001600160a01b03811681146114ba57600080fd5b919050565b6000602082840312156114d157600080fd5b610f91826114a3565b6000602082840312156114ec57600080fd5b5035919050565b600080600080600060a0868803121561150b57600080fd5b611514866114a3565b9450611522602087016114a3565b94979496505050506040830135926060810135926080909101359150565b6000806040838503121561155357600080fd5b61155c836114a3565b915061156a602084016114a3565b90509250929050565b634e487b7160e01b600052601160045260246000fd5b60008161159857611598611573565b506000190190565b6000602082840312156115b257600080fd5b81518015158114610f9157600080fd5b60208082526022908201527f4f6e6c792061646d696e2063616e2063616c6c20746869732066756e6374696f604082015261371760f11b606082015260800190565b60006020828403121561161657600080fd5b5051919050565b60008282101561162f5761162f611573565b500390565b6000825160005b81811015611655576020818601810151858301520161163b565b81811115611664576000828501525b509190910192915050565b6000821982111561168257611682611573565b500190565b60008160001904831182151516156116a1576116a1611573565b500290565b6000826116c357634e487b7160e01b600052601260045260246000fd5b500490565b6000602082840312156116da57600080fd5b815160ff81168114610f9157600080fd5b600181815b8085111561172657816000190482111561170c5761170c611573565b8085161561171957918102915b93841c93908002906116f0565b509250929050565b60008261173d575060016106d1565b8161174a575060006106d1565b8160018114611760576002811461176a57611786565b60019150506106d1565b60ff84111561177b5761177b611573565b50506001821b6106d1565b5060208310610133831016604e8410600b84101617156117a9575081810a6106d1565b6117b383836116eb565b80600019048211156117c7576117c7611573565b029392505050565b6000610f9160ff84168361172e565b60006000198214156117f2576117f2611573565b506001019056fea2646970667358221220763191beec01284c98f750dc26566113a643c105d04ced4fba58ba6851ac59b664736f6c634300080b0033a264697066735822122009f55977b325bd3f073367b7bac89eb6e51caf1056364524a1381babc178d26764736f6c634300080b0033",
  "linkReferences": {},
  "deployedLinkReferences": {}
}