{
  "_format": "hh-sol-artifact-1",
  "contractName": "SalesFactory",
  "sourceName": "contracts/SaleFactory.sol",
  "abi": [
    {
      "inputs": [
        {
          "internalType": "address",
          "name": "_adminContract",
          "type": "address"
        }
      ],
      "stateMutability": "nonpayable",
      "type": "constructor"
    },
    {
      "anonymous": false,
      "inputs": [
        {
          "indexed": false,
          "internalType": "uint256",
          "name": "newFee",
          "type": "uint256"
        }
      ],
      "name": "LogSetFee",
      "type": "event"
    },
    {
      "anonymous": false,
      "inputs": [
        {
          "indexed": false,
          "internalType": "address",
          "name": "newAddress",
          "type": "address"
        }
      ],
      "name": "LogSetFeeAddr",
      "type": "event"
    },
    {
      "anonymous": false,
      "inputs": [
        {
          "indexed": false,
          "internalType": "address",
          "name": "account",
          "type": "address"
        },
        {
          "indexed": false,
          "internalType": "uint256",
          "name": "amount",
          "type": "uint256"
        }
      ],
      "name": "LogWithdrawalBNB",
      "type": "event"
    },
    {
      "anonymous": false,
      "inputs": [
        {
          "indexed": true,
          "internalType": "address",
          "name": "previousOwner",
          "type": "address"
        },
        {
          "indexed": true,
          "internalType": "address",
          "name": "newOwner",
          "type": "address"
        }
      ],
      "name": "OwnershipTransferred",
      "type": "event"
    },
    {
      "anonymous": false,
      "inputs": [
        {
          "indexed": false,
          "internalType": "address",
          "name": "saleContract",
          "type": "address"
        }
      ],
      "name": "SaleDeployed",
      "type": "event"
    },
    {
      "anonymous": false,
      "inputs": [
        {
          "indexed": false,
          "internalType": "address",
          "name": "sale",
          "type": "address"
        },
        {
          "indexed": false,
          "internalType": "address",
          "name": "saleOwner",
          "type": "address"
        },
        {
          "indexed": false,
          "internalType": "address",
          "name": "saleToken",
          "type": "address"
        }
      ],
      "name": "SaleOwnerAndTokenSetInFactory",
      "type": "event"
    },
    {
      "inputs": [],
      "name": "admin",
      "outputs": [
        {
          "internalType": "contract IAdmin1",
          "name": "",
          "type": "address"
        }
      ],
      "stateMutability": "view",
      "type": "function"
    },
    {
      "inputs": [
        {
          "internalType": "uint256",
          "name": "",
          "type": "uint256"
        }
      ],
      "name": "allSales",
      "outputs": [
        {
          "internalType": "address",
          "name": "",
          "type": "address"
        }
      ],
      "stateMutability": "view",
      "type": "function"
    },
    {
      "inputs": [],
      "name": "deployNormalSale",
      "outputs": [],
      "stateMutability": "payable",
      "type": "function"
    },
    {
      "inputs": [],
      "name": "deployNormalSaleERC20",
      "outputs": [],
      "stateMutability": "payable",
      "type": "function"
    },
    {
      "inputs": [],
      "name": "fee",
      "outputs": [
        {
          "internalType": "uint256",
          "name": "",
          "type": "uint256"
        }
      ],
      "stateMutability": "view",
      "type": "function"
    },
    {
      "inputs": [],
      "name": "feeAddr",
      "outputs": [
        {
          "internalType": "address payable",
          "name": "",
          "type": "address"
        }
      ],
      "stateMutability": "view",
      "type": "function"
    },
    {
      "inputs": [
        {
          "internalType": "uint256",
          "name": "startIndex",
          "type": "uint256"
        },
        {
          "internalType": "uint256",
          "name": "endIndex",
          "type": "uint256"
        }
      ],
      "name": "getAllSales",
      "outputs": [
        {
          "internalType": "address[]",
          "name": "",
          "type": "address[]"
        }
      ],
      "stateMutability": "view",
      "type": "function"
    },
    {
      "inputs": [],
      "name": "getLastDeployedSale",
      "outputs": [
        {
          "internalType": "address",
          "name": "",
          "type": "address"
        }
      ],
      "stateMutability": "view",
      "type": "function"
    },
    {
      "inputs": [],
      "name": "getNumberOfSalesDeployed",
      "outputs": [
        {
          "internalType": "uint256",
          "name": "",
          "type": "uint256"
        }
      ],
      "stateMutability": "view",
      "type": "function"
    },
    {
      "inputs": [],
      "name": "owner",
      "outputs": [
        {
          "internalType": "address",
          "name": "",
          "type": "address"
        }
      ],
      "stateMutability": "view",
      "type": "function"
    },
    {
      "inputs": [],
      "name": "renounceOwnership",
      "outputs": [],
      "stateMutability": "nonpayable",
      "type": "function"
    },
    {
      "inputs": [],
      "name": "serviceFee",
      "outputs": [
        {
          "internalType": "uint256",
          "name": "",
          "type": "uint256"
        }
      ],
      "stateMutability": "view",
      "type": "function"
    },
    {
      "inputs": [
        {
          "internalType": "uint256",
          "name": "_fee",
          "type": "uint256"
        }
      ],
      "name": "setFee",
      "outputs": [],
      "stateMutability": "nonpayable",
      "type": "function"
    },
    {
      "inputs": [
        {
          "internalType": "address payable",
          "name": "_feeAddr",
          "type": "address"
        }
      ],
      "name": "setFeeAddr",
      "outputs": [],
      "stateMutability": "nonpayable",
      "type": "function"
    },
    {
      "inputs": [
        {
          "internalType": "uint256",
          "name": "_serviceFee",
          "type": "uint256"
        }
      ],
      "name": "setServiceFee",
      "outputs": [],
      "stateMutability": "nonpayable",
      "type": "function"
    },
    {
      "inputs": [
        {
          "internalType": "address payable",
          "name": "account",
          "type": "address"
        },
        {
          "internalType": "uint256",
          "name": "amount",
          "type": "uint256"
        }
      ],
      "name": "withdrawBNB",
      "outputs": [],
      "stateMutability": "nonpayable",
      "type": "function"
    }
  ],
  "bytecode": "0x608060405234801561001057600080fd5b506040516166e83803806166e883398101604081905261002f916100f9565b610038336100a9565b6001600160a01b0381166100845760405162461bcd60e51b815260206004820152600f60248201526e496e76616c6964206164647265737360881b604482015260640160405180910390fd5b600180546001600160a01b0319166001600160a01b0392909216919091179055610129565b600080546001600160a01b038381166001600160a01b0319831681178455604051919092169283917f8be0079c531659141344cd1fd0a4f28419497f9722a3daafe3b4186f6b6457e09190a35050565b60006020828403121561010b57600080fd5b81516001600160a01b038116811461012257600080fd5b9392505050565b6165b0806101386000396000f3fe6080604052600436106100f35760003560e01c80638da5cb5b1161008a578063b2855b4f11610059578063b2855b4f14610269578063ddca3f4314610289578063e63228801461029f578063f851a440146102a757600080fd5b80638da5cb5b146101e95780639e75cf4514610207578063a97af1f214610234578063b033342b1461025457600080fd5b806369fe0e2d116100c657806369fe0e2d14610196578063715018a6146101b657806371bc3ecd146101cb5780638abdf5aa146101d357600080fd5b8063209a9f41146100f857806339e7fddc1461011c5780635b30b428146101545780635cdf76f814610174575b600080fd5b34801561010457600080fd5b506005545b6040519081526020015b60405180910390f35b34801561012857600080fd5b5060025461013c906001600160a01b031681565b6040516001600160a01b039091168152602001610113565b34801561016057600080fd5b5061013c61016f366004610be9565b6102c7565b34801561018057600080fd5b5061019461018f366004610be9565b6102f1565b005b3480156101a257600080fd5b506101946101b1366004610be9565b61040c565b3480156101c257600080fd5b50610194610517565b61019461057d565b3480156101df57600080fd5b5061010960045481565b3480156101f557600080fd5b506000546001600160a01b031661013c565b34801561021357600080fd5b50610227610222366004610c02565b6106e7565b6040516101139190610c24565b34801561024057600080fd5b5061019461024f366004610c8d565b61084c565b34801561026057600080fd5b5061013c610997565b34801561027557600080fd5b50610194610284366004610cb7565b6109e2565b34801561029557600080fd5b5061010960035481565b610194610b0e565b3480156102b357600080fd5b5060015461013c906001600160a01b031681565b600581815481106102d757600080fd5b6000918252602090912001546001600160a01b0316905081565b600154604051630935e01b60e21b81523360048201526001600160a01b03909116906324d7806c90602401602060405180830381865afa158015610339573d6000803e3d6000fd5b505050506040513d601f19601f8201168201806040525081019061035d9190610cd9565b6103825760405162461bcd60e51b815260040161037990610cfb565b60405180910390fd5b8060045414156103d05760405162461bcd60e51b8152602060048201526019602482015278416c72656164792073657420746f20746869732076616c756560381b6044820152606401610379565b60048190556040518181527fb7b93f9e109f0cf510fa76f3f87211d618dd9e0e71e9a4a25399e5b4fca38dc8906020015b60405180910390a150565b600154604051630935e01b60e21b81523360048201526001600160a01b03909116906324d7806c90602401602060405180830381865afa158015610454573d6000803e3d6000fd5b505050506040513d601f19601f820116820180604052508101906104789190610cd9565b6104945760405162461bcd60e51b815260040161037990610cfb565b8060035414156104e25760405162461bcd60e51b8152602060048201526019602482015278416c72656164792073657420746f20746869732076616c756560381b6044820152606401610379565b60038190556040518181527fb7b93f9e109f0cf510fa76f3f87211d618dd9e0e71e9a4a25399e5b4fca38dc890602001610401565b6000546001600160a01b031633146105715760405162461bcd60e51b815260206004820181905260248201527f4f776e61626c653a2063616c6c6572206973206e6f7420746865206f776e65726044820152606401610379565b61057b6000610b7d565b565b6003543410156105c55760405162461bcd60e51b8152602060048201526013602482015272139bdd08195b9bdd59da08189b98881cd95b9d606a1b6044820152606401610379565b6001546004546002546040516000936001600160a01b03908116939216906105ec90610bcd565b6001600160a01b03938416815260208101929092529091166040820152606001604051809103906000f080158015610628573d6000803e3d6000fd5b506005805460018101825560009182527f036b6384b5eca791c62761152d0c79bb0604c104a5fb6f4eb0703f3154bb3db00180546001600160a01b038085166001600160a01b03199092169190911790915560025460405193945016913480156108fc0292909190818181858888f193505050501580156106ad573d6000803e3d6000fd5b506040516001600160a01b03821681527f65c0ac3f6aa97317ad1e9f6c73af709aad47dc12a97239e1b08a43a73195f7e090602001610401565b60608282116107245760405162461bcd60e51b8152602060048201526009602482015268109859081a5b9c1d5d60ba1b6044820152606401610379565b60055482111561076b5760405162461bcd60e51b8152602060048201526012602482015271616363657373206f7574206f66207261676560701b6044820152606401610379565b60006107778484610d48565b67ffffffffffffffff81111561078f5761078f610d5f565b6040519080825280602002602001820160405280156107b8578160200160208202803683370190505b5090506000845b8481101561084257600581815481106107da576107da610d75565b9060005260206000200160009054906101000a90046001600160a01b031683838151811061080a5761080a610d75565b6001600160a01b03909216602092830291909101909101528161082c81610d8b565b925050808061083a90610d8b565b9150506107bf565b5090949350505050565b600154604051630935e01b60e21b81523360048201526001600160a01b03909116906324d7806c90602401602060405180830381865afa158015610894573d6000803e3d6000fd5b505050506040513d601f19601f820116820180604052508101906108b89190610cd9565b6108d45760405162461bcd60e51b815260040161037990610cfb565b303181111561091a5760405162461bcd60e51b8152602060048201526012602482015271496e63756666696369656e742066756e647360701b6044820152606401610379565b6040516001600160a01b0383169082156108fc029083906000818181858888f19350505050158015610950573d6000803e3d6000fd5b50604080516001600160a01b0384168152602081018390527f97ae63a914ea840d58c16f3a2db838f40b8809624bef85b83c29d1b3c5ed99ef910160405180910390a15050565b600554600090156109dc57600580546109b290600190610d48565b815481106109c2576109c2610d75565b6000918252602090912001546001600160a01b0316919050565b50600090565b600154604051630935e01b60e21b81523360048201526001600160a01b03909116906324d7806c90602401602060405180830381865afa158015610a2a573d6000803e3d6000fd5b505050506040513d601f19601f82011682018060405250810190610a4e9190610cd9565b610a6a5760405162461bcd60e51b815260040161037990610cfb565b6001600160a01b038116610ac05760405162461bcd60e51b815260206004820152601760248201527f61646472657373207a65726f2076616c69646174696f6e0000000000000000006044820152606401610379565b600280546001600160a01b0319166001600160a01b0383169081179091556040519081527fc72840f7d1a3e2cc406ee772ab60c13f624689e9ff2d7cce94b1dd7b4c1949cf90602001610401565b600354341015610b565760405162461bcd60e51b8152602060048201526013602482015272139bdd08195b9bdd59da08189b98881cd95b9d606a1b6044820152606401610379565b6001546004546002546040516000936001600160a01b03908116939216906105ec90610bdb565b600080546001600160a01b038381166001600160a01b0319831681178455604051919092169283917f8be0079c531659141344cd1fd0a4f28419497f9722a3daafe3b4186f6b6457e09190a35050565b612a228062000da783390190565b612db280620037c983390190565b600060208284031215610bfb57600080fd5b5035919050565b60008060408385031215610c1557600080fd5b50508035926020909101359150565b6020808252825182820181905260009190848201906040850190845b81811015610c655783516001600160a01b031683529284019291840191600101610c40565b50909695505050505050565b80356001600160a01b0381168114610c8857600080fd5b919050565b60008060408385031215610ca057600080fd5b610ca983610c71565b946020939093013593505050565b600060208284031215610cc957600080fd5b610cd282610c71565b9392505050565b600060208284031215610ceb57600080fd5b81518015158114610cd257600080fd5b6020808252601b908201527f4f6e6c792041646d696e2063616e206465706c6f792073616c65730000000000604082015260600190565b634e487b7160e01b600052601160045260246000fd5b600082821015610d5a57610d5a610d32565b500390565b634e487b7160e01b600052604160045260246000fd5b634e487b7160e01b600052603260045260246000fd5b6000600019821415610d9f57610d9f610d32565b506001019056fe60806040523480156200001157600080fd5b5060405162002a2238038062002a228339810160408190526200003491620000e4565b6001600160a01b0383166200008f5760405162461bcd60e51b815260206004820152601760248201527f41646472657373207a65726f2076616c69646174696f6e000000000000000000604482015260640160405180910390fd5b600080546001600160a01b039485166001600160a01b0319918216179091556001929092556002805491909316911617905562000125565b80516001600160a01b0381168114620000df57600080fd5b919050565b600080600060608486031215620000fa57600080fd5b6200010584620000c7565b9250602084015191506200011c60408501620000c7565b90509250925092565b6128ed80620001356000396000f3fe6080604052600436106101d15760003560e01c8063a32bf597116100f7578063d38b99f711610095578063e737544a11610064578063e737544a14610653578063e7a4e07814610668578063f48af77014610688578063f851a440146106a857600080fd5b8063d38b99f7146105e9578063da4d4fbf14610609578063e303417e1461061e578063e6dd299f1461063e57600080fd5b8063b73c6ce9116100d1578063b73c6ce914610510578063c7b5e4ab14610525578063cad925ef14610546578063cf5b8d4b146105b957600080fd5b8063a32bf597146104d1578063a525d237146104e6578063ab7589b5146104fb57600080fd5b80635e7464f61161016f578063845c93061161013e578063845c93061461047e5780638abdf5aa146104915780638f08220f146104a75780638f86f5ea146104bc57600080fd5b80635e7464f61461030a5780636ad1fe02146103715780637417040e146104535780637c4b414d1461046957600080fd5b8063365b94ad116101ab578063365b94ad1461025f57806339e7fddc146102905780633ccfd60b146102c857806354d439c7146102dd57600080fd5b80632785f8bb146101dd5780632f2857091461021d578063357b7e711461023d57600080fd5b366101d857005b600080fd5b3480156101e957600080fd5b5061020a6101f8366004612303565b60106020526000908152604090205481565b6040519081526020015b60405180910390f35b34801561022957600080fd5b5061020a61023836600461231e565b6106c8565b34801561024957600080fd5b5061025d610258366004612337565b6106e9565b005b34801561026b57600080fd5b5060025461028090600160a81b900460ff1681565b6040519015158152602001610214565b34801561029c57600080fd5b506002546102b0906001600160a01b031681565b6040516001600160a01b039091168152602001610214565b3480156102d457600080fd5b5061025d61086c565b3480156102e957600080fd5b5061020a6102f836600461231e565b600d6020526000908152604090205481565b34801561031657600080fd5b5061034f610325366004612303565b600e6020526000908152604090208054600182015460028301546003909301549192909160ff1684565b6040805194855260208501939093529183015215156060820152608001610214565b34801561037d57600080fd5b50600354600454600554600654600754600854600954600a546103e0976001600160a01b038082169860ff600160a01b8404811699600160a81b8504821699600160b01b8604831699600160b81b9096049092169792909316959294909392908c565b604080516001600160a01b039d8e1681529b151560208d0152991515998b019990995296151560608a015294151560808901529790921660a087015260c086015260e085015261010084019490945261012083019390935261014082019290925261016081019190915261018001610214565b34801561045f57600080fd5b5061020a600b5481565b34801561047557600080fd5b5061025d610a4c565b61025d61048c36600461231e565b610bb3565b34801561049d57600080fd5b5061020a60015481565b3480156104b357600080fd5b5061025d610c0c565b3480156104c857600080fd5b5061025d610d6d565b3480156104dd57600080fd5b5061020a610f2c565b3480156104f257600080fd5b5061025d611014565b34801561050757600080fd5b50600b5461020a565b34801561051c57600080fd5b5061025d611048565b34801561053157600080fd5b5060025461028090600160a01b900460ff1681565b34801561055257600080fd5b5061034f610561366004612303565b6001600160a01b03166000908152600e6020908152604091829020825160808101845281548082526001830154938201849052600283015494820185905260039092015460ff16151560609091018190529093919291565b3480156105c557600080fd5b506102806105d4366004612303565b600f6020526000908152604090205460ff1681565b3480156105f557600080fd5b5061025d610604366004612437565b61107a565b34801561061557600080fd5b5061025d61119d565b34801561062a57600080fd5b5061025d6106393660046124f7565b6111cf565b34801561064a57600080fd5b5061025d611396565b34801561065f57600080fd5b5061025d611458565b34801561067457600080fd5b5061025d61068336600461252a565b611641565b34801561069457600080fd5b5061025d6106a336600461257f565b61193e565b3480156106b457600080fd5b506000546102b0906001600160a01b031681565b600c81815481106106d857600080fd5b600091825260209091200154905081565b600054604051630935e01b60e21b81523360048201526001600160a01b03909116906324d7806c90602401602060405180830381865afa158015610731573d6000803e3d6000fd5b505050506040513d601f19601f8201168201806040525081019061075591906125f4565b61077a5760405162461bcd60e51b81526004016107719061261d565b60405180910390fd5b60058111156107bb5760405162461bcd60e51b815260206004820152600d60248201526c4d61782074696572206973203560981b6044820152606401610771565b806107fa5760405162461bcd60e51b815260206004820152600f60248201526e0546965722063616e2774206265203608c1b6044820152606401610771565b6001600160a01b0382166108505760405162461bcd60e51b815260206004820152601760248201527f5a65726f20616464726573732076616c69646174696f6e0000000000000000006044820152606401610771565b6001600160a01b03909116600090815260106020526040902055565b60085442116108af5760405162461bcd60e51b815260206004820152600f60248201526e53616c652069732072756e6e696e6760881b6044820152606401610771565b600254600160a81b900460ff16151560011480156108db5750600254600160a01b900460ff1615156001145b61091c5760405162461bcd60e51b815260206004820152601260248201527114d85b19481dd85cc818d85b98d95b1b195960721b6044820152606401610771565b336000908152600e60205260408120600381015460ff16156109745760405162461bcd60e51b815260206004820152601160248201527020b63932b0b23c903bb4ba34323930bbb760791b6044820152606401610771565b80546109808382611bad565b60038301805460ff1916600117905592508215610a475760035460405163a9059cbb60e01b8152336004820152602481018590526001600160a01b039091169063a9059cbb906044016020604051808303816000875af11580156109e8573d6000803e3d6000fd5b505050506040513d601f19601f82011682018060405250810190610a0c91906125f4565b5060408051338152602081018590527f6352c5382c4a4578e712449ca65e83cdb392d045dfcf1cad9615189db2da244b910160405180910390a15b505050565b6004546001600160a01b03163314610a765760405162461bcd60e51b81526004016107719061265f565b600954610ac55760405162461bcd60e51b815260206004820152601860248201527f53616c6520706172616d6574657273206e6f74207365742e00000000000000006044820152606401610771565b600354600160b81b900460ff1615610b1f5760405162461bcd60e51b815260206004820152601960248201527f546f6b656e7320616c7265616479206465706f73697465642e000000000000006044820152606401610771565b60038054600160b81b60ff60b81b198216179091556009546040516323b872dd60e01b815233600482015230602482015260448101919091526001600160a01b03909116906323b872dd906064016020604051808303816000875af1158015610b8c573d6000803e3d6000fd5b505050506040513d601f19601f82011682018060405250810190610bb091906125f4565b50565b8015801590610bc3575060058111155b610c015760405162461bcd60e51b815260206004820152600f60248201526e125b9d985b1a59081d1a595c881a59608a1b6044820152606401610771565b610bb0333483611bc2565b600254600160a81b900460ff1615156001148015610c345750600254600160a01b900460ff16155b610c795760405162461bcd60e51b815260206004820152601660248201527529b0b632903bb0b9b713ba1031b0b731b2b63632b21760511b6044820152606401610771565b336000908152600f602052604090205460ff16610ccf5760405162461bcd60e51b81526020600482015260146024820152732234b2103737ba103830b93a34b1b4b830ba329760611b6044820152606401610771565b600854421015610d105760405162461bcd60e51b815260206004820152600c60248201526b53616c652072756e6e696e6760a01b6044820152606401610771565b336000818152600e6020526040902060018101549091610d309082611f6b565b60408051338152602081018390527fb784decb825aad3b5e2fb74391c346eff699f0fe79836d5a388e4a3d17261e29910160405180910390a15050565b600054604051630935e01b60e21b81523360048201526001600160a01b03909116906324d7806c90602401602060405180830381865afa158015610db5573d6000803e3d6000fd5b505050506040513d601f19601f82011682018060405250810190610dd991906125f4565b610df55760405162461bcd60e51b81526004016107719061261d565b600854421015610e475760405162461bcd60e51b815260206004820152601860248201527f53616c65206973206e6f742066696e69736865642079657400000000000000006044820152606401610771565b600254600160a81b900460ff1615610ead5760405162461bcd60e51b8152602060048201526024808201527f5468652066756e6374696f6e2063616e2062652063616c6c6564206f6e6c79206044820152636f6e636560e01b6064820152608401610771565b600a5460075410610ed2576002805461ffff60a01b191661010160a01b179055610ee7565b6002805461ffff60a01b1916600160a81b1790555b600254604051600160a01b90910460ff16151581527fd13e41b0867a9bd8e3f746147218ad654188510d96d0ed28f60608c1edfec845906020015b60405180910390a1565b60008060009050600d6000600c600081548110610f4b57610f4b612696565b9060005260206000200154815260200190815260200160002054421015610f7457600091505090565b600c54610f828260016126c2565b108015610fc85750600d6000600c610f9b8460016126c2565b81548110610fab57610fab612696565b906000526020600020015481526020019081526020016000205442115b15610fdf5780610fd7816126da565b915050610f74565b6008544210610ff057600091505090565b600c818154811061100357611003612696565b906000526020600020015491505090565b6004546001600160a01b0316331461103e5760405162461bcd60e51b81526004016107719061265f565b611046611fe5565b565b6004546001600160a01b031633146110725760405162461bcd60e51b81526004016107719061265f565b611046612156565b600054604051630935e01b60e21b81523360048201526001600160a01b03909116906324d7806c90602401602060405180830381865afa1580156110c2573d6000803e3d6000fd5b505050506040513d601f19601f820116820180604052508101906110e691906125f4565b6111025760405162461bcd60e51b81526004016107719061261d565b80518251146111435760405162461bcd60e51b815260206004820152600d60248201526c125b9d985b1a59081a5b9c1d5d609a1b6044820152606401610771565b60005b8251811015610a475761118b83828151811061116457611164612696565b602002602001015183838151811061117e5761117e612696565b60200260200101516106e9565b80611195816126da565b915050611146565b6004546001600160a01b031633146111c75760405162461bcd60e51b81526004016107719061265f565b61103e612156565b600054604051630935e01b60e21b81523360048201526001600160a01b03909116906324d7806c90602401602060405180830381865afa158015611217573d6000803e3d6000fd5b505050506040513d601f19601f8201168201806040525081019061123b91906125f4565b6112575760405162461bcd60e51b81526004016107719061261d565b6003546001600160a01b03838116911614156112b55760405162461bcd60e51b815260206004820152601a60248201527f43616e27742077697468647261772073616c6520746f6b656e2e0000000000006044820152606401610771565b6040516370a0823160e01b81523060048201526001600160a01b0383169063a9059cbb90839083906370a0823190602401602060405180830381865afa158015611303573d6000803e3d6000fd5b505050506040513d601f19601f8201168201806040525081019061132791906126f5565b6040516001600160e01b031960e085901b1681526001600160a01b03909216600483015260248201526044016020604051808303816000875af1158015611372573d6000803e3d6000fd5b505050506040513d601f19601f82011682018060405250810190610a4791906125f4565b600054604051630935e01b60e21b81523360048201526001600160a01b03909116906324d7806c90602401602060405180830381865afa1580156113de573d6000803e3d6000fd5b505050506040513d601f19601f8201168201806040525081019061140291906125f4565b61141e5760405162461bcd60e51b81526004016107719061261d565b6003544790600090600160a81b900460ff1661143c5760075461143f565b60005b90506114543361144f84846122a6565b611f6b565b5050565b6004546001600160a01b031633146114825760405162461bcd60e51b81526004016107719061265f565b600254600160a81b900460ff16151560011480156114aa5750600254600160a01b900460ff16155b6114ee5760405162461bcd60e51b815260206004820152601560248201527414d85b19481dd85cdb89dd0818d85b98d95b1b1959605a1b6044820152606401610771565b60085442101561152f5760405162461bcd60e51b815260206004820152600c60248201526b53616c652072756e6e696e6760a01b6044820152606401610771565b600354600160b81b900460ff16151560011461158d5760405162461bcd60e51b815260206004820152601a60248201527f546f6b656e732077657265206e6f74206465706f73697465642e0000000000006044820152606401610771565b60035460095460405163a9059cbb60e01b815233600482015260248101919091526001600160a01b039091169063a9059cbb906044016020604051808303816000875af11580156115e2573d6000803e3d6000fd5b505050506040513d601f19601f8201168201806040525081019061160691906125f4565b506009546040805133815260208101929092527f92c3df9e05376a616081b6bd06cc1c7c6e184259c750691facea9774b849083a9101610f22565b600054604051630935e01b60e21b81523360048201526001600160a01b03909116906324d7806c90602401602060405180830381865afa158015611689573d6000803e3d6000fd5b505050506040513d601f19601f820116820180604052508101906116ad91906125f4565b6116c95760405162461bcd60e51b81526004016107719061261d565b600354600160a01b900460ff161561171b5760405162461bcd60e51b815260206004820152601560248201527429b0b6329030b63932b0b23c9031b932b0ba32b21760591b6044820152606401610771565b6001600160a01b0386166117845760405162461bcd60e51b815260206004820152602a60248201527f73657453616c65506172616d733a20546f6b656e20616464726573732063616e604482015269103737ba10313290181760b11b6064820152608401610771565b6001600160a01b0385166117da5760405162461bcd60e51b815260206004820152601b60248201527f496e76616c69642073616c65206f776e657220616464726573732e00000000006044820152606401610771565b83158015906117e857508115155b80156117f357508015155b80156117fe57504283115b61183b5760405162461bcd60e51b815260206004820152600e60248201526d24b73b30b634b21034b7383aba1760911b6044820152606401610771565b611848426283d6006126c2565b8311156118975760405162461bcd60e51b815260206004820152601d60248201527f4d61782073616c65206475726174696f6e2069732031303020646179730000006044820152606401610771565b600380546001600160a81b0319166001600160a01b0388811691909117600160a01b17909155600480549187166001600160a01b031990921682179055600585905560088490556009839055600a8290556040805191825260208201869052810184905260608101839052608081018290527f04015af06f31ecd628a4f9fd400d312fc7ae48fdfa0d1a26b3b9ade20971a86e9060a00160405180910390a1505050505050565b600054604051630935e01b60e21b81523360048201526001600160a01b03909116906324d7806c90602401602060405180830381865afa158015611986573d6000803e3d6000fd5b505050506040513d601f19601f820116820180604052508101906119aa91906125f4565b6119c65760405162461bcd60e51b81526004016107719061261d565b600354600160a01b900460ff166119dc57600080fd5b600c5415611a225760405162461bcd60e51b81526020600482015260136024820152722937bab732399039b2ba1030b63932b0b23c9760691b6044820152606401610771565b80611a2c57600080fd5b60004283836000818110611a4257611a42612696565b905060200201351015611a5457600080fd5b60005b82811015611ba757600854848483818110611a7457611a74612696565b9050602002013510611a8557600080fd5b81848483818110611a9857611a98612696565b9050602002013511611aa957600080fd5b838382818110611abb57611abb612696565b9050602002013591506000816001611ad391906126c2565b600c80546001810182556000919091527fdf6966c971051c3d54ec59162606531493a51404a002842f56009d7e5cf4a8c7018190559050848483818110611b1c57611b1c612696565b90506020020135600d6000838152602001908152602001600020819055507f99889566cac43af340598cca5a5addfd4f6c14acda4da96185a96267d5e3b08481868685818110611b6e57611b6e612696565b90506020020135604051611b8c929190918252602082015260400190565b60405180910390a15080611b9f816126da565b915050611a57565b50505050565b6000611bb982846126c2565b90505b92915050565b6001600160a01b0383166000908152600f602052604090205460ff1615611c235760405162461bcd60e51b815260206004820152601560248201527420b63932b0b23c903830b93a34b1b4b830ba32b21760591b6044820152606401610771565b6001600160a01b0383166000908152601060205260409020548114611c785760405162461bcd60e51b815260206004820152600b60248201526a15dc9bdb99c8149bdd5b9960aa1b6044820152606401610771565b6000818152600d6020526040902054421015611cd65760405162461bcd60e51b815260206004820152601e60248201527f596f757220726f756e6420686176656e277420737461727465642079657400006044820152606401610771565b600354600160b81b900460ff161515600114611d345760405162461bcd60e51b815260206004820152601e60248201527f53616c6520746f6b656e732077657265206e6f74206465706f736974656400006044820152606401610771565b6000611dd4600360020154611dce600360000160009054906101000a90046001600160a01b03166001600160a01b031663313ce5676040518163ffffffff1660e01b8152600401602060405180830381865afa158015611d98573d6000803e3d6000fd5b505050506040513d601f19601f82011682018060405250810190611dbc919061270e565b611dc790600a612815565b86906122b2565b906122be565b905060008111611e1b5760405162461bcd60e51b815260206004820152601260248201527143616e277420627579203020746f6b656e7360701b6044820152606401610771565b600654600954611e2a916122a6565b811115611e795760405162461bcd60e51b815260206004820152601a60248201527f4e6f7420656e6f75676820746f6b656e7320746f2073656c6c2e0000000000006044820152606401610771565b600654611e869082611bad565b600655600754611e969084611bad565b6007556040805160808101825282815260208082018681528284018681526000606085018181526001600160a01b038b168252600e85528682208651815593516001858101919091559251600285015551600393909301805493151560ff19948516179055600f9093529382208054909116909317909255600b80549192611f1d836126da565b9091555050604080516001600160a01b0387168152602081018490527f57d61f3ccd4ccd25ec5d234d6049553a586fac134c85c98d0b0d9d5724f4e43e910160405180910390a15050505050565b604080516000808252602082019092526001600160a01b038416908390604051611f959190612824565b60006040518083038185875af1925050503d8060008114611fd2576040519150601f19603f3d011682016040523d82523d6000602084013e611fd7565b606091505b5050905080610a4757600080fd5b600254600160a81b900460ff16151560011480156120115750600254600160a01b900460ff1615156001145b6120535760405162461bcd60e51b815260206004820152601360248201527214d85b19481dd85cdb8818d85b98d95b1b1959606a1b6044820152606401610771565b60085442101561206257600080fd5b600354600160b01b900460ff16156120b35760405162461bcd60e51b815260206004820152601460248201527363616e277420776974686472617720747769636560601b6044820152606401610771565b6003805460ff60b01b1916600160b01b1790556006546009546000916120d991906122a6565b90508015610bb05760035460405163a9059cbb60e01b8152336004820152602481018390526001600160a01b039091169063a9059cbb906044016020604051808303816000875af1158015612132573d6000803e3d6000fd5b505050506040513d601f19601f8201168201806040525081019061145491906125f4565b600254600160a81b900460ff16151560011480156121825750600254600160a01b900460ff1615156001145b6121c35760405162461bcd60e51b815260206004820152601260248201527114d85b19481dd85cc818d85b98d95b1b195960721b6044820152606401610771565b6008544210156122045760405162461bcd60e51b815260206004820152600c60248201526b53616c652052756e6e696e6760a01b6044820152606401610771565b600354600160a81b900460ff16156122555760405162461bcd60e51b815260206004820152601460248201527363616e277420776974686472617720747769636560601b6044820152606401610771565b6003805460ff60a81b1916600160a81b1790556007546000612276826122ca565b9050600061228483836122a6565b90506122903382611f6b565b600254610a47906001600160a01b031683611f6b565b6000611bb9828461285f565b6000611bb98284612876565b6000611bb98284612895565b6000611bbc612710611dce600154856122b290919063ffffffff16565b80356001600160a01b03811681146122fe57600080fd5b919050565b60006020828403121561231557600080fd5b611bb9826122e7565b60006020828403121561233057600080fd5b5035919050565b6000806040838503121561234a57600080fd5b612353836122e7565b946020939093013593505050565b634e487b7160e01b600052604160045260246000fd5b604051601f8201601f1916810167ffffffffffffffff811182821017156123a0576123a0612361565b604052919050565b600067ffffffffffffffff8211156123c2576123c2612361565b5060051b60200190565b600082601f8301126123dd57600080fd5b813560206123f26123ed836123a8565b612377565b82815260059290921b8401810191818101908684111561241157600080fd5b8286015b8481101561242c5780358352918301918301612415565b509695505050505050565b6000806040838503121561244a57600080fd5b823567ffffffffffffffff8082111561246257600080fd5b818501915085601f83011261247657600080fd5b813560206124866123ed836123a8565b82815260059290921b840181019181810190898411156124a557600080fd5b948201945b838610156124ca576124bb866122e7565b825294820194908201906124aa565b965050860135925050808211156124e057600080fd5b506124ed858286016123cc565b9150509250929050565b6000806040838503121561250a57600080fd5b612513836122e7565b9150612521602084016122e7565b90509250929050565b60008060008060008060c0878903121561254357600080fd5b61254c876122e7565b955061255a602088016122e7565b95989597505050506040840135936060810135936080820135935060a0909101359150565b6000806020838503121561259257600080fd5b823567ffffffffffffffff808211156125aa57600080fd5b818501915085601f8301126125be57600080fd5b8135818111156125cd57600080fd5b8660208260051b85010111156125e257600080fd5b60209290920196919550909350505050565b60006020828403121561260657600080fd5b8151801515811461261657600080fd5b9392505050565b60208082526022908201527f4f6e6c792061646d696e2063616e2063616c6c20746869732066756e6374696f604082015261371760f11b606082015260800190565b60208082526019908201527f5265737472696374656420746f2073616c65206f776e65722e00000000000000604082015260600190565b634e487b7160e01b600052603260045260246000fd5b634e487b7160e01b600052601160045260246000fd5b600082198211156126d5576126d56126ac565b500190565b60006000198214156126ee576126ee6126ac565b5060010190565b60006020828403121561270757600080fd5b5051919050565b60006020828403121561272057600080fd5b815160ff8116811461261657600080fd5b600181815b8085111561276c578160001904821115612752576127526126ac565b8085161561275f57918102915b93841c9390800290612736565b509250929050565b60008261278357506001611bbc565b8161279057506000611bbc565b81600181146127a657600281146127b0576127cc565b6001915050611bbc565b60ff8411156127c1576127c16126ac565b50506001821b611bbc565b5060208310610133831016604e8410600b84101617156127ef575081810a611bbc565b6127f98383612731565b806000190482111561280d5761280d6126ac565b029392505050565b6000611bb960ff841683612774565b6000825160005b81811015612845576020818601810151858301520161282b565b81811115612854576000828501525b509190910192915050565b600082821015612871576128716126ac565b500390565b6000816000190483118215151615612890576128906126ac565b500290565b6000826128b257634e487b7160e01b600052601260045260246000fd5b50049056fea26469706673582212209bd2111fba2d6c986e50d3fcff44608809d60cdf7646f6f0a45f530f799cae5164736f6c634300080b003360806040523480156200001157600080fd5b5060405162002db238038062002db28339810160408190526200003491620000e4565b6001600160a01b0383166200008f5760405162461bcd60e51b815260206004820152601760248201527f41646472657373207a65726f2076616c69646174696f6e000000000000000000604482015260640160405180910390fd5b600080546001600160a01b039485166001600160a01b0319918216179091556001929092556002805491909316911617905562000125565b80516001600160a01b0381168114620000df57600080fd5b919050565b600080600060608486031215620000fa57600080fd5b6200010584620000c7565b9250602084015191506200011c60408501620000c7565b90509250925092565b612c7d80620001356000396000f3fe6080604052600436106101e75760003560e01c80638f86f5ea11610102578063cf5b8d4b11610095578063e6dd299f11610064578063e6dd299f146106c1578063e737544a146106d6578063f48af770146106eb578063f851a4401461070b57600080fd5b8063cf5b8d4b1461063c578063d38b99f71461066c578063da4d4fbf1461068c578063e303417e146106a157600080fd5b8063ab7589b5116100d1578063ab7589b51461057e578063b73c6ce914610593578063c7b5e4ab146105a8578063cad925ef146105c957600080fd5b80638f86f5ea1461051f5780639d143e8e14610534578063a32bf59714610554578063a525d2371461056957600080fd5b806354d439c71161017a5780637417040e116101495780637417040e146104be5780638abdf5aa146104d45780638d47203a146104ea5780638f08220f1461050a57600080fd5b806354d439c7146103285780635e7464f6146103555780636ad1fe02146103bc5780636c41de0a1461049e57600080fd5b8063357b7e71116101b6578063357b7e711461028a578063365b94ad146102aa57806339e7fddc146102db5780633ccfd60b1461031357600080fd5b8063129874aa146101f35780632785f8bb1461021557806328fed2b5146102555780632f2857091461026a57600080fd5b366101ee57005b600080fd5b3480156101ff57600080fd5b5061021361020e366004612625565b61072b565b005b34801561022157600080fd5b50610242610230366004612663565b60116020526000908152604090205481565b6040519081526020015b60405180910390f35b34801561026157600080fd5b5061021361078d565b34801561027657600080fd5b5061024261028536600461267e565b6108f0565b34801561029657600080fd5b506102136102a5366004612697565b610911565b3480156102b657600080fd5b506002546102cb90600160a81b900460ff1681565b604051901515815260200161024c565b3480156102e757600080fd5b506002546102fb906001600160a01b031681565b6040516001600160a01b03909116815260200161024c565b34801561031f57600080fd5b50610213610a8b565b34801561033457600080fd5b5061024261034336600461267e565b600e6020526000908152604090205481565b34801561036157600080fd5b5061039a610370366004612663565b600f6020526000908152604090208054600182015460028301546003909301549192909160ff1684565b604080519485526020850193909352918301521515606082015260800161024c565b3480156103c857600080fd5b50600454600554600654600754600854600954600a54600b5461042b976001600160a01b038082169860ff600160a01b8404811699600160a81b8504821699600160b01b8604831699600160b81b9096049092169792909316959294909392908c565b604080516001600160a01b039d8e1681529b151560208d0152991515998b019990995296151560608a015294151560808901529790921660a087015260c086015260e08501526101008401949094526101208301939093526101408201929092526101608101919091526101800161024c565b3480156104aa57600080fd5b506102426104b936600461267e565b610c6c565b3480156104ca57600080fd5b50610242600c5481565b3480156104e057600080fd5b5061024260015481565b3480156104f657600080fd5b506102136105053660046126c1565b610c95565b34801561051657600080fd5b50610213610ff4565b34801561052b57600080fd5b50610213611155565b34801561054057600080fd5b506003546102fb906001600160a01b031681565b34801561056057600080fd5b506102426112ae565b34801561057557600080fd5b50610213611396565b34801561058a57600080fd5b50600c54610242565b34801561059f57600080fd5b506102136113ca565b3480156105b457600080fd5b506002546102cb90600160a01b900460ff1681565b3480156105d557600080fd5b5061039a6105e4366004612663565b6001600160a01b03166000908152600f6020908152604091829020825160808101845281548082526001830154938201849052600283015494820185905260039092015460ff16151560609091018190529093919291565b34801561064857600080fd5b506102cb610657366004612663565b60106020526000908152604090205460ff1681565b34801561067857600080fd5b50610213610687366004612801565b6113fc565b34801561069857600080fd5b5061021361151f565b3480156106ad57600080fd5b506102136106bc3660046128c1565b611551565b3480156106cd57600080fd5b50610213611718565b3480156106e257600080fd5b50610213611844565b3480156106f757600080fd5b506102136107063660046128f4565b611a2b565b34801561071757600080fd5b506000546102fb906001600160a01b031681565b801580159061073b575060058111155b61077e5760405162461bcd60e51b815260206004820152600f60248201526e125b9d985b1a59081d1a595c881a59608a1b60448201526064015b60405180910390fd5b610789338383611c9a565b5050565b6005546001600160a01b031633146107b75760405162461bcd60e51b815260040161077590612969565b600a546108065760405162461bcd60e51b815260206004820152601860248201527f53616c6520706172616d6574657273206e6f74207365742e00000000000000006044820152606401610775565b600454600160b81b900460ff16156108605760405162461bcd60e51b815260206004820152601960248201527f546f6b656e7320616c7265616479206465706f73697465642e000000000000006044820152606401610775565b60048054600160b81b60ff60b81b198216178255600a546040516323b872dd60e01b8152339381019390935230602484015260448301526001600160a01b0316906323b872dd906064016020604051808303816000875af11580156108c9573d6000803e3d6000fd5b505050506040513d601f19601f820116820180604052508101906108ed91906129a0565b50565b600d818154811061090057600080fd5b600091825260209091200154905081565b600054604051630935e01b60e21b81523360048201526001600160a01b03909116906324d7806c90602401602060405180830381865afa158015610959573d6000803e3d6000fd5b505050506040513d601f19601f8201168201806040525081019061097d91906129a0565b6109995760405162461bcd60e51b8152600401610775906129c2565b60058111156109da5760405162461bcd60e51b815260206004820152600d60248201526c4d61782074696572206973203560981b6044820152606401610775565b80610a195760405162461bcd60e51b815260206004820152600f60248201526e0546965722063616e2774206265203608c1b6044820152606401610775565b6001600160a01b038216610a6f5760405162461bcd60e51b815260206004820152601760248201527f5a65726f20616464726573732076616c69646174696f6e0000000000000000006044820152606401610775565b6001600160a01b03909116600090815260116020526040902055565b6009544211610ace5760405162461bcd60e51b815260206004820152600f60248201526e53616c652069732072756e6e696e6760881b6044820152606401610775565b600254600160a81b900460ff1615156001148015610afa5750600254600160a01b900460ff1615156001145b610b3b5760405162461bcd60e51b815260206004820152601260248201527114d85b19481dd85cc818d85b98d95b1b195960721b6044820152606401610775565b336000908152600f60205260408120600381015460ff1615610b935760405162461bcd60e51b815260206004820152601160248201527020b63932b0b23c903bb4ba34323930bbb760791b6044820152606401610775565b8054610b9f8382612247565b60038301805460ff1916600117905592508215610c67576004805460405163a9059cbb60e01b81523392810192909252602482018590526001600160a01b03169063a9059cbb906044016020604051808303816000875af1158015610c08573d6000803e3d6000fd5b505050506040513d601f19601f82011682018060405250810190610c2c91906129a0565b5060408051338152602081018590527f6352c5382c4a4578e712449ca65e83cdb392d045dfcf1cad9615189db2da244b910160405180910390a15b505050565b6000610c8f612710610c896001548561225a90919063ffffffff16565b90612266565b92915050565b600054604051630935e01b60e21b81523360048201526001600160a01b03909116906324d7806c90602401602060405180830381865afa158015610cdd573d6000803e3d6000fd5b505050506040513d601f19601f82011682018060405250810190610d0191906129a0565b610d1d5760405162461bcd60e51b8152600401610775906129c2565b600454600160a01b900460ff1615610d6f5760405162461bcd60e51b815260206004820152601560248201527429b0b6329030b63932b0b23c9031b932b0ba32b21760591b6044820152606401610775565b6001600160a01b038716610dd85760405162461bcd60e51b815260206004820152602a60248201527f73657453616c65506172616d733a20546f6b656e20616464726573732063616e604482015269103737ba10313290181760b11b6064820152608401610775565b6001600160a01b038616610e2e5760405162461bcd60e51b815260206004820152601b60248201527f496e76616c69642073616c65206f776e657220616464726573732e00000000006044820152606401610775565b6001600160a01b038116610e775760405162461bcd60e51b815260206004820152601060248201526f24b73b30b634b21030b2323932b9b99760811b6044820152606401610775565b8415801590610e8557508215155b8015610e9057508115155b8015610e9b57504284115b610ed85760405162461bcd60e51b815260206004820152600e60248201526d24b73b30b634b21034b7383aba1760911b6044820152606401610775565b610ee5426283d600612a1a565b841115610f345760405162461bcd60e51b815260206004820152601d60248201527f4d61782073616c65206475726174696f6e2069732031303020646179730000006044820152606401610775565b600480546001600160a81b0319166001600160a01b0389811691909117600160a01b17909155600580548883166001600160a01b0319918216811790925560068890556009879055600a869055600b85905560038054938516939091168317905560408051918252602082018890528101869052606081018590526080810184905260a08101919091527f4034880c77270d5795c853da4e2c03d9f1b39761af48261e2d7810b97069aeb49060c00160405180910390a150505050505050565b600254600160a81b900460ff161515600114801561101c5750600254600160a01b900460ff16155b6110615760405162461bcd60e51b815260206004820152601660248201527529b0b632903bb0b9b713ba1031b0b731b2b63632b21760511b6044820152606401610775565b3360009081526010602052604090205460ff166110b75760405162461bcd60e51b81526020600482015260146024820152732234b2103737ba103830b93a34b1b4b830ba329760611b6044820152606401610775565b6009544210156110f85760405162461bcd60e51b815260206004820152600c60248201526b53616c652072756e6e696e6760a01b6044820152606401610775565b336000818152600f60205260409020600181015490916111189082612272565b60408051338152602081018390527fb784decb825aad3b5e2fb74391c346eff699f0fe79836d5a388e4a3d17261e29910160405180910390a15050565b600054604051630935e01b60e21b81523360048201526001600160a01b03909116906324d7806c90602401602060405180830381865afa15801561119d573d6000803e3d6000fd5b505050506040513d601f19601f820116820180604052508101906111c191906129a0565b6111dd5760405162461bcd60e51b8152600401610775906129c2565b60095442101561122f5760405162461bcd60e51b815260206004820152601860248201527f53616c65206973206e6f742066696e69736865642079657400000000000000006044820152606401610775565b600b5460085410611254576002805461ffff60a01b191661010160a01b179055611269565b6002805461ffff60a01b1916600160a81b1790555b600254604051600160a01b90910460ff16151581527fd13e41b0867a9bd8e3f746147218ad654188510d96d0ed28f60608c1edfec845906020015b60405180910390a1565b60008060009050600e6000600d6000815481106112cd576112cd612a32565b90600052602060002001548152602001908152602001600020544210156112f657600091505090565b600d54611304826001612a1a565b10801561134a5750600e6000600d61131d846001612a1a565b8154811061132d5761132d612a32565b906000526020600020015481526020019081526020016000205442115b15611361578061135981612a48565b9150506112f6565b600954421061137257600091505090565b600d818154811061138557611385612a32565b906000526020600020015491505090565b6005546001600160a01b031633146113c05760405162461bcd60e51b815260040161077590612969565b6113c86122f6565b565b6005546001600160a01b031633146113f45760405162461bcd60e51b815260040161077590612969565b6113c8612468565b600054604051630935e01b60e21b81523360048201526001600160a01b03909116906324d7806c90602401602060405180830381865afa158015611444573d6000803e3d6000fd5b505050506040513d601f19601f8201168201806040525081019061146891906129a0565b6114845760405162461bcd60e51b8152600401610775906129c2565b80518251146114c55760405162461bcd60e51b815260206004820152600d60248201526c125b9d985b1a59081a5b9c1d5d609a1b6044820152606401610775565b60005b8251811015610c675761150d8382815181106114e6576114e6612a32565b602002602001015183838151811061150057611500612a32565b6020026020010151610911565b8061151781612a48565b9150506114c8565b6005546001600160a01b031633146115495760405162461bcd60e51b815260040161077590612969565b6113c0612468565b600054604051630935e01b60e21b81523360048201526001600160a01b03909116906324d7806c90602401602060405180830381865afa158015611599573d6000803e3d6000fd5b505050506040513d601f19601f820116820180604052508101906115bd91906129a0565b6115d95760405162461bcd60e51b8152600401610775906129c2565b6004546001600160a01b03838116911614156116375760405162461bcd60e51b815260206004820152601a60248201527f43616e27742077697468647261772073616c6520746f6b656e2e0000000000006044820152606401610775565b6040516370a0823160e01b81523060048201526001600160a01b0383169063a9059cbb90839083906370a0823190602401602060405180830381865afa158015611685573d6000803e3d6000fd5b505050506040513d601f19601f820116820180604052508101906116a99190612a63565b6040516001600160e01b031960e085901b1681526001600160a01b03909216600483015260248201526044016020604051808303816000875af11580156116f4573d6000803e3d6000fd5b505050506040513d601f19601f82011682018060405250810190610c6791906129a0565b600054604051630935e01b60e21b81523360048201526001600160a01b03909116906324d7806c90602401602060405180830381865afa158015611760573d6000803e3d6000fd5b505050506040513d601f19601f8201168201806040525081019061178491906129a0565b6117a05760405162461bcd60e51b8152600401610775906129c2565b6003546040516370a0823160e01b81523060048201526000916001600160a01b0316906370a0823190602401602060405180830381865afa1580156117e9573d6000803e3d6000fd5b505050506040513d601f19601f8201168201806040525081019061180d9190612a63565b600454909150600090600160a81b900460ff1661182c5760085461182f565b60005b90506107893361183f84846125b8565b612272565b6005546001600160a01b0316331461186e5760405162461bcd60e51b815260040161077590612969565b600254600160a81b900460ff16151560011480156118965750600254600160a01b900460ff16155b6118da5760405162461bcd60e51b815260206004820152601560248201527414d85b19481dd85cdb89dd0818d85b98d95b1b1959605a1b6044820152606401610775565b60095442101561191b5760405162461bcd60e51b815260206004820152600c60248201526b53616c652072756e6e696e6760a01b6044820152606401610775565b600454600160b81b900460ff1615156001146119795760405162461bcd60e51b815260206004820152601a60248201527f546f6b656e732077657265206e6f74206465706f73697465642e0000000000006044820152606401610775565b60048054600a5460405163a9059cbb60e01b8152339381019390935260248301526001600160a01b03169063a9059cbb906044016020604051808303816000875af11580156119cc573d6000803e3d6000fd5b505050506040513d601f19601f820116820180604052508101906119f091906129a0565b50600a546040805133815260208101929092527f92c3df9e05376a616081b6bd06cc1c7c6e184259c750691facea9774b849083a91016112a4565b600054604051630935e01b60e21b81523360048201526001600160a01b03909116906324d7806c90602401602060405180830381865afa158015611a73573d6000803e3d6000fd5b505050506040513d601f19601f82011682018060405250810190611a9791906129a0565b611ab35760405162461bcd60e51b8152600401610775906129c2565b600454600160a01b900460ff16611ac957600080fd5b600d5415611b0f5760405162461bcd60e51b81526020600482015260136024820152722937bab732399039b2ba1030b63932b0b23c9760691b6044820152606401610775565b80611b1957600080fd5b60004283836000818110611b2f57611b2f612a32565b905060200201351015611b4157600080fd5b60005b82811015611c9457600954848483818110611b6157611b61612a32565b9050602002013510611b7257600080fd5b81848483818110611b8557611b85612a32565b9050602002013511611b9657600080fd5b838382818110611ba857611ba8612a32565b9050602002013591506000816001611bc09190612a1a565b600d80546001810182556000919091527fd7b6990105719101dabeb77144f2a3385c8033acd3af97e9423a695e81ad1eb5018190559050848483818110611c0957611c09612a32565b90506020020135600e6000838152602001908152602001600020819055507f99889566cac43af340598cca5a5addfd4f6c14acda4da96185a96267d5e3b08481868685818110611c5b57611c5b612a32565b90506020020135604051611c79929190918252602082015260400190565b60405180910390a15080611c8c81612a48565b915050611b44565b50505050565b6001600160a01b03831660009081526010602052604090205460ff1615611cfb5760405162461bcd60e51b815260206004820152601560248201527420b63932b0b23c903830b93a34b1b4b830ba32b21760591b6044820152606401610775565b6001600160a01b0383166000908152601160205260409020548114611d505760405162461bcd60e51b815260206004820152600b60248201526a15dc9bdb99c8149bdd5b9960aa1b6044820152606401610775565b6000818152600e6020526040902054421015611dae5760405162461bcd60e51b815260206004820152601e60248201527f596f757220726f756e6420686176656e277420737461727465642079657400006044820152606401610775565b600454600160b81b900460ff161515600114611e0c5760405162461bcd60e51b815260206004820152601e60248201527f53616c6520746f6b656e732077657265206e6f74206465706f736974656400006044820152606401610775565b600354604051636eb1769f60e11b81526001600160a01b0385811660048301523060248301528492169063dd62ed3e90604401602060405180830381865afa158015611e5c573d6000803e3d6000fd5b505050506040513d601f19601f82011682018060405250810190611e809190612a63565b1015611ec75760405162461bcd60e51b8152602060048201526016602482015275496e73756669636369656e7420616c6c6f77616e636560501b6044820152606401610775565b600354604051636eb1769f60e11b81526001600160a01b038581166004830152306024830152611f6492169063dd62ed3e90604401602060405180830381865afa158015611f19573d6000803e3d6000fd5b505050506040513d601f19601f82011682018060405250810190611f3d9190612a63565b60405180604001604052806009815260200168416c6c6f77616e636560b81b8152506125c4565b611f8c8260405180604001604052806006815260200165185b5bdd5b9d60d21b8152506125c4565b6000612026600460020154610c89600460000160009054906101000a90046001600160a01b03166001600160a01b031663313ce5676040518163ffffffff1660e01b8152600401602060405180830381865afa158015611ff0573d6000803e3d6000fd5b505050506040513d601f19601f820116820180604052508101906120149190612a7c565b61201f90600a612b83565b869061225a565b90506000811161206d5760405162461bcd60e51b815260206004820152601260248201527143616e277420627579203020746f6b656e7360701b6044820152606401610775565b600754600a5461207c916125b8565b8111156120cb5760405162461bcd60e51b815260206004820152601a60248201527f4e6f7420656e6f75676820746f6b656e7320746f2073656c6c2e0000000000006044820152606401610775565b6007546120d89082612247565b6007556008546120e89084612247565b6008556040805160808101825282815260208082018681528284018681526000606085018181526001600160a01b038b168252600f855286822086518155935160018581019190915592516002850155516003909301805493151560ff1994851617905560109093529382208054909116909317909255600c8054919261216e83612a48565b90915550506003546040516323b872dd60e01b81526001600160a01b0387811660048301523060248301526044820187905260009216906323b872dd906064016020604051808303816000875af11580156121cd573d6000803e3d6000fd5b505050506040513d601f19601f820116820180604052508101906121f191906129a0565b9050806121fd57600080fd5b604080516001600160a01b0388168152602081018590527f57d61f3ccd4ccd25ec5d234d6049553a586fac134c85c98d0b0d9d5724f4e43e910160405180910390a1505050505050565b60006122538284612a1a565b9392505050565b60006122538284612b92565b60006122538284612bb1565b60035460405163a9059cbb60e01b81526001600160a01b03848116600483015260248201849052600092169063a9059cbb906044016020604051808303816000875af11580156122c6573d6000803e3d6000fd5b505050506040513d601f19601f820116820180604052508101906122ea91906129a0565b905080610c6757600080fd5b600254600160a81b900460ff16151560011480156123225750600254600160a01b900460ff1615156001145b6123645760405162461bcd60e51b815260206004820152601360248201527214d85b19481dd85cdb8818d85b98d95b1b1959606a1b6044820152606401610775565b60095442101561237357600080fd5b600454600160b01b900460ff16156123c45760405162461bcd60e51b815260206004820152601460248201527363616e277420776974686472617720747769636560601b6044820152606401610775565b6004805460ff60b01b1916600160b01b179055600754600a546000916123ea91906125b8565b905080156108ed576004805460405163a9059cbb60e01b81523392810192909252602482018390526001600160a01b03169063a9059cbb906044016020604051808303816000875af1158015612444573d6000803e3d6000fd5b505050506040513d601f19601f8201168201806040525081019061078991906129a0565b600254600160a81b900460ff16151560011480156124945750600254600160a01b900460ff1615156001145b6124d55760405162461bcd60e51b815260206004820152601260248201527114d85b19481dd85cc818d85b98d95b1b195960721b6044820152606401610775565b6009544210156125165760405162461bcd60e51b815260206004820152600c60248201526b53616c652052756e6e696e6760a01b6044820152606401610775565b600454600160a81b900460ff16156125675760405162461bcd60e51b815260206004820152601460248201527343616e277420776974686472617720747769636560601b6044820152606401610775565b6004805460ff60a81b1916600160a81b179055600854600061258882610c6c565b9050600061259683836125b8565b90506125a23382612272565b600254610c67906001600160a01b031683612272565b60006122538284612bd3565b61078982826040516024016125da929190612bea565b60408051601f198184030181529190526020810180516001600160e01b0316630fa3f34560e01b17905280516a636f6e736f6c652e6c6f67602083016000808483855afa5050505050565b6000806040838503121561263857600080fd5b50508035926020909101359150565b80356001600160a01b038116811461265e57600080fd5b919050565b60006020828403121561267557600080fd5b61225382612647565b60006020828403121561269057600080fd5b5035919050565b600080604083850312156126aa57600080fd5b6126b383612647565b946020939093013593505050565b600080600080600080600060e0888a0312156126dc57600080fd5b6126e588612647565b96506126f360208901612647565b955060408801359450606088013593506080880135925060a0880135915061271d60c08901612647565b905092959891949750929550565b634e487b7160e01b600052604160045260246000fd5b604051601f8201601f1916810167ffffffffffffffff8111828210171561276a5761276a61272b565b604052919050565b600067ffffffffffffffff82111561278c5761278c61272b565b5060051b60200190565b600082601f8301126127a757600080fd5b813560206127bc6127b783612772565b612741565b82815260059290921b840181019181810190868411156127db57600080fd5b8286015b848110156127f657803583529183019183016127df565b509695505050505050565b6000806040838503121561281457600080fd5b823567ffffffffffffffff8082111561282c57600080fd5b818501915085601f83011261284057600080fd5b813560206128506127b783612772565b82815260059290921b8401810191818101908984111561286f57600080fd5b948201945b838610156128945761288586612647565b82529482019490820190612874565b965050860135925050808211156128aa57600080fd5b506128b785828601612796565b9150509250929050565b600080604083850312156128d457600080fd5b6128dd83612647565b91506128eb60208401612647565b90509250929050565b6000806020838503121561290757600080fd5b823567ffffffffffffffff8082111561291f57600080fd5b818501915085601f83011261293357600080fd5b81358181111561294257600080fd5b8660208260051b850101111561295757600080fd5b60209290920196919550909350505050565b60208082526019908201527f5265737472696374656420746f2073616c65206f776e65722e00000000000000604082015260600190565b6000602082840312156129b257600080fd5b8151801515811461225357600080fd5b60208082526022908201527f4f6e6c792061646d696e2063616e2063616c6c20746869732066756e6374696f604082015261371760f11b606082015260800190565b634e487b7160e01b600052601160045260246000fd5b60008219821115612a2d57612a2d612a04565b500190565b634e487b7160e01b600052603260045260246000fd5b6000600019821415612a5c57612a5c612a04565b5060010190565b600060208284031215612a7557600080fd5b5051919050565b600060208284031215612a8e57600080fd5b815160ff8116811461225357600080fd5b600181815b80851115612ada578160001904821115612ac057612ac0612a04565b80851615612acd57918102915b93841c9390800290612aa4565b509250929050565b600082612af157506001610c8f565b81612afe57506000610c8f565b8160018114612b145760028114612b1e57612b3a565b6001915050610c8f565b60ff841115612b2f57612b2f612a04565b50506001821b610c8f565b5060208310610133831016604e8410600b8410161715612b5d575081810a610c8f565b612b678383612a9f565b8060001904821115612b7b57612b7b612a04565b029392505050565b600061225360ff841683612ae2565b6000816000190483118215151615612bac57612bac612a04565b500290565b600082612bce57634e487b7160e01b600052601260045260246000fd5b500490565b600082821015612be557612be5612a04565b500390565b82815260006020604081840152835180604085015260005b81811015612c1e57858101830151858201606001528201612c02565b81811115612c30576000606083870101525b50601f01601f19169290920160600194935050505056fea2646970667358221220d01972b41a60f062d3f596b134a3c2638f95faf970dab9b20a5bba54b65bd01364736f6c634300080b0033a2646970667358221220cb69dc9fe79708ff5a0fc3ad646b3aa04053c7f49cbbae10373dcfe5c8a16d2064736f6c634300080b0033",
  "linkReferences": {},
  "deployedLinkReferences": {}
}