{
  "_format": "hh-sol-artifact-1",
  "contractName": "SalesFactory",
  "sourceName": "contracts/SaleFactory.sol",
  "abi": [
    {
      "inputs": [
        {
          "internalType": "address",
          "name": "_adminContract",
          "type": "address"
        }
      ],
      "stateMutability": "nonpayable",
      "type": "constructor"
    },
    {
      "anonymous": false,
      "inputs": [
        {
          "indexed": false,
          "internalType": "uint256",
          "name": "newFee",
          "type": "uint256"
        }
      ],
      "name": "LogSetFee",
      "type": "event"
    },
    {
      "anonymous": false,
      "inputs": [
        {
          "indexed": false,
          "internalType": "address",
          "name": "newAddress",
          "type": "address"
        }
      ],
      "name": "LogsetFeeAddr",
      "type": "event"
    },
    {
      "anonymous": false,
      "inputs": [
        {
          "indexed": true,
          "internalType": "address",
          "name": "previousOwner",
          "type": "address"
        },
        {
          "indexed": true,
          "internalType": "address",
          "name": "newOwner",
          "type": "address"
        }
      ],
      "name": "OwnershipTransferred",
      "type": "event"
    },
    {
      "anonymous": false,
      "inputs": [
        {
          "indexed": false,
          "internalType": "address",
          "name": "saleContract",
          "type": "address"
        }
      ],
      "name": "SaleDeployed",
      "type": "event"
    },
    {
      "anonymous": false,
      "inputs": [
        {
          "indexed": false,
          "internalType": "address",
          "name": "sale",
          "type": "address"
        },
        {
          "indexed": false,
          "internalType": "address",
          "name": "saleOwner",
          "type": "address"
        },
        {
          "indexed": false,
          "internalType": "address",
          "name": "saleToken",
          "type": "address"
        }
      ],
      "name": "SaleOwnerAndTokenSetInFactory",
      "type": "event"
    },
    {
      "inputs": [],
      "name": "admin",
      "outputs": [
        {
          "internalType": "contract IAdmin",
          "name": "",
          "type": "address"
        }
      ],
      "stateMutability": "view",
      "type": "function"
    },
    {
      "inputs": [
        {
          "internalType": "uint256",
          "name": "",
          "type": "uint256"
        }
      ],
      "name": "allSales",
      "outputs": [
        {
          "internalType": "address",
          "name": "",
          "type": "address"
        }
      ],
      "stateMutability": "view",
      "type": "function"
    },
    {
      "inputs": [],
      "name": "deploySale",
      "outputs": [],
      "stateMutability": "payable",
      "type": "function"
    },
    {
      "inputs": [],
      "name": "fee",
      "outputs": [
        {
          "internalType": "uint256",
          "name": "",
          "type": "uint256"
        }
      ],
      "stateMutability": "view",
      "type": "function"
    },
    {
      "inputs": [],
      "name": "feeAddr",
      "outputs": [
        {
          "internalType": "address payable",
          "name": "",
          "type": "address"
        }
      ],
      "stateMutability": "view",
      "type": "function"
    },
    {
      "inputs": [
        {
          "internalType": "uint256",
          "name": "startIndex",
          "type": "uint256"
        },
        {
          "internalType": "uint256",
          "name": "endIndex",
          "type": "uint256"
        }
      ],
      "name": "getAllSales",
      "outputs": [
        {
          "internalType": "address[]",
          "name": "",
          "type": "address[]"
        }
      ],
      "stateMutability": "view",
      "type": "function"
    },
    {
      "inputs": [],
      "name": "getLastDeployedSale",
      "outputs": [
        {
          "internalType": "address",
          "name": "",
          "type": "address"
        }
      ],
      "stateMutability": "view",
      "type": "function"
    },
    {
      "inputs": [],
      "name": "getNumberOfSalesDeployed",
      "outputs": [
        {
          "internalType": "uint256",
          "name": "",
          "type": "uint256"
        }
      ],
      "stateMutability": "view",
      "type": "function"
    },
    {
      "inputs": [
        {
          "internalType": "address",
          "name": "",
          "type": "address"
        }
      ],
      "name": "isSaleCreatedThroughFactory",
      "outputs": [
        {
          "internalType": "bool",
          "name": "",
          "type": "bool"
        }
      ],
      "stateMutability": "view",
      "type": "function"
    },
    {
      "inputs": [],
      "name": "owner",
      "outputs": [
        {
          "internalType": "address",
          "name": "",
          "type": "address"
        }
      ],
      "stateMutability": "view",
      "type": "function"
    },
    {
      "inputs": [],
      "name": "renounceOwnership",
      "outputs": [],
      "stateMutability": "nonpayable",
      "type": "function"
    },
    {
      "inputs": [
        {
          "internalType": "uint256",
          "name": "_fee",
          "type": "uint256"
        }
      ],
      "name": "setFee",
      "outputs": [],
      "stateMutability": "nonpayable",
      "type": "function"
    },
    {
      "inputs": [
        {
          "internalType": "address payable",
          "name": "_feeAddr",
          "type": "address"
        }
      ],
      "name": "setFeeAddr",
      "outputs": [],
      "stateMutability": "nonpayable",
      "type": "function"
    }
  ],
  "bytecode": "0x608060405234801561001057600080fd5b5060405161391638038061391683398101604081905261002f916100f9565b610038336100a9565b6001600160a01b0381166100845760405162461bcd60e51b815260206004820152600f60248201526e496e76616c6964206164647265737360881b604482015260640160405180910390fd5b600180546001600160a01b0319166001600160a01b0392909216919091179055610129565b600080546001600160a01b038381166001600160a01b0319831681178455604051919092169283917f8be0079c531659141344cd1fd0a4f28419497f9722a3daafe3b4186f6b6457e09190a35050565b60006020828403121561010b57600080fd5b81516001600160a01b038116811461012257600080fd5b9392505050565b6137de806101386000396000f3fe6080604052600436106100c25760003560e01c80639e75cf451161007f578063b2855b4f11610059578063b2855b4f1461021a578063c050f3d41461023a578063ddca3f4314610242578063f851a4401461025857600080fd5b80639e75cf4514610198578063a00249e8146101c5578063b033342b1461020557600080fd5b8063209a9f41146100c757806339e7fddc146100eb5780635b30b4281461012357806369fe0e2d14610143578063715018a6146101655780638da5cb5b1461017a575b600080fd5b3480156100d357600080fd5b506005545b6040519081526020015b60405180910390f35b3480156100f757600080fd5b5060025461010b906001600160a01b031681565b6040516001600160a01b0390911681526020016100e2565b34801561012f57600080fd5b5061010b61013e366004610891565b610278565b34801561014f57600080fd5b5061016361015e366004610891565b6102a2565b005b34801561017157600080fd5b50610163610363565b34801561018657600080fd5b506000546001600160a01b031661010b565b3480156101a457600080fd5b506101b86101b33660046108aa565b610399565b6040516100e291906108cc565b3480156101d157600080fd5b506101f56101e0366004610931565b60046020526000908152604090205460ff1681565b60405190151581526020016100e2565b34801561021157600080fd5b5061010b6104fe565b34801561022657600080fd5b50610163610235366004610931565b610549565b610163610617565b34801561024e57600080fd5b506100d860035481565b34801561026457600080fd5b5060015461010b906001600160a01b031681565b6005818154811061028857600080fd5b6000918252602090912001546001600160a01b0316905081565b6000546001600160a01b031633146102d55760405162461bcd60e51b81526004016102cc90610955565b60405180910390fd5b8060035414156103275760405162461bcd60e51b815260206004820152601960248201527f416c72656164792073657420746f20746869732076616c75650000000000000060448201526064016102cc565b60038190556040518181527fb7b93f9e109f0cf510fa76f3f87211d618dd9e0e71e9a4a25399e5b4fca38dc8906020015b60405180910390a150565b6000546001600160a01b0316331461038d5760405162461bcd60e51b81526004016102cc90610955565b6103976000610834565b565b60608282116103d65760405162461bcd60e51b8152602060048201526009602482015268109859081a5b9c1d5d60ba1b60448201526064016102cc565b60055482111561041d5760405162461bcd60e51b8152602060048201526012602482015271616363657373206f7574206f66207261676560701b60448201526064016102cc565b600061042984846109a0565b67ffffffffffffffff811115610441576104416109b7565b60405190808252806020026020018201604052801561046a578160200160208202803683370190505b5090506000845b848110156104f4576005818154811061048c5761048c6109cd565b9060005260206000200160009054906101000a90046001600160a01b03168383815181106104bc576104bc6109cd565b6001600160a01b0390921660209283029190910190910152816104de816109e3565b92505080806104ec906109e3565b915050610471565b5090949350505050565b600554600090156105435760058054610519906001906109a0565b81548110610529576105296109cd565b6000918252602090912001546001600160a01b0316919050565b50600090565b6000546001600160a01b031633146105735760405162461bcd60e51b81526004016102cc90610955565b6001600160a01b0381166105c95760405162461bcd60e51b815260206004820152601760248201527f61646472657373207a65726f2076616c69646174696f6e00000000000000000060448201526064016102cc565b600280546001600160a01b0319166001600160a01b0383169081179091556040519081527f094b85991051bfe304763feb3abb04f8fd49bb1629043058ef99387190fd701990602001610358565b600154604051630935e01b60e21b81523360048201526001600160a01b03909116906324d7806c90602401602060405180830381865afa15801561065f573d6000803e3d6000fd5b505050506040513d601f19601f8201168201806040525081019061068391906109fe565b6106cf5760405162461bcd60e51b815260206004820152601b60248201527f4f6e6c792041646d696e2063616e206465706c6f792073616c6573000000000060448201526064016102cc565b6003543410156107175760405162461bcd60e51b8152602060048201526013602482015272139bdd08195b9bdd59da08189b98881cd95b9d606a1b60448201526064016102cc565b6001546040516000916001600160a01b03169061073390610884565b6001600160a01b039091168152602001604051809103906000f08015801561075f573d6000803e3d6000fd5b506001600160a01b03808216600081815260046020526040808220805460ff1916600190811790915560058054918201815583527f036b6384b5eca791c62761152d0c79bb0604c104a5fb6f4eb0703f3154bb3db00180546001600160a01b03191690931790925560025491519394509116913480156108fc0292909190818181858888f193505050501580156107fa573d6000803e3d6000fd5b506040516001600160a01b03821681527f65c0ac3f6aa97317ad1e9f6c73af709aad47dc12a97239e1b08a43a73195f7e090602001610358565b600080546001600160a01b038381166001600160a01b0319831681178455604051919092169283917f8be0079c531659141344cd1fd0a4f28419497f9722a3daafe3b4186f6b6457e09190a35050565b612d8880610a2183390190565b6000602082840312156108a357600080fd5b5035919050565b600080604083850312156108bd57600080fd5b50508035926020909101359150565b6020808252825182820181905260009190848201906040850190845b8181101561090d5783516001600160a01b0316835292840192918401916001016108e8565b50909695505050505050565b6001600160a01b038116811461092e57600080fd5b50565b60006020828403121561094357600080fd5b813561094e81610919565b9392505050565b6020808252818101527f4f776e61626c653a2063616c6c6572206973206e6f7420746865206f776e6572604082015260600190565b634e487b7160e01b600052601160045260246000fd5b6000828210156109b2576109b261098a565b500390565b634e487b7160e01b600052604160045260246000fd5b634e487b7160e01b600052603260045260246000fd5b60006000198214156109f7576109f761098a565b5060010190565b600060208284031215610a1057600080fd5b8151801515811461094e57600080fdfe60806040523480156200001157600080fd5b5060405162002d8838038062002d888339810160408190526200003491620000be565b6001600160a01b0381166200008f5760405162461bcd60e51b815260206004820152601760248201527f41646472657373207a65726f2076616c69646174696f6e000000000000000000604482015260640160405180910390fd5b600080546001600160a01b039092166001600160a01b03199283161790556001805490911633179055620000f0565b600060208284031215620000d157600080fd5b81516001600160a01b0381168114620000e957600080fd5b9392505050565b612c8880620001006000396000f3fe6080604052600436106101e75760003560e01c8063a29f481c11610102578063da4d4fbf11610095578063e737544a11610064578063e737544a14610678578063f1ef7ff21461068d578063f4b7a413146106ad578063f851a440146106cd57600080fd5b8063da4d4fbf1461060b578063dc25a30014610620578063e303417e14610643578063e6dd299f1461066357600080fd5b8063cad925ef116100d1578063cad925ef1461055b578063cf5b8d4b1461058b578063d38b99f7146105cb578063d78ec9e4146105eb57600080fd5b8063a29f481c146104d9578063a525d237146104f9578063b73c6ce91461050e578063c45a01551461052357600080fd5b80636ad1fe021161017a5780637c4b414d116101495780637c4b414d1461047a5780638f08220f1461048f5780638f86f5ea146104a4578063927f6aee146104b957600080fd5b80636ad1fe02146103425780636c41de0a14610424578063718af7e6146104445780637417040e1461046457600080fd5b8063357b7e71116101b6578063357b7e711461027e57806349da4d311461029e57806354d439c7146102be5780635e7464f6146102eb57600080fd5b8063129874aa146101f35780632785f8bb146102085780632a7c35de146102485780632f2857091461025e57600080fd5b366101ee57005b600080fd5b61020661020136600461254a565b6106ed565b005b34801561021457600080fd5b50610235610223366004612588565b60116020526000908152604090205481565b6040519081526020015b60405180910390f35b34801561025457600080fd5b5061023560145481565b34801561026a57600080fd5b506102356102793660046125a3565b610750565b34801561028a57600080fd5b506102066102993660046125bc565b610771565b3480156102aa57600080fd5b506102066102b936600461254a565b6108eb565b3480156102ca57600080fd5b506102356102d93660046125a3565b600e6020526000908152604090205481565b3480156102f757600080fd5b50610327610306366004612588565b600f6020526000908152604090208054600182015460029092015490919083565b6040805193845260208401929092529082015260600161023f565b34801561034e57600080fd5b50600454600554600654600754600854600954600a54600b546103b1976001600160a01b038082169860ff600160a01b8404811699600160a81b8504821699600160b01b8604831699600160b81b9096049092169792909316959294909392908c565b604080516001600160a01b039d8e1681529b151560208d0152991515998b019990995296151560608a015294151560808901529790921660a087015260c086015260e08501526101008401949094526101208301939093526101408201929092526101608101919091526101800161023f565b34801561043057600080fd5b5061023561043f3660046125a3565b610a09565b34801561045057600080fd5b5061020661045f3660046125e6565b610a32565b34801561047057600080fd5b50610235600c5481565b34801561048657600080fd5b50610206610c80565b34801561049b57600080fd5b50610206610de3565b3480156104b057600080fd5b50610206610ed5565b3480156104c557600080fd5b506102356104d43660046125a3565b611015565b3480156104e557600080fd5b506102066104f4366004612588565b611025565b34801561050557600080fd5b5061020661111d565b34801561051a57600080fd5b50610206611151565b34801561052f57600080fd5b50600154610543906001600160a01b031681565b6040516001600160a01b03909116815260200161023f565b34801561056757600080fd5b5061057b610576366004612588565b611183565b60405161023f949392919061265b565b34801561059757600080fd5b506105bb6105a6366004612588565b60106020526000908152604090205460ff1681565b604051901515815260200161023f565b3480156105d757600080fd5b506102066105e636600461278f565b61125d565b3480156105f757600080fd5b5061020661060636600461284f565b611385565b34801561061757600080fd5b5061020661160e565b34801561062c57600080fd5b50610635611640565b60405161023f9291906128e8565b34801561064f57600080fd5b5061020661065e366004612916565b6116f3565b34801561066f57600080fd5b506102066118ba565b34801561068457600080fd5b50610206611978565b34801561069957600080fd5b506102356106a83660046125a3565b6119a2565b3480156106b957600080fd5b506102066106c8366004612949565b6119b2565b3480156106d957600080fd5b50600054610543906001600160a01b031681565b80158015906106fd575060058111155b6107405760405162461bcd60e51b815260206004820152600f60248201526e125b9d985b1a59081d1a595c881a59608a1b60448201526064015b60405180910390fd5b61074c33348484611e08565b5050565b600d818154811061076057600080fd5b600091825260209091200154905081565b600054604051630935e01b60e21b81523360048201526001600160a01b03909116906324d7806c90602401602060405180830381865afa1580156107b9573d6000803e3d6000fd5b505050506040513d601f19601f820116820180604052508101906107dd9190612996565b6107f95760405162461bcd60e51b8152600401610737906129b8565b600581111561083a5760405162461bcd60e51b815260206004820152600d60248201526c4d61782074696572206973203560981b6044820152606401610737565b806108795760405162461bcd60e51b815260206004820152600f60248201526e0546965722063616e2774206265203608c1b6044820152606401610737565b6001600160a01b0382166108cf5760405162461bcd60e51b815260206004820152601760248201527f5a65726f20616464726573732076616c69646174696f6e0000000000000000006044820152606401610737565b6001600160a01b03909116600090815260116020526040902055565b600054604051630935e01b60e21b81523360048201526001600160a01b03909116906324d7806c90602401602060405180830381865afa158015610933573d6000803e3d6000fd5b505050506040513d601f19601f820116820180604052508101906109579190612996565b6109735760405162461bcd60e51b8152600401610737906129b8565b816109b45760405162461bcd60e51b8152602060048201526011602482015270054696d652063616e206e6f74206265203607c1b6044820152606401610737565b806109f85760405162461bcd60e51b81526020600482015260146024820152730546965722069642063616e206e6f7420626520360641b6044820152606401610737565b6000908152600e6020526040902055565b6000610a2c612710610a26600254856121ea90919063ffffffff16565b906121fd565b92915050565b6003805460ff19166001179055336000908152600f60205260408120815b83811015610bc2576000858583818110610a6c57610a6c6129fa565b9050602002013590506012805490508110610ac95760405162461bcd60e51b815260206004820152601d60248201527f73686f756c64206265206c657373207468616e20506f7274696f6e732e0000006044820152606401610737565b826003018181548110610ade57610ade6129fa565b90600052602060002090602091828204019190069054906101000a900460ff16158015610b2857504260128281548110610b1a57610b1a6129fa565b906000526020600020015411155b15610baf576001836003018281548110610b4457610b446129fa565b90600052602060002090602091828204019190066101000a81548160ff0219169083151502179055506000610b9f601454610a2660138581548110610b8b57610b8b6129fa565b6000918252602090912001548754906121ea565b9050610bab8582612209565b9450505b5080610bba81612a26565b915050610a50565b508115610c7a576004805460405163a9059cbb60e01b81523392810192909252602482018490526001600160a01b03169063a9059cbb906044016020604051808303816000875af1158015610c1b573d6000803e3d6000fd5b505050506040513d601f19601f82011682018060405250810190610c3f9190612996565b5060408051338152602081018490527f6352c5382c4a4578e712449ca65e83cdb392d045dfcf1cad9615189db2da244b910160405180910390a15b50505050565b6005546001600160a01b03163314610caa5760405162461bcd60e51b815260040161073790612a41565b600a54610cf95760405162461bcd60e51b815260206004820152601860248201527f53616c6520706172616d6574657273206e6f74207365742e00000000000000006044820152606401610737565b600454600160b81b900460ff1615610d535760405162461bcd60e51b815260206004820152601960248201527f546f6b656e7320616c7265616479206465706f73697465642e000000000000006044820152606401610737565b60048054600160b81b60ff60b81b198216178255600a546040516323b872dd60e01b8152339381019390935230602484015260448301526001600160a01b0316906323b872dd906064016020604051808303816000875af1158015610dbc573d6000803e3d6000fd5b505050506040513d601f19601f82011682018060405250810190610de09190612996565b50565b3360009081526010602052604090205460ff16610e395760405162461bcd60e51b81526020600482015260146024820152732234b2103737ba103830b93a34b1b4b830ba329760611b6044820152606401610737565b600954421015610e8b5760405162461bcd60e51b815260206004820152601860248201527f53616c65207761736e27742066696e69736865642079657400000000000000006044820152606401610737565b6003805460ff1916905560405162461bcd60e51b815260206004820152601560248201527414d85b19481dd85cdb89dd0818d85b98d95b1b1959605a1b6044820152606401610737565b600054604051630935e01b60e21b81523360048201526001600160a01b03909116906324d7806c90602401602060405180830381865afa158015610f1d573d6000803e3d6000fd5b505050506040513d601f19601f82011682018060405250810190610f419190612996565b610f5d5760405162461bcd60e51b8152600401610737906129b8565b600954421015610faf5760405162461bcd60e51b815260206004820152601860248201527f53616c65206973206e6f742066696e69736865642079657400000000000000006044820152606401610737565b600b5460085410610fcc576003805460ff19166001179055610fd7565b6003805460ff191690555b60035460405160ff909116151581527fd13e41b0867a9bd8e3f746147218ad654188510d96d0ed28f60608c1edfec8459060200160405180910390a1565b6013818154811061076057600080fd5b600054604051630935e01b60e21b81523360048201526001600160a01b03909116906324d7806c90602401602060405180830381865afa15801561106d573d6000803e3d6000fd5b505050506040513d601f19601f820116820180604052508101906110919190612996565b6110ad5760405162461bcd60e51b8152600401610737906129b8565b6001600160a01b0381166110fb5760405162461bcd60e51b8152602060048201526015602482015274496e76616c696420746f6b656e206164647265737360581b6044820152606401610737565b600480546001600160a01b0319166001600160a01b0392909216919091179055565b6005546001600160a01b031633146111475760405162461bcd60e51b815260040161073790612a41565b61114f61228f565b565b6005546001600160a01b0316331461117b5760405162461bcd60e51b815260040161073790612a41565b61114f6123a0565b6001600160a01b0381166000908152600f602090815260408083208151608081018352815481526001820154818501526002820154818401526003820180548451818702810187019095528085528695869560609587959490938588019383018282801561123057602002820191906000526020600020906000905b825461010083900a900460ff1615158152602060019283018181049485019490930390920291018084116111ff5790505b505050919092525050815160208301516040840151606090940151919a9099509297509550909350505050565b600054604051630935e01b60e21b81523360048201526001600160a01b03909116906324d7806c90602401602060405180830381865afa1580156112a5573d6000803e3d6000fd5b505050506040513d601f19601f820116820180604052508101906112c99190612996565b6112e55760405162461bcd60e51b8152600401610737906129b8565b80518251146113265760405162461bcd60e51b815260206004820152600d60248201526c125b9d985b1a59081a5b9c1d5d609a1b6044820152606401610737565b60005b82518110156113805761136e838281518110611347576113476129fa565b6020026020010151838381518110611361576113616129fa565b6020026020010151610771565b8061137881612a26565b915050611329565b505050565b600054604051630935e01b60e21b81523360048201526001600160a01b03909116906324d7806c90602401602060405180830381865afa1580156113cd573d6000803e3d6000fd5b505050506040513d601f19601f820116820180604052508101906113f19190612996565b61140d5760405162461bcd60e51b8152600401610737906129b8565b600454600160a01b900460ff161561145f5760405162461bcd60e51b815260206004820152601560248201527429b0b6329030b63932b0b23c9031b932b0ba32b21760591b6044820152606401610737565b6001600160a01b0386166114b55760405162461bcd60e51b815260206004820152601b60248201527f496e76616c69642073616c65206f776e657220616464726573732e00000000006044820152606401610737565b84158015906114c357508115155b80156114ce57508015155b80156114d957504284115b6115165760405162461bcd60e51b815260206004820152600e60248201526d24b73b30b634b21034b7383aba1760911b6044820152606401610737565b60648310156115605760405162461bcd60e51b8152602060048201526016602482015275053686f756c64206265206174206c65617374203130360541b6044820152606401610737565b600480546001600160a81b0319166001600160a01b0389811691909117600160a01b17909155600580549188166001600160a01b03199092168217905560068690556009859055600a839055600b82905560148490556040805191825260208201879052810185905260608101839052608081018290527f04015af06f31ecd628a4f9fd400d312fc7ae48fdfa0d1a26b3b9ade20971a86e9060a0015b60405180910390a150505050505050565b6005546001600160a01b031633146116385760405162461bcd60e51b815260040161073790612a41565b6111476123a0565b606080601260138180548060200260200160405190810160405280929190818152602001828054801561169257602002820191906000526020600020905b81548152602001906001019080831161167e575b50505050509150808054806020026020016040519081016040528092919081815260200182805480156116e457602002820191906000526020600020905b8154815260200190600101908083116116d0575b50505050509050915091509091565b600054604051630935e01b60e21b81523360048201526001600160a01b03909116906324d7806c90602401602060405180830381865afa15801561173b573d6000803e3d6000fd5b505050506040513d601f19601f8201168201806040525081019061175f9190612996565b61177b5760405162461bcd60e51b8152600401610737906129b8565b6004546001600160a01b03838116911614156117d95760405162461bcd60e51b815260206004820152601a60248201527f43616e27742077697468647261772073616c6520746f6b656e2e0000000000006044820152606401610737565b6040516370a0823160e01b81523060048201526001600160a01b0383169063a9059cbb90839083906370a0823190602401602060405180830381865afa158015611827573d6000803e3d6000fd5b505050506040513d601f19601f8201168201806040525081019061184b9190612a78565b6040516001600160e01b031960e085901b1681526001600160a01b03909216600483015260248201526044016020604051808303816000875af1158015611896573d6000803e3d6000fd5b505050506040513d601f19601f820116820180604052508101906113809190612996565b600054604051630935e01b60e21b81523360048201526001600160a01b03909116906324d7806c90602401602060405180830381865afa158015611902573d6000803e3d6000fd5b505050506040513d601f19601f820116820180604052508101906119269190612996565b6119425760405162461bcd60e51b8152600401610737906129b8565b6004544790600090600160a81b900460ff1661196057600854611963565b60005b905061074c336119738484612484565b612215565b6005546001600160a01b03163314610e395760405162461bcd60e51b815260040161073790612a41565b6012818154811061076057600080fd5b600054604051630935e01b60e21b81523360048201526001600160a01b03909116906324d7806c90602401602060405180830381865afa1580156119fa573d6000803e3d6000fd5b505050506040513d601f19601f82011682018060405250810190611a1e9190612996565b611a3a5760405162461bcd60e51b8152600401610737906129b8565b601354158015611a4a5750601254155b611a8c5760405162461bcd60e51b81526020600482015260136024820152721d995cdd1a5b99c8185b1c9958591e481cd95d606a1b6044820152606401610737565b8051825114611add5760405162461bcd60e51b815260206004820152601a60248201527f56657374696e673a2061727261727973206e6f7420657175616c0000000000006044820152606401610737565b600060145411611b265760405162461bcd60e51b815260206004820152601460248201527329b0b632903830b930b6b9903737ba1039b2ba1760611b6044820152606401610737565b600060046005015483600081518110611b4157611b416129fa565b602002602001015111611ba75760405162461bcd60e51b815260206004820152602860248201527f556e6c6f636b2074696d65206d7573742062652061667465722074686520736160448201526736329032b732399760c11b6064820152608401610737565b60005b8351811015611db6578015611c575783611bc5600183612a91565b81518110611bd557611bd56129fa565b6020026020010151848281518110611bef57611bef6129fa565b602002602001015111611c575760405162461bcd60e51b815260206004820152602a60248201527f556e6c6f636b2074696d65206d7573742062652067726561746572207468616e60448201526910383932bb34b7bab99760b11b6064820152608401610737565b6012848281518110611c6b57611c6b6129fa565b60209081029190910181015182546001818101855560009485529290932090920191909155611c9b908290612aa8565b60125414611ceb5760405162461bcd60e51b815260206004820152601760248201527f556e6c6f636b54696d65206e6f742075706461746564200000000000000000006044820152606401610737565b6013838281518110611cff57611cff6129fa565b60209081029190910181015182546001818101855560009485529290932090920191909155611d2f908290612aa8565b60135414611d765760405162461bcd60e51b815260206004820152601460248201527302832b931b2b73a103737ba103ab83230ba32b2160651b6044820152606401610737565b611da2838281518110611d8b57611d8b6129fa565b60200260200101518361220990919063ffffffff16565b915080611dae81612a26565b915050611baa565b5060145481146113805760405162461bcd60e51b815260206004820152601b60248201527f50657263656e7420646973747269627574696f6e2069737375652e00000000006044820152606401610737565b6001600160a01b03841660009081526010602052604090205460ff1615611e695760405162461bcd60e51b815260206004820152601560248201527420b63932b0b23c903830b93a34b1b4b830ba32b21760591b6044820152606401610737565b6001600160a01b0384166000908152601160205260409020548114611ebe5760405162461bcd60e51b815260206004820152600b60248201526a15dc9bdb99c8149bdd5b9960aa1b6044820152606401610737565b6000818152600e6020526040902054421015611f1c5760405162461bcd60e51b815260206004820152601e60248201527f596f757220726f756e6420686176656e277420737461727465642079657400006044820152606401610737565b6000611fb6600460020154610a26600460000160009054906101000a90046001600160a01b03166001600160a01b031663313ce5676040518163ffffffff1660e01b8152600401602060405180830381865afa158015611f80573d6000803e3d6000fd5b505050506040513d601f19601f82011682018060405250810190611fa49190612ac0565b611faf90600a612bc7565b87906121ea565b905060008111611ffd5760405162461bcd60e51b815260206004820152601260248201527143616e277420627579203020746f6b656e7360701b6044820152606401610737565b828111156120445760405162461bcd60e51b815260206004820152601460248201527322bc31b2b2b234b7339030b63637bbb0b731b29760611b6044820152606401610737565b600754600a5461205391612484565b8111156120a25760405162461bcd60e51b815260206004820152601a60248201527f4e6f7420656e6f75676820746f6b656e7320746f2073656c6c2e0000000000006044820152606401610737565b6007546120af9082612209565b6007556008546120bf9085612209565b60085560125460009067ffffffffffffffff8111156120e0576120e06126b9565b604051908082528060200260200182016040528015612109578160200160208202803683370190505b5060408051608081018252848152602080820189815242838501908152606084018681526001600160a01b038d166000908152600f8552959095208451815591516001830155516002820155925180519495509193849392612172926003850192910190612490565b5050506001600160a01b0387166000908152601060205260408120805460ff19166001179055600c8054916121a683612a26565b9091555050604080516001600160a01b0389168152602081018590527f57d61f3ccd4ccd25ec5d234d6049553a586fac134c85c98d0b0d9d5724f4e43e91016115fd565b60006121f68284612bd6565b9392505050565b60006121f68284612bf5565b60006121f68284612aa8565b604080516000808252602082019092526001600160a01b03841690839060405161223f9190612c17565b60006040518083038185875af1925050503d806000811461227c576040519150601f19603f3d011682016040523d82523d6000602084013e612281565b606091505b505090508061138057600080fd5b60095442101561229e57600080fd5b6003805460ff19166001179055600454600160b01b900460ff16156122fc5760405162461bcd60e51b815260206004820152601460248201527363616e277420776974686472617720747769636560601b6044820152606401610737565b6004805460ff60b01b1916600160b01b179055600754600a546000916123229190612484565b90508015610de0576004805460405163a9059cbb60e01b81523392810192909252602482018390526001600160a01b03169063a9059cbb906044016020604051808303816000875af115801561237c573d6000803e3d6000fd5b505050506040513d601f19601f8201168201806040525081019061074c9190612996565b6003805460ff191660011790556009544210156123ee5760405162461bcd60e51b815260206004820152600c60248201526b53616c652052756e6e696e6760a01b6044820152606401610737565b600454600160a81b900460ff161561243f5760405162461bcd60e51b815260206004820152601460248201527363616e277420776974686472617720747769636560601b6044820152606401610737565b6004805460ff60a81b1916600160a81b179055600854600061246082610a09565b9050600061246e8383612484565b905061247a3382612215565b6113803383612215565b60006121f68284612a91565b82805482825590600052602060002090601f016020900481019282156125255791602002820160005b838211156124f657835183826101000a81548160ff02191690831515021790555092602001926001016020816000010492830192600103026124b9565b80156125235782816101000a81549060ff02191690556001016020816000010492830192600103026124f6565b505b50612531929150612535565b5090565b5b808211156125315760008155600101612536565b6000806040838503121561255d57600080fd5b50508035926020909101359150565b80356001600160a01b038116811461258357600080fd5b919050565b60006020828403121561259a57600080fd5b6121f68261256c565b6000602082840312156125b557600080fd5b5035919050565b600080604083850312156125cf57600080fd5b6125d88361256c565b946020939093013593505050565b600080602083850312156125f957600080fd5b823567ffffffffffffffff8082111561261157600080fd5b818501915085601f83011261262557600080fd5b81358181111561263457600080fd5b8660208260051b850101111561264957600080fd5b60209290920196919550909350505050565b600060808201868352602086818501528560408501526080606085015281855180845260a086019150828701935060005b818110156126aa57845115158352938301939183019160010161268c565b50909998505050505050505050565b634e487b7160e01b600052604160045260246000fd5b604051601f8201601f1916810167ffffffffffffffff811182821017156126f8576126f86126b9565b604052919050565b600067ffffffffffffffff82111561271a5761271a6126b9565b5060051b60200190565b600082601f83011261273557600080fd5b8135602061274a61274583612700565b6126cf565b82815260059290921b8401810191818101908684111561276957600080fd5b8286015b84811015612784578035835291830191830161276d565b509695505050505050565b600080604083850312156127a257600080fd5b823567ffffffffffffffff808211156127ba57600080fd5b818501915085601f8301126127ce57600080fd5b813560206127de61274583612700565b82815260059290921b840181019181810190898411156127fd57600080fd5b948201945b83861015612822576128138661256c565b82529482019490820190612802565b9650508601359250508082111561283857600080fd5b5061284585828601612724565b9150509250929050565b600080600080600080600060e0888a03121561286a57600080fd5b6128738861256c565b96506128816020890161256c565b96999698505050506040850135946060810135946080820135945060a0820135935060c0909101359150565b600081518084526020808501945080840160005b838110156128dd578151875295820195908201906001016128c1565b509495945050505050565b6040815260006128fb60408301856128ad565b828103602084015261290d81856128ad565b95945050505050565b6000806040838503121561292957600080fd5b6129328361256c565b91506129406020840161256c565b90509250929050565b6000806040838503121561295c57600080fd5b823567ffffffffffffffff8082111561297457600080fd5b61298086838701612724565b9350602085013591508082111561283857600080fd5b6000602082840312156129a857600080fd5b815180151581146121f657600080fd5b60208082526022908201527f4f6e6c792061646d696e2063616e2063616c6c20746869732066756e6374696f604082015261371760f11b606082015260800190565b634e487b7160e01b600052603260045260246000fd5b634e487b7160e01b600052601160045260246000fd5b6000600019821415612a3a57612a3a612a10565b5060010190565b60208082526019908201527f5265737472696374656420746f2073616c65206f776e65722e00000000000000604082015260600190565b600060208284031215612a8a57600080fd5b5051919050565b600082821015612aa357612aa3612a10565b500390565b60008219821115612abb57612abb612a10565b500190565b600060208284031215612ad257600080fd5b815160ff811681146121f657600080fd5b600181815b80851115612b1e578160001904821115612b0457612b04612a10565b80851615612b1157918102915b93841c9390800290612ae8565b509250929050565b600082612b3557506001610a2c565b81612b4257506000610a2c565b8160018114612b585760028114612b6257612b7e565b6001915050610a2c565b60ff841115612b7357612b73612a10565b50506001821b610a2c565b5060208310610133831016604e8410600b8410161715612ba1575081810a610a2c565b612bab8383612ae3565b8060001904821115612bbf57612bbf612a10565b029392505050565b60006121f660ff841683612b26565b6000816000190483118215151615612bf057612bf0612a10565b500290565b600082612c1257634e487b7160e01b600052601260045260246000fd5b500490565b6000825160005b81811015612c385760208186018101518583015201612c1e565b81811115612c47576000828501525b50919091019291505056fea26469706673582212207b42b5bbd359ac6a03c1af580c75f2bcbb98e91c6361a44dff0a91affeeef7f464736f6c634300080b0033a2646970667358221220c096f687bb55adfbf41dbc6f2be708baecf216b291993aef282e724fffd1b25864736f6c634300080b0033",
  "linkReferences": {},
  "deployedLinkReferences": {}
}