{
  "_format": "hh-sol-artifact-1",
  "contractName": "SparklaunchSaleERC20",
  "sourceName": "contracts/SparkLaunchSaleERC20.sol",
  "abi": [
    {
      "inputs": [
        {
          "internalType": "address",
          "name": "_admin",
          "type": "address"
        },
        {
          "internalType": "uint256",
          "name": "_serviceFee",
          "type": "uint256"
        },
        {
          "internalType": "address",
          "name": "_feeAddr",
          "type": "address"
        }
      ],
      "stateMutability": "nonpayable",
      "type": "constructor"
    },
    {
      "anonymous": false,
      "inputs": [
        {
          "indexed": false,
          "internalType": "bool",
          "name": "isSaleSucsessful",
          "type": "bool"
        }
      ],
      "name": "LogFinishSale",
      "type": "event"
    },
    {
      "anonymous": false,
      "inputs": [
        {
          "indexed": false,
          "internalType": "address",
          "name": "user",
          "type": "address"
        },
        {
          "indexed": false,
          "internalType": "uint256",
          "name": "amount",
          "type": "uint256"
        }
      ],
      "name": "LogWithdrawDepositedTokensIfSaleCancelled",
      "type": "event"
    },
    {
      "anonymous": false,
      "inputs": [
        {
          "indexed": false,
          "internalType": "address",
          "name": "user",
          "type": "address"
        },
        {
          "indexed": false,
          "internalType": "uint256",
          "name": "amount",
          "type": "uint256"
        }
      ],
      "name": "LogwithdrawUserFundsIfSaleCancelled",
      "type": "event"
    },
    {
      "anonymous": false,
      "inputs": [
        {
          "indexed": false,
          "internalType": "uint256",
          "name": "_tierId",
          "type": "uint256"
        },
        {
          "indexed": false,
          "internalType": "uint256",
          "name": "_startTime",
          "type": "uint256"
        }
      ],
      "name": "RoundAdded",
      "type": "event"
    },
    {
      "anonymous": false,
      "inputs": [
        {
          "indexed": false,
          "internalType": "address",
          "name": "saleOwner",
          "type": "address"
        },
        {
          "indexed": false,
          "internalType": "uint256",
          "name": "tokenPriceInERC20",
          "type": "uint256"
        },
        {
          "indexed": false,
          "internalType": "uint256",
          "name": "saleEnd",
          "type": "uint256"
        },
        {
          "indexed": false,
          "internalType": "uint256",
          "name": "_hardCap",
          "type": "uint256"
        },
        {
          "indexed": false,
          "internalType": "uint256",
          "name": "_softCap",
          "type": "uint256"
        },
        {
          "indexed": false,
          "internalType": "address",
          "name": "_tokenERC20",
          "type": "address"
        }
      ],
      "name": "SaleCreated",
      "type": "event"
    },
    {
      "anonymous": false,
      "inputs": [
        {
          "indexed": false,
          "internalType": "address",
          "name": "user",
          "type": "address"
        },
        {
          "indexed": false,
          "internalType": "uint256",
          "name": "amount",
          "type": "uint256"
        }
      ],
      "name": "TokensSold",
      "type": "event"
    },
    {
      "anonymous": false,
      "inputs": [
        {
          "indexed": false,
          "internalType": "address",
          "name": "user",
          "type": "address"
        },
        {
          "indexed": false,
          "internalType": "uint256",
          "name": "amount",
          "type": "uint256"
        }
      ],
      "name": "TokensWithdrawn",
      "type": "event"
    },
    {
      "inputs": [
        {
          "internalType": "uint256",
          "name": "_amount",
          "type": "uint256"
        }
      ],
      "name": "_calculateServiceFee",
      "outputs": [
        {
          "internalType": "uint256",
          "name": "",
          "type": "uint256"
        }
      ],
      "stateMutability": "view",
      "type": "function"
    },
    {
      "inputs": [],
      "name": "admin",
      "outputs": [
        {
          "internalType": "contract IAdmin2",
          "name": "",
          "type": "address"
        }
      ],
      "stateMutability": "view",
      "type": "function"
    },
    {
      "inputs": [],
      "name": "depositSaleTokens",
      "outputs": [],
      "stateMutability": "nonpayable",
      "type": "function"
    },
    {
      "inputs": [],
      "name": "feeAddr",
      "outputs": [
        {
          "internalType": "address",
          "name": "",
          "type": "address"
        }
      ],
      "stateMutability": "view",
      "type": "function"
    },
    {
      "inputs": [],
      "name": "finishSale",
      "outputs": [],
      "stateMutability": "nonpayable",
      "type": "function"
    },
    {
      "inputs": [],
      "name": "getCurrentRound",
      "outputs": [
        {
          "internalType": "uint256",
          "name": "",
          "type": "uint256"
        }
      ],
      "stateMutability": "view",
      "type": "function"
    },
    {
      "inputs": [],
      "name": "getNumberOfRegisteredUsers",
      "outputs": [
        {
          "internalType": "uint256",
          "name": "",
          "type": "uint256"
        }
      ],
      "stateMutability": "view",
      "type": "function"
    },
    {
      "inputs": [
        {
          "internalType": "address",
          "name": "_user",
          "type": "address"
        }
      ],
      "name": "getParticipation",
      "outputs": [
        {
          "internalType": "uint256",
          "name": "",
          "type": "uint256"
        },
        {
          "internalType": "uint256",
          "name": "",
          "type": "uint256"
        },
        {
          "internalType": "uint256",
          "name": "",
          "type": "uint256"
        },
        {
          "internalType": "bool",
          "name": "",
          "type": "bool"
        }
      ],
      "stateMutability": "view",
      "type": "function"
    },
    {
      "inputs": [
        {
          "internalType": "address",
          "name": "user",
          "type": "address"
        },
        {
          "internalType": "uint256",
          "name": "_tier",
          "type": "uint256"
        }
      ],
      "name": "grantATier",
      "outputs": [],
      "stateMutability": "nonpayable",
      "type": "function"
    },
    {
      "inputs": [
        {
          "internalType": "address[]",
          "name": "addys",
          "type": "address[]"
        },
        {
          "internalType": "uint256[]",
          "name": "tiers",
          "type": "uint256[]"
        }
      ],
      "name": "grantATierMultiply",
      "outputs": [],
      "stateMutability": "nonpayable",
      "type": "function"
    },
    {
      "inputs": [
        {
          "internalType": "address",
          "name": "",
          "type": "address"
        }
      ],
      "name": "isParticipated",
      "outputs": [
        {
          "internalType": "bool",
          "name": "",
          "type": "bool"
        }
      ],
      "stateMutability": "view",
      "type": "function"
    },
    {
      "inputs": [],
      "name": "isSaleSuccessful",
      "outputs": [
        {
          "internalType": "bool",
          "name": "",
          "type": "bool"
        }
      ],
      "stateMutability": "view",
      "type": "function"
    },
    {
      "inputs": [],
      "name": "numberOfParticipants",
      "outputs": [
        {
          "internalType": "uint256",
          "name": "",
          "type": "uint256"
        }
      ],
      "stateMutability": "view",
      "type": "function"
    },
    {
      "inputs": [
        {
          "internalType": "uint256",
          "name": "amountERC20",
          "type": "uint256"
        },
        {
          "internalType": "uint256",
          "name": "tierId",
          "type": "uint256"
        }
      ],
      "name": "participate",
      "outputs": [],
      "stateMutability": "nonpayable",
      "type": "function"
    },
    {
      "inputs": [
        {
          "internalType": "address",
          "name": "token",
          "type": "address"
        },
        {
          "internalType": "address",
          "name": "beneficiary",
          "type": "address"
        }
      ],
      "name": "removeStuckTokens",
      "outputs": [],
      "stateMutability": "nonpayable",
      "type": "function"
    },
    {
      "inputs": [],
      "name": "sale",
      "outputs": [
        {
          "internalType": "contract IERC20",
          "name": "saleToken",
          "type": "address"
        },
        {
          "internalType": "bool",
          "name": "isCreated",
          "type": "bool"
        },
        {
          "internalType": "bool",
          "name": "earningsWithdrawn",
          "type": "bool"
        },
        {
          "internalType": "bool",
          "name": "leftoverWithdrawn",
          "type": "bool"
        },
        {
          "internalType": "bool",
          "name": "saleTokensDeposited",
          "type": "bool"
        },
        {
          "internalType": "address",
          "name": "saleOwner",
          "type": "address"
        },
        {
          "internalType": "uint256",
          "name": "saleTokenPriceInERC20",
          "type": "uint256"
        },
        {
          "internalType": "uint256",
          "name": "totalSaleTokensSold",
          "type": "uint256"
        },
        {
          "internalType": "uint256",
          "name": "totalERC20Raised",
          "type": "uint256"
        },
        {
          "internalType": "uint256",
          "name": "saleEnd",
          "type": "uint256"
        },
        {
          "internalType": "uint256",
          "name": "hardCap",
          "type": "uint256"
        },
        {
          "internalType": "uint256",
          "name": "softCap",
          "type": "uint256"
        }
      ],
      "stateMutability": "view",
      "type": "function"
    },
    {
      "inputs": [],
      "name": "saleFinished",
      "outputs": [
        {
          "internalType": "bool",
          "name": "",
          "type": "bool"
        }
      ],
      "stateMutability": "view",
      "type": "function"
    },
    {
      "inputs": [],
      "name": "serviceFee",
      "outputs": [
        {
          "internalType": "uint256",
          "name": "",
          "type": "uint256"
        }
      ],
      "stateMutability": "view",
      "type": "function"
    },
    {
      "inputs": [
        {
          "internalType": "uint256[]",
          "name": "startTimes",
          "type": "uint256[]"
        }
      ],
      "name": "setRounds",
      "outputs": [],
      "stateMutability": "nonpayable",
      "type": "function"
    },
    {
      "inputs": [
        {
          "internalType": "address",
          "name": "_saleToken",
          "type": "address"
        },
        {
          "internalType": "address",
          "name": "_saleOwner",
          "type": "address"
        },
        {
          "internalType": "uint256",
          "name": "_saleTokenPriceInERC20",
          "type": "uint256"
        },
        {
          "internalType": "uint256",
          "name": "_saleEnd",
          "type": "uint256"
        },
        {
          "internalType": "uint256",
          "name": "_hardCap",
          "type": "uint256"
        },
        {
          "internalType": "uint256",
          "name": "_softCap",
          "type": "uint256"
        },
        {
          "internalType": "address",
          "name": "_tokenERC20",
          "type": "address"
        }
      ],
      "name": "setSaleParams",
      "outputs": [],
      "stateMutability": "nonpayable",
      "type": "function"
    },
    {
      "inputs": [
        {
          "internalType": "address",
          "name": "",
          "type": "address"
        }
      ],
      "name": "tier",
      "outputs": [
        {
          "internalType": "uint256",
          "name": "",
          "type": "uint256"
        }
      ],
      "stateMutability": "view",
      "type": "function"
    },
    {
      "inputs": [
        {
          "internalType": "uint256",
          "name": "",
          "type": "uint256"
        }
      ],
      "name": "tierIdToTierStartTime",
      "outputs": [
        {
          "internalType": "uint256",
          "name": "",
          "type": "uint256"
        }
      ],
      "stateMutability": "view",
      "type": "function"
    },
    {
      "inputs": [
        {
          "internalType": "uint256",
          "name": "",
          "type": "uint256"
        }
      ],
      "name": "tierIds",
      "outputs": [
        {
          "internalType": "uint256",
          "name": "",
          "type": "uint256"
        }
      ],
      "stateMutability": "view",
      "type": "function"
    },
    {
      "inputs": [],
      "name": "tokenERC20",
      "outputs": [
        {
          "internalType": "address",
          "name": "",
          "type": "address"
        }
      ],
      "stateMutability": "view",
      "type": "function"
    },
    {
      "inputs": [
        {
          "internalType": "address",
          "name": "",
          "type": "address"
        }
      ],
      "name": "userToParticipation",
      "outputs": [
        {
          "internalType": "uint256",
          "name": "amountBought",
          "type": "uint256"
        },
        {
          "internalType": "uint256",
          "name": "amountERC20Paid",
          "type": "uint256"
        },
        {
          "internalType": "uint256",
          "name": "tierId",
          "type": "uint256"
        },
        {
          "internalType": "bool",
          "name": "areTokensWithdrawn",
          "type": "bool"
        }
      ],
      "stateMutability": "view",
      "type": "function"
    },
    {
      "inputs": [],
      "name": "withdraw",
      "outputs": [],
      "stateMutability": "nonpayable",
      "type": "function"
    },
    {
      "inputs": [],
      "name": "withdrawDepositedTokensIfSaleCancelled",
      "outputs": [],
      "stateMutability": "nonpayable",
      "type": "function"
    },
    {
      "inputs": [],
      "name": "withdrawEarnings",
      "outputs": [],
      "stateMutability": "nonpayable",
      "type": "function"
    },
    {
      "inputs": [],
      "name": "withdrawEarningsAndLeftover",
      "outputs": [],
      "stateMutability": "nonpayable",
      "type": "function"
    },
    {
      "inputs": [],
      "name": "withdrawLeftover",
      "outputs": [],
      "stateMutability": "nonpayable",
      "type": "function"
    },
    {
      "inputs": [],
      "name": "withdrawUnusedFunds",
      "outputs": [],
      "stateMutability": "nonpayable",
      "type": "function"
    },
    {
      "inputs": [],
      "name": "withdrawUserFundsIfSaleCancelled",
      "outputs": [],
      "stateMutability": "nonpayable",
      "type": "function"
    },
    {
      "stateMutability": "payable",
      "type": "receive"
    }
  ],
  "bytecode": "0x60806040523480156200001157600080fd5b5060405162002db238038062002db28339810160408190526200003491620000e4565b6001600160a01b0383166200008f5760405162461bcd60e51b815260206004820152601760248201527f41646472657373207a65726f2076616c69646174696f6e000000000000000000604482015260640160405180910390fd5b600080546001600160a01b039485166001600160a01b0319918216179091556001929092556002805491909316911617905562000125565b80516001600160a01b0381168114620000df57600080fd5b919050565b600080600060608486031215620000fa57600080fd5b6200010584620000c7565b9250602084015191506200011c60408501620000c7565b90509250925092565b612c7d80620001356000396000f3fe6080604052600436106101e75760003560e01c80638f86f5ea11610102578063cf5b8d4b11610095578063e6dd299f11610064578063e6dd299f146106c1578063e737544a146106d6578063f48af770146106eb578063f851a4401461070b57600080fd5b8063cf5b8d4b1461063c578063d38b99f71461066c578063da4d4fbf1461068c578063e303417e146106a157600080fd5b8063ab7589b5116100d1578063ab7589b51461057e578063b73c6ce914610593578063c7b5e4ab146105a8578063cad925ef146105c957600080fd5b80638f86f5ea1461051f5780639d143e8e14610534578063a32bf59714610554578063a525d2371461056957600080fd5b806354d439c71161017a5780637417040e116101495780637417040e146104be5780638abdf5aa146104d45780638d47203a146104ea5780638f08220f1461050a57600080fd5b806354d439c7146103285780635e7464f6146103555780636ad1fe02146103bc5780636c41de0a1461049e57600080fd5b8063357b7e71116101b6578063357b7e711461028a578063365b94ad146102aa57806339e7fddc146102db5780633ccfd60b1461031357600080fd5b8063129874aa146101f35780632785f8bb1461021557806328fed2b5146102555780632f2857091461026a57600080fd5b366101ee57005b600080fd5b3480156101ff57600080fd5b5061021361020e366004612625565b61072b565b005b34801561022157600080fd5b50610242610230366004612663565b60116020526000908152604090205481565b6040519081526020015b60405180910390f35b34801561026157600080fd5b5061021361078d565b34801561027657600080fd5b5061024261028536600461267e565b6108f0565b34801561029657600080fd5b506102136102a5366004612697565b610911565b3480156102b657600080fd5b506002546102cb90600160a81b900460ff1681565b604051901515815260200161024c565b3480156102e757600080fd5b506002546102fb906001600160a01b031681565b6040516001600160a01b03909116815260200161024c565b34801561031f57600080fd5b50610213610a8b565b34801561033457600080fd5b5061024261034336600461267e565b600e6020526000908152604090205481565b34801561036157600080fd5b5061039a610370366004612663565b600f6020526000908152604090208054600182015460028301546003909301549192909160ff1684565b604080519485526020850193909352918301521515606082015260800161024c565b3480156103c857600080fd5b50600454600554600654600754600854600954600a54600b5461042b976001600160a01b038082169860ff600160a01b8404811699600160a81b8504821699600160b01b8604831699600160b81b9096049092169792909316959294909392908c565b604080516001600160a01b039d8e1681529b151560208d0152991515998b019990995296151560608a015294151560808901529790921660a087015260c086015260e08501526101008401949094526101208301939093526101408201929092526101608101919091526101800161024c565b3480156104aa57600080fd5b506102426104b936600461267e565b610c6c565b3480156104ca57600080fd5b50610242600c5481565b3480156104e057600080fd5b5061024260015481565b3480156104f657600080fd5b506102136105053660046126c1565b610c95565b34801561051657600080fd5b50610213610ff4565b34801561052b57600080fd5b50610213611155565b34801561054057600080fd5b506003546102fb906001600160a01b031681565b34801561056057600080fd5b506102426112ae565b34801561057557600080fd5b50610213611396565b34801561058a57600080fd5b50600c54610242565b34801561059f57600080fd5b506102136113ca565b3480156105b457600080fd5b506002546102cb90600160a01b900460ff1681565b3480156105d557600080fd5b5061039a6105e4366004612663565b6001600160a01b03166000908152600f6020908152604091829020825160808101845281548082526001830154938201849052600283015494820185905260039092015460ff16151560609091018190529093919291565b34801561064857600080fd5b506102cb610657366004612663565b60106020526000908152604090205460ff1681565b34801561067857600080fd5b50610213610687366004612801565b6113fc565b34801561069857600080fd5b5061021361151f565b3480156106ad57600080fd5b506102136106bc3660046128c1565b611551565b3480156106cd57600080fd5b50610213611718565b3480156106e257600080fd5b50610213611844565b3480156106f757600080fd5b506102136107063660046128f4565b611a2b565b34801561071757600080fd5b506000546102fb906001600160a01b031681565b801580159061073b575060058111155b61077e5760405162461bcd60e51b815260206004820152600f60248201526e125b9d985b1a59081d1a595c881a59608a1b60448201526064015b60405180910390fd5b610789338383611c9a565b5050565b6005546001600160a01b031633146107b75760405162461bcd60e51b815260040161077590612969565b600a546108065760405162461bcd60e51b815260206004820152601860248201527f53616c6520706172616d6574657273206e6f74207365742e00000000000000006044820152606401610775565b600454600160b81b900460ff16156108605760405162461bcd60e51b815260206004820152601960248201527f546f6b656e7320616c7265616479206465706f73697465642e000000000000006044820152606401610775565b60048054600160b81b60ff60b81b198216178255600a546040516323b872dd60e01b8152339381019390935230602484015260448301526001600160a01b0316906323b872dd906064016020604051808303816000875af11580156108c9573d6000803e3d6000fd5b505050506040513d601f19601f820116820180604052508101906108ed91906129a0565b50565b600d818154811061090057600080fd5b600091825260209091200154905081565b600054604051630935e01b60e21b81523360048201526001600160a01b03909116906324d7806c90602401602060405180830381865afa158015610959573d6000803e3d6000fd5b505050506040513d601f19601f8201168201806040525081019061097d91906129a0565b6109995760405162461bcd60e51b8152600401610775906129c2565b60058111156109da5760405162461bcd60e51b815260206004820152600d60248201526c4d61782074696572206973203560981b6044820152606401610775565b80610a195760405162461bcd60e51b815260206004820152600f60248201526e0546965722063616e2774206265203608c1b6044820152606401610775565b6001600160a01b038216610a6f5760405162461bcd60e51b815260206004820152601760248201527f5a65726f20616464726573732076616c69646174696f6e0000000000000000006044820152606401610775565b6001600160a01b03909116600090815260116020526040902055565b6009544211610ace5760405162461bcd60e51b815260206004820152600f60248201526e53616c652069732072756e6e696e6760881b6044820152606401610775565b600254600160a81b900460ff1615156001148015610afa5750600254600160a01b900460ff1615156001145b610b3b5760405162461bcd60e51b815260206004820152601260248201527114d85b19481dd85cc818d85b98d95b1b195960721b6044820152606401610775565b336000908152600f60205260408120600381015460ff1615610b935760405162461bcd60e51b815260206004820152601160248201527020b63932b0b23c903bb4ba34323930bbb760791b6044820152606401610775565b8054610b9f8382612247565b60038301805460ff1916600117905592508215610c67576004805460405163a9059cbb60e01b81523392810192909252602482018590526001600160a01b03169063a9059cbb906044016020604051808303816000875af1158015610c08573d6000803e3d6000fd5b505050506040513d601f19601f82011682018060405250810190610c2c91906129a0565b5060408051338152602081018590527f6352c5382c4a4578e712449ca65e83cdb392d045dfcf1cad9615189db2da244b910160405180910390a15b505050565b6000610c8f612710610c896001548561225a90919063ffffffff16565b90612266565b92915050565b600054604051630935e01b60e21b81523360048201526001600160a01b03909116906324d7806c90602401602060405180830381865afa158015610cdd573d6000803e3d6000fd5b505050506040513d601f19601f82011682018060405250810190610d0191906129a0565b610d1d5760405162461bcd60e51b8152600401610775906129c2565b600454600160a01b900460ff1615610d6f5760405162461bcd60e51b815260206004820152601560248201527429b0b6329030b63932b0b23c9031b932b0ba32b21760591b6044820152606401610775565b6001600160a01b038716610dd85760405162461bcd60e51b815260206004820152602a60248201527f73657453616c65506172616d733a20546f6b656e20616464726573732063616e604482015269103737ba10313290181760b11b6064820152608401610775565b6001600160a01b038616610e2e5760405162461bcd60e51b815260206004820152601b60248201527f496e76616c69642073616c65206f776e657220616464726573732e00000000006044820152606401610775565b6001600160a01b038116610e775760405162461bcd60e51b815260206004820152601060248201526f24b73b30b634b21030b2323932b9b99760811b6044820152606401610775565b8415801590610e8557508215155b8015610e9057508115155b8015610e9b57504284115b610ed85760405162461bcd60e51b815260206004820152600e60248201526d24b73b30b634b21034b7383aba1760911b6044820152606401610775565b610ee5426283d600612a1a565b841115610f345760405162461bcd60e51b815260206004820152601d60248201527f4d61782073616c65206475726174696f6e2069732031303020646179730000006044820152606401610775565b600480546001600160a81b0319166001600160a01b0389811691909117600160a01b17909155600580548883166001600160a01b0319918216811790925560068890556009879055600a869055600b85905560038054938516939091168317905560408051918252602082018890528101869052606081018590526080810184905260a08101919091527f4034880c77270d5795c853da4e2c03d9f1b39761af48261e2d7810b97069aeb49060c00160405180910390a150505050505050565b600254600160a81b900460ff161515600114801561101c5750600254600160a01b900460ff16155b6110615760405162461bcd60e51b815260206004820152601660248201527529b0b632903bb0b9b713ba1031b0b731b2b63632b21760511b6044820152606401610775565b3360009081526010602052604090205460ff166110b75760405162461bcd60e51b81526020600482015260146024820152732234b2103737ba103830b93a34b1b4b830ba329760611b6044820152606401610775565b6009544210156110f85760405162461bcd60e51b815260206004820152600c60248201526b53616c652072756e6e696e6760a01b6044820152606401610775565b336000818152600f60205260409020600181015490916111189082612272565b60408051338152602081018390527fb784decb825aad3b5e2fb74391c346eff699f0fe79836d5a388e4a3d17261e29910160405180910390a15050565b600054604051630935e01b60e21b81523360048201526001600160a01b03909116906324d7806c90602401602060405180830381865afa15801561119d573d6000803e3d6000fd5b505050506040513d601f19601f820116820180604052508101906111c191906129a0565b6111dd5760405162461bcd60e51b8152600401610775906129c2565b60095442101561122f5760405162461bcd60e51b815260206004820152601860248201527f53616c65206973206e6f742066696e69736865642079657400000000000000006044820152606401610775565b600b5460085410611254576002805461ffff60a01b191661010160a01b179055611269565b6002805461ffff60a01b1916600160a81b1790555b600254604051600160a01b90910460ff16151581527fd13e41b0867a9bd8e3f746147218ad654188510d96d0ed28f60608c1edfec845906020015b60405180910390a1565b60008060009050600e6000600d6000815481106112cd576112cd612a32565b90600052602060002001548152602001908152602001600020544210156112f657600091505090565b600d54611304826001612a1a565b10801561134a5750600e6000600d61131d846001612a1a565b8154811061132d5761132d612a32565b906000526020600020015481526020019081526020016000205442115b15611361578061135981612a48565b9150506112f6565b600954421061137257600091505090565b600d818154811061138557611385612a32565b906000526020600020015491505090565b6005546001600160a01b031633146113c05760405162461bcd60e51b815260040161077590612969565b6113c86122f6565b565b6005546001600160a01b031633146113f45760405162461bcd60e51b815260040161077590612969565b6113c8612468565b600054604051630935e01b60e21b81523360048201526001600160a01b03909116906324d7806c90602401602060405180830381865afa158015611444573d6000803e3d6000fd5b505050506040513d601f19601f8201168201806040525081019061146891906129a0565b6114845760405162461bcd60e51b8152600401610775906129c2565b80518251146114c55760405162461bcd60e51b815260206004820152600d60248201526c125b9d985b1a59081a5b9c1d5d609a1b6044820152606401610775565b60005b8251811015610c675761150d8382815181106114e6576114e6612a32565b602002602001015183838151811061150057611500612a32565b6020026020010151610911565b8061151781612a48565b9150506114c8565b6005546001600160a01b031633146115495760405162461bcd60e51b815260040161077590612969565b6113c0612468565b600054604051630935e01b60e21b81523360048201526001600160a01b03909116906324d7806c90602401602060405180830381865afa158015611599573d6000803e3d6000fd5b505050506040513d601f19601f820116820180604052508101906115bd91906129a0565b6115d95760405162461bcd60e51b8152600401610775906129c2565b6004546001600160a01b03838116911614156116375760405162461bcd60e51b815260206004820152601a60248201527f43616e27742077697468647261772073616c6520746f6b656e2e0000000000006044820152606401610775565b6040516370a0823160e01b81523060048201526001600160a01b0383169063a9059cbb90839083906370a0823190602401602060405180830381865afa158015611685573d6000803e3d6000fd5b505050506040513d601f19601f820116820180604052508101906116a99190612a63565b6040516001600160e01b031960e085901b1681526001600160a01b03909216600483015260248201526044016020604051808303816000875af11580156116f4573d6000803e3d6000fd5b505050506040513d601f19601f82011682018060405250810190610c6791906129a0565b600054604051630935e01b60e21b81523360048201526001600160a01b03909116906324d7806c90602401602060405180830381865afa158015611760573d6000803e3d6000fd5b505050506040513d601f19601f8201168201806040525081019061178491906129a0565b6117a05760405162461bcd60e51b8152600401610775906129c2565b6003546040516370a0823160e01b81523060048201526000916001600160a01b0316906370a0823190602401602060405180830381865afa1580156117e9573d6000803e3d6000fd5b505050506040513d601f19601f8201168201806040525081019061180d9190612a63565b600454909150600090600160a81b900460ff1661182c5760085461182f565b60005b90506107893361183f84846125b8565b612272565b6005546001600160a01b0316331461186e5760405162461bcd60e51b815260040161077590612969565b600254600160a81b900460ff16151560011480156118965750600254600160a01b900460ff16155b6118da5760405162461bcd60e51b815260206004820152601560248201527414d85b19481dd85cdb89dd0818d85b98d95b1b1959605a1b6044820152606401610775565b60095442101561191b5760405162461bcd60e51b815260206004820152600c60248201526b53616c652072756e6e696e6760a01b6044820152606401610775565b600454600160b81b900460ff1615156001146119795760405162461bcd60e51b815260206004820152601a60248201527f546f6b656e732077657265206e6f74206465706f73697465642e0000000000006044820152606401610775565b60048054600a5460405163a9059cbb60e01b8152339381019390935260248301526001600160a01b03169063a9059cbb906044016020604051808303816000875af11580156119cc573d6000803e3d6000fd5b505050506040513d601f19601f820116820180604052508101906119f091906129a0565b50600a546040805133815260208101929092527f92c3df9e05376a616081b6bd06cc1c7c6e184259c750691facea9774b849083a91016112a4565b600054604051630935e01b60e21b81523360048201526001600160a01b03909116906324d7806c90602401602060405180830381865afa158015611a73573d6000803e3d6000fd5b505050506040513d601f19601f82011682018060405250810190611a9791906129a0565b611ab35760405162461bcd60e51b8152600401610775906129c2565b600454600160a01b900460ff16611ac957600080fd5b600d5415611b0f5760405162461bcd60e51b81526020600482015260136024820152722937bab732399039b2ba1030b63932b0b23c9760691b6044820152606401610775565b80611b1957600080fd5b60004283836000818110611b2f57611b2f612a32565b905060200201351015611b4157600080fd5b60005b82811015611c9457600954848483818110611b6157611b61612a32565b9050602002013510611b7257600080fd5b81848483818110611b8557611b85612a32565b9050602002013511611b9657600080fd5b838382818110611ba857611ba8612a32565b9050602002013591506000816001611bc09190612a1a565b600d80546001810182556000919091527fd7b6990105719101dabeb77144f2a3385c8033acd3af97e9423a695e81ad1eb5018190559050848483818110611c0957611c09612a32565b90506020020135600e6000838152602001908152602001600020819055507f99889566cac43af340598cca5a5addfd4f6c14acda4da96185a96267d5e3b08481868685818110611c5b57611c5b612a32565b90506020020135604051611c79929190918252602082015260400190565b60405180910390a15080611c8c81612a48565b915050611b44565b50505050565b6001600160a01b03831660009081526010602052604090205460ff1615611cfb5760405162461bcd60e51b815260206004820152601560248201527420b63932b0b23c903830b93a34b1b4b830ba32b21760591b6044820152606401610775565b6001600160a01b0383166000908152601160205260409020548114611d505760405162461bcd60e51b815260206004820152600b60248201526a15dc9bdb99c8149bdd5b9960aa1b6044820152606401610775565b6000818152600e6020526040902054421015611dae5760405162461bcd60e51b815260206004820152601e60248201527f596f757220726f756e6420686176656e277420737461727465642079657400006044820152606401610775565b600454600160b81b900460ff161515600114611e0c5760405162461bcd60e51b815260206004820152601e60248201527f53616c6520746f6b656e732077657265206e6f74206465706f736974656400006044820152606401610775565b600354604051636eb1769f60e11b81526001600160a01b0385811660048301523060248301528492169063dd62ed3e90604401602060405180830381865afa158015611e5c573d6000803e3d6000fd5b505050506040513d601f19601f82011682018060405250810190611e809190612a63565b1015611ec75760405162461bcd60e51b8152602060048201526016602482015275496e73756669636369656e7420616c6c6f77616e636560501b6044820152606401610775565b600354604051636eb1769f60e11b81526001600160a01b038581166004830152306024830152611f6492169063dd62ed3e90604401602060405180830381865afa158015611f19573d6000803e3d6000fd5b505050506040513d601f19601f82011682018060405250810190611f3d9190612a63565b60405180604001604052806009815260200168416c6c6f77616e636560b81b8152506125c4565b611f8c8260405180604001604052806006815260200165185b5bdd5b9d60d21b8152506125c4565b6000612026600460020154610c89600460000160009054906101000a90046001600160a01b03166001600160a01b031663313ce5676040518163ffffffff1660e01b8152600401602060405180830381865afa158015611ff0573d6000803e3d6000fd5b505050506040513d601f19601f820116820180604052508101906120149190612a7c565b61201f90600a612b83565b869061225a565b90506000811161206d5760405162461bcd60e51b815260206004820152601260248201527143616e277420627579203020746f6b656e7360701b6044820152606401610775565b600754600a5461207c916125b8565b8111156120cb5760405162461bcd60e51b815260206004820152601a60248201527f4e6f7420656e6f75676820746f6b656e7320746f2073656c6c2e0000000000006044820152606401610775565b6007546120d89082612247565b6007556008546120e89084612247565b6008556040805160808101825282815260208082018681528284018681526000606085018181526001600160a01b038b168252600f855286822086518155935160018581019190915592516002850155516003909301805493151560ff1994851617905560109093529382208054909116909317909255600c8054919261216e83612a48565b90915550506003546040516323b872dd60e01b81526001600160a01b0387811660048301523060248301526044820187905260009216906323b872dd906064016020604051808303816000875af11580156121cd573d6000803e3d6000fd5b505050506040513d601f19601f820116820180604052508101906121f191906129a0565b9050806121fd57600080fd5b604080516001600160a01b0388168152602081018590527f57d61f3ccd4ccd25ec5d234d6049553a586fac134c85c98d0b0d9d5724f4e43e910160405180910390a1505050505050565b60006122538284612a1a565b9392505050565b60006122538284612b92565b60006122538284612bb1565b60035460405163a9059cbb60e01b81526001600160a01b03848116600483015260248201849052600092169063a9059cbb906044016020604051808303816000875af11580156122c6573d6000803e3d6000fd5b505050506040513d601f19601f820116820180604052508101906122ea91906129a0565b905080610c6757600080fd5b600254600160a81b900460ff16151560011480156123225750600254600160a01b900460ff1615156001145b6123645760405162461bcd60e51b815260206004820152601360248201527214d85b19481dd85cdb8818d85b98d95b1b1959606a1b6044820152606401610775565b60095442101561237357600080fd5b600454600160b01b900460ff16156123c45760405162461bcd60e51b815260206004820152601460248201527363616e277420776974686472617720747769636560601b6044820152606401610775565b6004805460ff60b01b1916600160b01b179055600754600a546000916123ea91906125b8565b905080156108ed576004805460405163a9059cbb60e01b81523392810192909252602482018390526001600160a01b03169063a9059cbb906044016020604051808303816000875af1158015612444573d6000803e3d6000fd5b505050506040513d601f19601f8201168201806040525081019061078991906129a0565b600254600160a81b900460ff16151560011480156124945750600254600160a01b900460ff1615156001145b6124d55760405162461bcd60e51b815260206004820152601260248201527114d85b19481dd85cc818d85b98d95b1b195960721b6044820152606401610775565b6009544210156125165760405162461bcd60e51b815260206004820152600c60248201526b53616c652052756e6e696e6760a01b6044820152606401610775565b600454600160a81b900460ff16156125675760405162461bcd60e51b815260206004820152601460248201527343616e277420776974686472617720747769636560601b6044820152606401610775565b6004805460ff60a81b1916600160a81b179055600854600061258882610c6c565b9050600061259683836125b8565b90506125a23382612272565b600254610c67906001600160a01b031683612272565b60006122538284612bd3565b61078982826040516024016125da929190612bea565b60408051601f198184030181529190526020810180516001600160e01b0316630fa3f34560e01b17905280516a636f6e736f6c652e6c6f67602083016000808483855afa5050505050565b6000806040838503121561263857600080fd5b50508035926020909101359150565b80356001600160a01b038116811461265e57600080fd5b919050565b60006020828403121561267557600080fd5b61225382612647565b60006020828403121561269057600080fd5b5035919050565b600080604083850312156126aa57600080fd5b6126b383612647565b946020939093013593505050565b600080600080600080600060e0888a0312156126dc57600080fd5b6126e588612647565b96506126f360208901612647565b955060408801359450606088013593506080880135925060a0880135915061271d60c08901612647565b905092959891949750929550565b634e487b7160e01b600052604160045260246000fd5b604051601f8201601f1916810167ffffffffffffffff8111828210171561276a5761276a61272b565b604052919050565b600067ffffffffffffffff82111561278c5761278c61272b565b5060051b60200190565b600082601f8301126127a757600080fd5b813560206127bc6127b783612772565b612741565b82815260059290921b840181019181810190868411156127db57600080fd5b8286015b848110156127f657803583529183019183016127df565b509695505050505050565b6000806040838503121561281457600080fd5b823567ffffffffffffffff8082111561282c57600080fd5b818501915085601f83011261284057600080fd5b813560206128506127b783612772565b82815260059290921b8401810191818101908984111561286f57600080fd5b948201945b838610156128945761288586612647565b82529482019490820190612874565b965050860135925050808211156128aa57600080fd5b506128b785828601612796565b9150509250929050565b600080604083850312156128d457600080fd5b6128dd83612647565b91506128eb60208401612647565b90509250929050565b6000806020838503121561290757600080fd5b823567ffffffffffffffff8082111561291f57600080fd5b818501915085601f83011261293357600080fd5b81358181111561294257600080fd5b8660208260051b850101111561295757600080fd5b60209290920196919550909350505050565b60208082526019908201527f5265737472696374656420746f2073616c65206f776e65722e00000000000000604082015260600190565b6000602082840312156129b257600080fd5b8151801515811461225357600080fd5b60208082526022908201527f4f6e6c792061646d696e2063616e2063616c6c20746869732066756e6374696f604082015261371760f11b606082015260800190565b634e487b7160e01b600052601160045260246000fd5b60008219821115612a2d57612a2d612a04565b500190565b634e487b7160e01b600052603260045260246000fd5b6000600019821415612a5c57612a5c612a04565b5060010190565b600060208284031215612a7557600080fd5b5051919050565b600060208284031215612a8e57600080fd5b815160ff8116811461225357600080fd5b600181815b80851115612ada578160001904821115612ac057612ac0612a04565b80851615612acd57918102915b93841c9390800290612aa4565b509250929050565b600082612af157506001610c8f565b81612afe57506000610c8f565b8160018114612b145760028114612b1e57612b3a565b6001915050610c8f565b60ff841115612b2f57612b2f612a04565b50506001821b610c8f565b5060208310610133831016604e8410600b8410161715612b5d575081810a610c8f565b612b678383612a9f565b8060001904821115612b7b57612b7b612a04565b029392505050565b600061225360ff841683612ae2565b6000816000190483118215151615612bac57612bac612a04565b500290565b600082612bce57634e487b7160e01b600052601260045260246000fd5b500490565b600082821015612be557612be5612a04565b500390565b82815260006020604081840152835180604085015260005b81811015612c1e57858101830151858201606001528201612c02565b81811115612c30576000606083870101525b50601f01601f19169290920160600194935050505056fea2646970667358221220d01972b41a60f062d3f596b134a3c2638f95faf970dab9b20a5bba54b65bd01364736f6c634300080b0033",
  "linkReferences": {},
  "deployedLinkReferences": {}
}