{
  "_format": "hh-sol-artifact-1",
  "contractName": "SparklaunchSale",
  "sourceName": "contracts/SparkLaunchSale.sol",
  "abi": [
    {
      "inputs": [
        {
          "internalType": "address",
          "name": "_admin",
          "type": "address"
        },
        {
          "internalType": "uint256",
          "name": "_serviceFee",
          "type": "uint256"
        },
        {
          "internalType": "address",
          "name": "_feeAddr",
          "type": "address"
        }
      ],
      "stateMutability": "nonpayable",
      "type": "constructor"
    },
    {
      "anonymous": false,
      "inputs": [
        {
          "indexed": false,
          "internalType": "bool",
          "name": "isSaleSuccessful",
          "type": "bool"
        }
      ],
      "name": "LogFinishSale",
      "type": "event"
    },
    {
      "anonymous": false,
      "inputs": [
        {
          "indexed": false,
          "internalType": "address",
          "name": "user",
          "type": "address"
        },
        {
          "indexed": false,
          "internalType": "uint256",
          "name": "amount",
          "type": "uint256"
        }
      ],
      "name": "LogWithdrawDepositedTokensIfSaleCancelled",
      "type": "event"
    },
    {
      "anonymous": false,
      "inputs": [
        {
          "indexed": false,
          "internalType": "address",
          "name": "user",
          "type": "address"
        },
        {
          "indexed": false,
          "internalType": "uint256",
          "name": "amount",
          "type": "uint256"
        }
      ],
      "name": "LogwithdrawUserFundsIfSaleCancelled",
      "type": "event"
    },
    {
      "anonymous": false,
      "inputs": [
        {
          "indexed": false,
          "internalType": "uint256",
          "name": "_tierId",
          "type": "uint256"
        },
        {
          "indexed": false,
          "internalType": "uint256",
          "name": "_startTime",
          "type": "uint256"
        }
      ],
      "name": "RoundAdded",
      "type": "event"
    },
    {
      "anonymous": false,
      "inputs": [
        {
          "indexed": false,
          "internalType": "address",
          "name": "saleOwner",
          "type": "address"
        },
        {
          "indexed": false,
          "internalType": "uint256",
          "name": "tokenPriceInBNB",
          "type": "uint256"
        },
        {
          "indexed": false,
          "internalType": "uint256",
          "name": "saleEnd",
          "type": "uint256"
        },
        {
          "indexed": false,
          "internalType": "uint256",
          "name": "_hardCap",
          "type": "uint256"
        },
        {
          "indexed": false,
          "internalType": "uint256",
          "name": "_softCap",
          "type": "uint256"
        }
      ],
      "name": "SaleCreated",
      "type": "event"
    },
    {
      "anonymous": false,
      "inputs": [
        {
          "indexed": false,
          "internalType": "address",
          "name": "user",
          "type": "address"
        },
        {
          "indexed": false,
          "internalType": "uint256",
          "name": "amount",
          "type": "uint256"
        }
      ],
      "name": "TokensSold",
      "type": "event"
    },
    {
      "anonymous": false,
      "inputs": [
        {
          "indexed": false,
          "internalType": "address",
          "name": "user",
          "type": "address"
        },
        {
          "indexed": false,
          "internalType": "uint256",
          "name": "amount",
          "type": "uint256"
        }
      ],
      "name": "TokensWithdrawn",
      "type": "event"
    },
    {
      "inputs": [],
      "name": "admin",
      "outputs": [
        {
          "internalType": "contract IAdmin1",
          "name": "",
          "type": "address"
        }
      ],
      "stateMutability": "view",
      "type": "function"
    },
    {
      "inputs": [],
      "name": "depositTokens",
      "outputs": [],
      "stateMutability": "nonpayable",
      "type": "function"
    },
    {
      "inputs": [],
      "name": "feeAddr",
      "outputs": [
        {
          "internalType": "address",
          "name": "",
          "type": "address"
        }
      ],
      "stateMutability": "view",
      "type": "function"
    },
    {
      "inputs": [],
      "name": "finishSale",
      "outputs": [],
      "stateMutability": "nonpayable",
      "type": "function"
    },
    {
      "inputs": [],
      "name": "getCurrentRound",
      "outputs": [
        {
          "internalType": "uint256",
          "name": "",
          "type": "uint256"
        }
      ],
      "stateMutability": "view",
      "type": "function"
    },
    {
      "inputs": [],
      "name": "getNumberOfRegisteredUsers",
      "outputs": [
        {
          "internalType": "uint256",
          "name": "",
          "type": "uint256"
        }
      ],
      "stateMutability": "view",
      "type": "function"
    },
    {
      "inputs": [
        {
          "internalType": "address",
          "name": "_user",
          "type": "address"
        }
      ],
      "name": "getParticipation",
      "outputs": [
        {
          "internalType": "uint256",
          "name": "",
          "type": "uint256"
        },
        {
          "internalType": "uint256",
          "name": "",
          "type": "uint256"
        },
        {
          "internalType": "uint256",
          "name": "",
          "type": "uint256"
        },
        {
          "internalType": "bool",
          "name": "",
          "type": "bool"
        }
      ],
      "stateMutability": "view",
      "type": "function"
    },
    {
      "inputs": [
        {
          "internalType": "address",
          "name": "user",
          "type": "address"
        },
        {
          "internalType": "uint256",
          "name": "_tier",
          "type": "uint256"
        }
      ],
      "name": "grantATier",
      "outputs": [],
      "stateMutability": "nonpayable",
      "type": "function"
    },
    {
      "inputs": [
        {
          "internalType": "address[]",
          "name": "addys",
          "type": "address[]"
        },
        {
          "internalType": "uint256[]",
          "name": "tiers",
          "type": "uint256[]"
        }
      ],
      "name": "grantATierMultiply",
      "outputs": [],
      "stateMutability": "nonpayable",
      "type": "function"
    },
    {
      "inputs": [
        {
          "internalType": "address",
          "name": "",
          "type": "address"
        }
      ],
      "name": "isParticipated",
      "outputs": [
        {
          "internalType": "bool",
          "name": "",
          "type": "bool"
        }
      ],
      "stateMutability": "view",
      "type": "function"
    },
    {
      "inputs": [],
      "name": "isSaleSuccessful",
      "outputs": [
        {
          "internalType": "bool",
          "name": "",
          "type": "bool"
        }
      ],
      "stateMutability": "view",
      "type": "function"
    },
    {
      "inputs": [],
      "name": "numberOfParticipants",
      "outputs": [
        {
          "internalType": "uint256",
          "name": "",
          "type": "uint256"
        }
      ],
      "stateMutability": "view",
      "type": "function"
    },
    {
      "inputs": [
        {
          "internalType": "uint256",
          "name": "tierId",
          "type": "uint256"
        }
      ],
      "name": "participate",
      "outputs": [],
      "stateMutability": "payable",
      "type": "function"
    },
    {
      "inputs": [
        {
          "internalType": "address",
          "name": "token",
          "type": "address"
        },
        {
          "internalType": "address",
          "name": "beneficiary",
          "type": "address"
        }
      ],
      "name": "removeStuckTokens",
      "outputs": [],
      "stateMutability": "nonpayable",
      "type": "function"
    },
    {
      "inputs": [],
      "name": "sale",
      "outputs": [
        {
          "internalType": "contract IERC20",
          "name": "token",
          "type": "address"
        },
        {
          "internalType": "bool",
          "name": "isCreated",
          "type": "bool"
        },
        {
          "internalType": "bool",
          "name": "earningsWithdrawn",
          "type": "bool"
        },
        {
          "internalType": "bool",
          "name": "leftoverWithdrawn",
          "type": "bool"
        },
        {
          "internalType": "bool",
          "name": "tokensDeposited",
          "type": "bool"
        },
        {
          "internalType": "address",
          "name": "saleOwner",
          "type": "address"
        },
        {
          "internalType": "uint256",
          "name": "tokenPriceInBNB",
          "type": "uint256"
        },
        {
          "internalType": "uint256",
          "name": "totalTokensSold",
          "type": "uint256"
        },
        {
          "internalType": "uint256",
          "name": "totalBNBRaised",
          "type": "uint256"
        },
        {
          "internalType": "uint256",
          "name": "saleEnd",
          "type": "uint256"
        },
        {
          "internalType": "uint256",
          "name": "hardCap",
          "type": "uint256"
        },
        {
          "internalType": "uint256",
          "name": "softCap",
          "type": "uint256"
        }
      ],
      "stateMutability": "view",
      "type": "function"
    },
    {
      "inputs": [],
      "name": "saleFinished",
      "outputs": [
        {
          "internalType": "bool",
          "name": "",
          "type": "bool"
        }
      ],
      "stateMutability": "view",
      "type": "function"
    },
    {
      "inputs": [],
      "name": "serviceFee",
      "outputs": [
        {
          "internalType": "uint256",
          "name": "",
          "type": "uint256"
        }
      ],
      "stateMutability": "view",
      "type": "function"
    },
    {
      "inputs": [
        {
          "internalType": "uint256[]",
          "name": "startTimes",
          "type": "uint256[]"
        }
      ],
      "name": "setRounds",
      "outputs": [],
      "stateMutability": "nonpayable",
      "type": "function"
    },
    {
      "inputs": [
        {
          "internalType": "address",
          "name": "_token",
          "type": "address"
        },
        {
          "internalType": "address",
          "name": "_saleOwner",
          "type": "address"
        },
        {
          "internalType": "uint256",
          "name": "_tokenPriceInBNB",
          "type": "uint256"
        },
        {
          "internalType": "uint256",
          "name": "_saleEnd",
          "type": "uint256"
        },
        {
          "internalType": "uint256",
          "name": "_hardCap",
          "type": "uint256"
        },
        {
          "internalType": "uint256",
          "name": "_softCap",
          "type": "uint256"
        }
      ],
      "name": "setSaleParams",
      "outputs": [],
      "stateMutability": "nonpayable",
      "type": "function"
    },
    {
      "inputs": [
        {
          "internalType": "address",
          "name": "",
          "type": "address"
        }
      ],
      "name": "tier",
      "outputs": [
        {
          "internalType": "uint256",
          "name": "",
          "type": "uint256"
        }
      ],
      "stateMutability": "view",
      "type": "function"
    },
    {
      "inputs": [
        {
          "internalType": "uint256",
          "name": "",
          "type": "uint256"
        }
      ],
      "name": "tierIdToTierStartTime",
      "outputs": [
        {
          "internalType": "uint256",
          "name": "",
          "type": "uint256"
        }
      ],
      "stateMutability": "view",
      "type": "function"
    },
    {
      "inputs": [
        {
          "internalType": "uint256",
          "name": "",
          "type": "uint256"
        }
      ],
      "name": "tierIds",
      "outputs": [
        {
          "internalType": "uint256",
          "name": "",
          "type": "uint256"
        }
      ],
      "stateMutability": "view",
      "type": "function"
    },
    {
      "inputs": [
        {
          "internalType": "address",
          "name": "",
          "type": "address"
        }
      ],
      "name": "userToParticipation",
      "outputs": [
        {
          "internalType": "uint256",
          "name": "amountBought",
          "type": "uint256"
        },
        {
          "internalType": "uint256",
          "name": "amountBNBPaid",
          "type": "uint256"
        },
        {
          "internalType": "uint256",
          "name": "tierId",
          "type": "uint256"
        },
        {
          "internalType": "bool",
          "name": "areTokensWithdrawn",
          "type": "bool"
        }
      ],
      "stateMutability": "view",
      "type": "function"
    },
    {
      "inputs": [],
      "name": "withdraw",
      "outputs": [],
      "stateMutability": "nonpayable",
      "type": "function"
    },
    {
      "inputs": [],
      "name": "withdrawDepositedTokensIfSaleCancelled",
      "outputs": [],
      "stateMutability": "nonpayable",
      "type": "function"
    },
    {
      "inputs": [],
      "name": "withdrawEarnings",
      "outputs": [],
      "stateMutability": "nonpayable",
      "type": "function"
    },
    {
      "inputs": [],
      "name": "withdrawEarningsAndLeftover",
      "outputs": [],
      "stateMutability": "nonpayable",
      "type": "function"
    },
    {
      "inputs": [],
      "name": "withdrawLeftover",
      "outputs": [],
      "stateMutability": "nonpayable",
      "type": "function"
    },
    {
      "inputs": [],
      "name": "withdrawUnusedFunds",
      "outputs": [],
      "stateMutability": "nonpayable",
      "type": "function"
    },
    {
      "inputs": [],
      "name": "withdrawUserFundsIfSaleCancelled",
      "outputs": [],
      "stateMutability": "nonpayable",
      "type": "function"
    },
    {
      "stateMutability": "payable",
      "type": "receive"
    }
  ],
  "bytecode": "0x60806040523480156200001157600080fd5b5060405162002a2238038062002a228339810160408190526200003491620000e4565b6001600160a01b0383166200008f5760405162461bcd60e51b815260206004820152601760248201527f41646472657373207a65726f2076616c69646174696f6e000000000000000000604482015260640160405180910390fd5b600080546001600160a01b039485166001600160a01b0319918216179091556001929092556002805491909316911617905562000125565b80516001600160a01b0381168114620000df57600080fd5b919050565b600080600060608486031215620000fa57600080fd5b6200010584620000c7565b9250602084015191506200011c60408501620000c7565b90509250925092565b6128ed80620001356000396000f3fe6080604052600436106101d15760003560e01c8063a32bf597116100f7578063d38b99f711610095578063e737544a11610064578063e737544a14610653578063e7a4e07814610668578063f48af77014610688578063f851a440146106a857600080fd5b8063d38b99f7146105e9578063da4d4fbf14610609578063e303417e1461061e578063e6dd299f1461063e57600080fd5b8063b73c6ce9116100d1578063b73c6ce914610510578063c7b5e4ab14610525578063cad925ef14610546578063cf5b8d4b146105b957600080fd5b8063a32bf597146104d1578063a525d237146104e6578063ab7589b5146104fb57600080fd5b80635e7464f61161016f578063845c93061161013e578063845c93061461047e5780638abdf5aa146104915780638f08220f146104a75780638f86f5ea146104bc57600080fd5b80635e7464f61461030a5780636ad1fe02146103715780637417040e146104535780637c4b414d1461046957600080fd5b8063365b94ad116101ab578063365b94ad1461025f57806339e7fddc146102905780633ccfd60b146102c857806354d439c7146102dd57600080fd5b80632785f8bb146101dd5780632f2857091461021d578063357b7e711461023d57600080fd5b366101d857005b600080fd5b3480156101e957600080fd5b5061020a6101f8366004612303565b60106020526000908152604090205481565b6040519081526020015b60405180910390f35b34801561022957600080fd5b5061020a61023836600461231e565b6106c8565b34801561024957600080fd5b5061025d610258366004612337565b6106e9565b005b34801561026b57600080fd5b5060025461028090600160a81b900460ff1681565b6040519015158152602001610214565b34801561029c57600080fd5b506002546102b0906001600160a01b031681565b6040516001600160a01b039091168152602001610214565b3480156102d457600080fd5b5061025d61086c565b3480156102e957600080fd5b5061020a6102f836600461231e565b600d6020526000908152604090205481565b34801561031657600080fd5b5061034f610325366004612303565b600e6020526000908152604090208054600182015460028301546003909301549192909160ff1684565b6040805194855260208501939093529183015215156060820152608001610214565b34801561037d57600080fd5b50600354600454600554600654600754600854600954600a546103e0976001600160a01b038082169860ff600160a01b8404811699600160a81b8504821699600160b01b8604831699600160b81b9096049092169792909316959294909392908c565b604080516001600160a01b039d8e1681529b151560208d0152991515998b019990995296151560608a015294151560808901529790921660a087015260c086015260e085015261010084019490945261012083019390935261014082019290925261016081019190915261018001610214565b34801561045f57600080fd5b5061020a600b5481565b34801561047557600080fd5b5061025d610a4c565b61025d61048c36600461231e565b610bb3565b34801561049d57600080fd5b5061020a60015481565b3480156104b357600080fd5b5061025d610c0c565b3480156104c857600080fd5b5061025d610d6d565b3480156104dd57600080fd5b5061020a610f2c565b3480156104f257600080fd5b5061025d611014565b34801561050757600080fd5b50600b5461020a565b34801561051c57600080fd5b5061025d611048565b34801561053157600080fd5b5060025461028090600160a01b900460ff1681565b34801561055257600080fd5b5061034f610561366004612303565b6001600160a01b03166000908152600e6020908152604091829020825160808101845281548082526001830154938201849052600283015494820185905260039092015460ff16151560609091018190529093919291565b3480156105c557600080fd5b506102806105d4366004612303565b600f6020526000908152604090205460ff1681565b3480156105f557600080fd5b5061025d610604366004612437565b61107a565b34801561061557600080fd5b5061025d61119d565b34801561062a57600080fd5b5061025d6106393660046124f7565b6111cf565b34801561064a57600080fd5b5061025d611396565b34801561065f57600080fd5b5061025d611458565b34801561067457600080fd5b5061025d61068336600461252a565b611641565b34801561069457600080fd5b5061025d6106a336600461257f565b61193e565b3480156106b457600080fd5b506000546102b0906001600160a01b031681565b600c81815481106106d857600080fd5b600091825260209091200154905081565b600054604051630935e01b60e21b81523360048201526001600160a01b03909116906324d7806c90602401602060405180830381865afa158015610731573d6000803e3d6000fd5b505050506040513d601f19601f8201168201806040525081019061075591906125f4565b61077a5760405162461bcd60e51b81526004016107719061261d565b60405180910390fd5b60058111156107bb5760405162461bcd60e51b815260206004820152600d60248201526c4d61782074696572206973203560981b6044820152606401610771565b806107fa5760405162461bcd60e51b815260206004820152600f60248201526e0546965722063616e2774206265203608c1b6044820152606401610771565b6001600160a01b0382166108505760405162461bcd60e51b815260206004820152601760248201527f5a65726f20616464726573732076616c69646174696f6e0000000000000000006044820152606401610771565b6001600160a01b03909116600090815260106020526040902055565b60085442116108af5760405162461bcd60e51b815260206004820152600f60248201526e53616c652069732072756e6e696e6760881b6044820152606401610771565b600254600160a81b900460ff16151560011480156108db5750600254600160a01b900460ff1615156001145b61091c5760405162461bcd60e51b815260206004820152601260248201527114d85b19481dd85cc818d85b98d95b1b195960721b6044820152606401610771565b336000908152600e60205260408120600381015460ff16156109745760405162461bcd60e51b815260206004820152601160248201527020b63932b0b23c903bb4ba34323930bbb760791b6044820152606401610771565b80546109808382611bad565b60038301805460ff1916600117905592508215610a475760035460405163a9059cbb60e01b8152336004820152602481018590526001600160a01b039091169063a9059cbb906044016020604051808303816000875af11580156109e8573d6000803e3d6000fd5b505050506040513d601f19601f82011682018060405250810190610a0c91906125f4565b5060408051338152602081018590527f6352c5382c4a4578e712449ca65e83cdb392d045dfcf1cad9615189db2da244b910160405180910390a15b505050565b6004546001600160a01b03163314610a765760405162461bcd60e51b81526004016107719061265f565b600954610ac55760405162461bcd60e51b815260206004820152601860248201527f53616c6520706172616d6574657273206e6f74207365742e00000000000000006044820152606401610771565b600354600160b81b900460ff1615610b1f5760405162461bcd60e51b815260206004820152601960248201527f546f6b656e7320616c7265616479206465706f73697465642e000000000000006044820152606401610771565b60038054600160b81b60ff60b81b198216179091556009546040516323b872dd60e01b815233600482015230602482015260448101919091526001600160a01b03909116906323b872dd906064016020604051808303816000875af1158015610b8c573d6000803e3d6000fd5b505050506040513d601f19601f82011682018060405250810190610bb091906125f4565b50565b8015801590610bc3575060058111155b610c015760405162461bcd60e51b815260206004820152600f60248201526e125b9d985b1a59081d1a595c881a59608a1b6044820152606401610771565b610bb0333483611bc2565b600254600160a81b900460ff1615156001148015610c345750600254600160a01b900460ff16155b610c795760405162461bcd60e51b815260206004820152601660248201527529b0b632903bb0b9b713ba1031b0b731b2b63632b21760511b6044820152606401610771565b336000908152600f602052604090205460ff16610ccf5760405162461bcd60e51b81526020600482015260146024820152732234b2103737ba103830b93a34b1b4b830ba329760611b6044820152606401610771565b600854421015610d105760405162461bcd60e51b815260206004820152600c60248201526b53616c652072756e6e696e6760a01b6044820152606401610771565b336000818152600e6020526040902060018101549091610d309082611f6b565b60408051338152602081018390527fb784decb825aad3b5e2fb74391c346eff699f0fe79836d5a388e4a3d17261e29910160405180910390a15050565b600054604051630935e01b60e21b81523360048201526001600160a01b03909116906324d7806c90602401602060405180830381865afa158015610db5573d6000803e3d6000fd5b505050506040513d601f19601f82011682018060405250810190610dd991906125f4565b610df55760405162461bcd60e51b81526004016107719061261d565b600854421015610e475760405162461bcd60e51b815260206004820152601860248201527f53616c65206973206e6f742066696e69736865642079657400000000000000006044820152606401610771565b600254600160a81b900460ff1615610ead5760405162461bcd60e51b8152602060048201526024808201527f5468652066756e6374696f6e2063616e2062652063616c6c6564206f6e6c79206044820152636f6e636560e01b6064820152608401610771565b600a5460075410610ed2576002805461ffff60a01b191661010160a01b179055610ee7565b6002805461ffff60a01b1916600160a81b1790555b600254604051600160a01b90910460ff16151581527fd13e41b0867a9bd8e3f746147218ad654188510d96d0ed28f60608c1edfec845906020015b60405180910390a1565b60008060009050600d6000600c600081548110610f4b57610f4b612696565b9060005260206000200154815260200190815260200160002054421015610f7457600091505090565b600c54610f828260016126c2565b108015610fc85750600d6000600c610f9b8460016126c2565b81548110610fab57610fab612696565b906000526020600020015481526020019081526020016000205442115b15610fdf5780610fd7816126da565b915050610f74565b6008544210610ff057600091505090565b600c818154811061100357611003612696565b906000526020600020015491505090565b6004546001600160a01b0316331461103e5760405162461bcd60e51b81526004016107719061265f565b611046611fe5565b565b6004546001600160a01b031633146110725760405162461bcd60e51b81526004016107719061265f565b611046612156565b600054604051630935e01b60e21b81523360048201526001600160a01b03909116906324d7806c90602401602060405180830381865afa1580156110c2573d6000803e3d6000fd5b505050506040513d601f19601f820116820180604052508101906110e691906125f4565b6111025760405162461bcd60e51b81526004016107719061261d565b80518251146111435760405162461bcd60e51b815260206004820152600d60248201526c125b9d985b1a59081a5b9c1d5d609a1b6044820152606401610771565b60005b8251811015610a475761118b83828151811061116457611164612696565b602002602001015183838151811061117e5761117e612696565b60200260200101516106e9565b80611195816126da565b915050611146565b6004546001600160a01b031633146111c75760405162461bcd60e51b81526004016107719061265f565b61103e612156565b600054604051630935e01b60e21b81523360048201526001600160a01b03909116906324d7806c90602401602060405180830381865afa158015611217573d6000803e3d6000fd5b505050506040513d601f19601f8201168201806040525081019061123b91906125f4565b6112575760405162461bcd60e51b81526004016107719061261d565b6003546001600160a01b03838116911614156112b55760405162461bcd60e51b815260206004820152601a60248201527f43616e27742077697468647261772073616c6520746f6b656e2e0000000000006044820152606401610771565b6040516370a0823160e01b81523060048201526001600160a01b0383169063a9059cbb90839083906370a0823190602401602060405180830381865afa158015611303573d6000803e3d6000fd5b505050506040513d601f19601f8201168201806040525081019061132791906126f5565b6040516001600160e01b031960e085901b1681526001600160a01b03909216600483015260248201526044016020604051808303816000875af1158015611372573d6000803e3d6000fd5b505050506040513d601f19601f82011682018060405250810190610a4791906125f4565b600054604051630935e01b60e21b81523360048201526001600160a01b03909116906324d7806c90602401602060405180830381865afa1580156113de573d6000803e3d6000fd5b505050506040513d601f19601f8201168201806040525081019061140291906125f4565b61141e5760405162461bcd60e51b81526004016107719061261d565b6003544790600090600160a81b900460ff1661143c5760075461143f565b60005b90506114543361144f84846122a6565b611f6b565b5050565b6004546001600160a01b031633146114825760405162461bcd60e51b81526004016107719061265f565b600254600160a81b900460ff16151560011480156114aa5750600254600160a01b900460ff16155b6114ee5760405162461bcd60e51b815260206004820152601560248201527414d85b19481dd85cdb89dd0818d85b98d95b1b1959605a1b6044820152606401610771565b60085442101561152f5760405162461bcd60e51b815260206004820152600c60248201526b53616c652072756e6e696e6760a01b6044820152606401610771565b600354600160b81b900460ff16151560011461158d5760405162461bcd60e51b815260206004820152601a60248201527f546f6b656e732077657265206e6f74206465706f73697465642e0000000000006044820152606401610771565b60035460095460405163a9059cbb60e01b815233600482015260248101919091526001600160a01b039091169063a9059cbb906044016020604051808303816000875af11580156115e2573d6000803e3d6000fd5b505050506040513d601f19601f8201168201806040525081019061160691906125f4565b506009546040805133815260208101929092527f92c3df9e05376a616081b6bd06cc1c7c6e184259c750691facea9774b849083a9101610f22565b600054604051630935e01b60e21b81523360048201526001600160a01b03909116906324d7806c90602401602060405180830381865afa158015611689573d6000803e3d6000fd5b505050506040513d601f19601f820116820180604052508101906116ad91906125f4565b6116c95760405162461bcd60e51b81526004016107719061261d565b600354600160a01b900460ff161561171b5760405162461bcd60e51b815260206004820152601560248201527429b0b6329030b63932b0b23c9031b932b0ba32b21760591b6044820152606401610771565b6001600160a01b0386166117845760405162461bcd60e51b815260206004820152602a60248201527f73657453616c65506172616d733a20546f6b656e20616464726573732063616e604482015269103737ba10313290181760b11b6064820152608401610771565b6001600160a01b0385166117da5760405162461bcd60e51b815260206004820152601b60248201527f496e76616c69642073616c65206f776e657220616464726573732e00000000006044820152606401610771565b83158015906117e857508115155b80156117f357508015155b80156117fe57504283115b61183b5760405162461bcd60e51b815260206004820152600e60248201526d24b73b30b634b21034b7383aba1760911b6044820152606401610771565b611848426283d6006126c2565b8311156118975760405162461bcd60e51b815260206004820152601d60248201527f4d61782073616c65206475726174696f6e2069732031303020646179730000006044820152606401610771565b600380546001600160a81b0319166001600160a01b0388811691909117600160a01b17909155600480549187166001600160a01b031990921682179055600585905560088490556009839055600a8290556040805191825260208201869052810184905260608101839052608081018290527f04015af06f31ecd628a4f9fd400d312fc7ae48fdfa0d1a26b3b9ade20971a86e9060a00160405180910390a1505050505050565b600054604051630935e01b60e21b81523360048201526001600160a01b03909116906324d7806c90602401602060405180830381865afa158015611986573d6000803e3d6000fd5b505050506040513d601f19601f820116820180604052508101906119aa91906125f4565b6119c65760405162461bcd60e51b81526004016107719061261d565b600354600160a01b900460ff166119dc57600080fd5b600c5415611a225760405162461bcd60e51b81526020600482015260136024820152722937bab732399039b2ba1030b63932b0b23c9760691b6044820152606401610771565b80611a2c57600080fd5b60004283836000818110611a4257611a42612696565b905060200201351015611a5457600080fd5b60005b82811015611ba757600854848483818110611a7457611a74612696565b9050602002013510611a8557600080fd5b81848483818110611a9857611a98612696565b9050602002013511611aa957600080fd5b838382818110611abb57611abb612696565b9050602002013591506000816001611ad391906126c2565b600c80546001810182556000919091527fdf6966c971051c3d54ec59162606531493a51404a002842f56009d7e5cf4a8c7018190559050848483818110611b1c57611b1c612696565b90506020020135600d6000838152602001908152602001600020819055507f99889566cac43af340598cca5a5addfd4f6c14acda4da96185a96267d5e3b08481868685818110611b6e57611b6e612696565b90506020020135604051611b8c929190918252602082015260400190565b60405180910390a15080611b9f816126da565b915050611a57565b50505050565b6000611bb982846126c2565b90505b92915050565b6001600160a01b0383166000908152600f602052604090205460ff1615611c235760405162461bcd60e51b815260206004820152601560248201527420b63932b0b23c903830b93a34b1b4b830ba32b21760591b6044820152606401610771565b6001600160a01b0383166000908152601060205260409020548114611c785760405162461bcd60e51b815260206004820152600b60248201526a15dc9bdb99c8149bdd5b9960aa1b6044820152606401610771565b6000818152600d6020526040902054421015611cd65760405162461bcd60e51b815260206004820152601e60248201527f596f757220726f756e6420686176656e277420737461727465642079657400006044820152606401610771565b600354600160b81b900460ff161515600114611d345760405162461bcd60e51b815260206004820152601e60248201527f53616c6520746f6b656e732077657265206e6f74206465706f736974656400006044820152606401610771565b6000611dd4600360020154611dce600360000160009054906101000a90046001600160a01b03166001600160a01b031663313ce5676040518163ffffffff1660e01b8152600401602060405180830381865afa158015611d98573d6000803e3d6000fd5b505050506040513d601f19601f82011682018060405250810190611dbc919061270e565b611dc790600a612815565b86906122b2565b906122be565b905060008111611e1b5760405162461bcd60e51b815260206004820152601260248201527143616e277420627579203020746f6b656e7360701b6044820152606401610771565b600654600954611e2a916122a6565b811115611e795760405162461bcd60e51b815260206004820152601a60248201527f4e6f7420656e6f75676820746f6b656e7320746f2073656c6c2e0000000000006044820152606401610771565b600654611e869082611bad565b600655600754611e969084611bad565b6007556040805160808101825282815260208082018681528284018681526000606085018181526001600160a01b038b168252600e85528682208651815593516001858101919091559251600285015551600393909301805493151560ff19948516179055600f9093529382208054909116909317909255600b80549192611f1d836126da565b9091555050604080516001600160a01b0387168152602081018490527f57d61f3ccd4ccd25ec5d234d6049553a586fac134c85c98d0b0d9d5724f4e43e910160405180910390a15050505050565b604080516000808252602082019092526001600160a01b038416908390604051611f959190612824565b60006040518083038185875af1925050503d8060008114611fd2576040519150601f19603f3d011682016040523d82523d6000602084013e611fd7565b606091505b5050905080610a4757600080fd5b600254600160a81b900460ff16151560011480156120115750600254600160a01b900460ff1615156001145b6120535760405162461bcd60e51b815260206004820152601360248201527214d85b19481dd85cdb8818d85b98d95b1b1959606a1b6044820152606401610771565b60085442101561206257600080fd5b600354600160b01b900460ff16156120b35760405162461bcd60e51b815260206004820152601460248201527363616e277420776974686472617720747769636560601b6044820152606401610771565b6003805460ff60b01b1916600160b01b1790556006546009546000916120d991906122a6565b90508015610bb05760035460405163a9059cbb60e01b8152336004820152602481018390526001600160a01b039091169063a9059cbb906044016020604051808303816000875af1158015612132573d6000803e3d6000fd5b505050506040513d601f19601f8201168201806040525081019061145491906125f4565b600254600160a81b900460ff16151560011480156121825750600254600160a01b900460ff1615156001145b6121c35760405162461bcd60e51b815260206004820152601260248201527114d85b19481dd85cc818d85b98d95b1b195960721b6044820152606401610771565b6008544210156122045760405162461bcd60e51b815260206004820152600c60248201526b53616c652052756e6e696e6760a01b6044820152606401610771565b600354600160a81b900460ff16156122555760405162461bcd60e51b815260206004820152601460248201527363616e277420776974686472617720747769636560601b6044820152606401610771565b6003805460ff60a81b1916600160a81b1790556007546000612276826122ca565b9050600061228483836122a6565b90506122903382611f6b565b600254610a47906001600160a01b031683611f6b565b6000611bb9828461285f565b6000611bb98284612876565b6000611bb98284612895565b6000611bbc612710611dce600154856122b290919063ffffffff16565b80356001600160a01b03811681146122fe57600080fd5b919050565b60006020828403121561231557600080fd5b611bb9826122e7565b60006020828403121561233057600080fd5b5035919050565b6000806040838503121561234a57600080fd5b612353836122e7565b946020939093013593505050565b634e487b7160e01b600052604160045260246000fd5b604051601f8201601f1916810167ffffffffffffffff811182821017156123a0576123a0612361565b604052919050565b600067ffffffffffffffff8211156123c2576123c2612361565b5060051b60200190565b600082601f8301126123dd57600080fd5b813560206123f26123ed836123a8565b612377565b82815260059290921b8401810191818101908684111561241157600080fd5b8286015b8481101561242c5780358352918301918301612415565b509695505050505050565b6000806040838503121561244a57600080fd5b823567ffffffffffffffff8082111561246257600080fd5b818501915085601f83011261247657600080fd5b813560206124866123ed836123a8565b82815260059290921b840181019181810190898411156124a557600080fd5b948201945b838610156124ca576124bb866122e7565b825294820194908201906124aa565b965050860135925050808211156124e057600080fd5b506124ed858286016123cc565b9150509250929050565b6000806040838503121561250a57600080fd5b612513836122e7565b9150612521602084016122e7565b90509250929050565b60008060008060008060c0878903121561254357600080fd5b61254c876122e7565b955061255a602088016122e7565b95989597505050506040840135936060810135936080820135935060a0909101359150565b6000806020838503121561259257600080fd5b823567ffffffffffffffff808211156125aa57600080fd5b818501915085601f8301126125be57600080fd5b8135818111156125cd57600080fd5b8660208260051b85010111156125e257600080fd5b60209290920196919550909350505050565b60006020828403121561260657600080fd5b8151801515811461261657600080fd5b9392505050565b60208082526022908201527f4f6e6c792061646d696e2063616e2063616c6c20746869732066756e6374696f604082015261371760f11b606082015260800190565b60208082526019908201527f5265737472696374656420746f2073616c65206f776e65722e00000000000000604082015260600190565b634e487b7160e01b600052603260045260246000fd5b634e487b7160e01b600052601160045260246000fd5b600082198211156126d5576126d56126ac565b500190565b60006000198214156126ee576126ee6126ac565b5060010190565b60006020828403121561270757600080fd5b5051919050565b60006020828403121561272057600080fd5b815160ff8116811461261657600080fd5b600181815b8085111561276c578160001904821115612752576127526126ac565b8085161561275f57918102915b93841c9390800290612736565b509250929050565b60008261278357506001611bbc565b8161279057506000611bbc565b81600181146127a657600281146127b0576127cc565b6001915050611bbc565b60ff8411156127c1576127c16126ac565b50506001821b611bbc565b5060208310610133831016604e8410600b84101617156127ef575081810a611bbc565b6127f98383612731565b806000190482111561280d5761280d6126ac565b029392505050565b6000611bb960ff841683612774565b6000825160005b81811015612845576020818601810151858301520161282b565b81811115612854576000828501525b509190910192915050565b600082821015612871576128716126ac565b500390565b6000816000190483118215151615612890576128906126ac565b500290565b6000826128b257634e487b7160e01b600052601260045260246000fd5b50049056fea26469706673582212209bd2111fba2d6c986e50d3fcff44608809d60cdf7646f6f0a45f530f799cae5164736f6c634300080b0033",
  "linkReferences": {},
  "deployedLinkReferences": {}
}