{
  "_format": "hh-sol-artifact-1",
  "contractName": "Admin",
  "sourceName": "contracts/Admin.sol",
  "abi": [
    {
      "inputs": [
        {
          "internalType": "address[]",
          "name": "_admins",
          "type": "address[]"
        }
      ],
      "stateMutability": "nonpayable",
      "type": "constructor"
    },
    {
      "anonymous": false,
      "inputs": [
        {
          "indexed": true,
          "internalType": "address",
          "name": "previousOwner",
          "type": "address"
        },
        {
          "indexed": true,
          "internalType": "address",
          "name": "newOwner",
          "type": "address"
        }
      ],
      "name": "OwnershipTransferred",
      "type": "event"
    },
    {
      "inputs": [
        {
          "internalType": "address",
          "name": "_adminAddress",
          "type": "address"
        }
      ],
      "name": "addAdmin",
      "outputs": [],
      "stateMutability": "nonpayable",
      "type": "function"
    },
    {
      "inputs": [
        {
          "internalType": "uint256",
          "name": "",
          "type": "uint256"
        }
      ],
      "name": "admins",
      "outputs": [
        {
          "internalType": "address",
          "name": "",
          "type": "address"
        }
      ],
      "stateMutability": "view",
      "type": "function"
    },
    {
      "inputs": [],
      "name": "getAllAdmins",
      "outputs": [
        {
          "internalType": "address[]",
          "name": "",
          "type": "address[]"
        }
      ],
      "stateMutability": "view",
      "type": "function"
    },
    {
      "inputs": [
        {
          "internalType": "address",
          "name": "",
          "type": "address"
        }
      ],
      "name": "isAdmin",
      "outputs": [
        {
          "internalType": "bool",
          "name": "",
          "type": "bool"
        }
      ],
      "stateMutability": "view",
      "type": "function"
    },
    {
      "inputs": [],
      "name": "owner",
      "outputs": [
        {
          "internalType": "address",
          "name": "",
          "type": "address"
        }
      ],
      "stateMutability": "view",
      "type": "function"
    },
    {
      "inputs": [
        {
          "internalType": "address",
          "name": "_adminAddress",
          "type": "address"
        }
      ],
      "name": "removeAdmin",
      "outputs": [],
      "stateMutability": "nonpayable",
      "type": "function"
    },
    {
      "inputs": [],
      "name": "renounceOwnership",
      "outputs": [],
      "stateMutability": "nonpayable",
      "type": "function"
    }
  ],
  "bytecode": "0x608060405234801561001057600080fd5b50604051610a1d380380610a1d83398101604081905261002f91610179565b610038336100f7565b60005b81518110156100f05760018282815181106100585761005861023d565b60209081029190910181015182546001808201855560009485529284200180546001600160a01b0319166001600160a01b03909216919091179055835190916002918590859081106100ac576100ac61023d565b6020908102919091018101516001600160a01b03168252810191909152604001600020805460ff1916911515919091179055806100e881610253565b91505061003b565b505061027c565b600080546001600160a01b038381166001600160a01b0319831681178455604051919092169283917f8be0079c531659141344cd1fd0a4f28419497f9722a3daafe3b4186f6b6457e09190a35050565b634e487b7160e01b600052604160045260246000fd5b80516001600160a01b038116811461017457600080fd5b919050565b6000602080838503121561018c57600080fd5b82516001600160401b03808211156101a357600080fd5b818501915085601f8301126101b757600080fd5b8151818111156101c9576101c9610147565b8060051b604051601f19603f830116810181811085821117156101ee576101ee610147565b60405291825284820192508381018501918883111561020c57600080fd5b938501935b82851015610231576102228561015d565b84529385019392850192610211565b98975050505050505050565b634e487b7160e01b600052603260045260246000fd5b600060001982141561027557634e487b7160e01b600052601160045260246000fd5b5060010190565b6107928061028b6000396000f3fe608060405234801561001057600080fd5b506004361061007d5760003560e01c8063704802751161005b57806370480275146100fa578063715018a61461010d5780638da5cb5b14610115578063e9523c971461012657600080fd5b806314bfd6d0146100825780631785f53c146100b257806324d7806c146100c7575b600080fd5b61009561009036600461061d565b61013b565b6040516001600160a01b0390911681526020015b60405180910390f35b6100c56100c0366004610636565b610165565b005b6100ea6100d5366004610636565b60026020526000908152604090205460ff1681565b60405190151581526020016100a9565b6100c5610108366004610636565b6103d5565b6100c5610535565b6000546001600160a01b0316610095565b61012e61056b565b6040516100a99190610666565b6001818154811061014b57600080fd5b6000918252602090912001546001600160a01b0316905081565b6000546001600160a01b031633146101985760405162461bcd60e51b815260040161018f906106b3565b60405180910390fd5b6001600160a01b03811660009081526002602052604090205460ff166101f45760405162461bcd60e51b815260206004820152601160248201527030b2323932b9b9903737ba1020b236b4b760791b604482015260640161018f565b600180541161026b5760405162461bcd60e51b815260206004820152603a60248201527f43616e206e6f742072656d6f766520616c6c2061646d696e732073696e63652060448201527f636f6e7472616374206265636f6d657320756e757361626c652e000000000000606482015260840161018f565b60005b816001600160a01b03166001828154811061028b5761028b6106e8565b6000918252602090912001546001600160a01b031614610315576001548114156103035760405162461bcd60e51b815260206004820152602360248201527f5061737365642061646d696e206164647265737320646f6573206e6f742065786044820152621a5cdd60ea1b606482015260840161018f565b8061030d81610714565b91505061026e565b6001805461032490829061072f565b81548110610334576103346106e8565b600091825260209091200154600180546001600160a01b039092169183908110610360576103606106e8565b600091825260208083209190910180546001600160a01b0319166001600160a01b039485161790559184168152600290915260409020805460ff1916905560018054806103af576103af610746565b600082815260209020810160001990810180546001600160a01b03191690550190555050565b6000546001600160a01b031633146103ff5760405162461bcd60e51b815260040161018f906106b3565b6001600160a01b0381166104685760405162461bcd60e51b815260206004820152602a60248201527f5b524241435d203a2041646d696e206d75737420626520213d207468616e20306044820152697830206164647265737360b01b606482015260840161018f565b6001600160a01b03811660009081526002602052604090205460ff16156104d15760405162461bcd60e51b815260206004820152601e60248201527f5b524241435d203a2041646d696e20616c7265616479206578697374732e0000604482015260640161018f565b6001805480820182557fb10e2d527612073b26eecdfd717e6a320cf44b4afac2b0732d9fcbe2b7fa0cf60180546001600160a01b039093166001600160a01b031990931683179055600091825260026020526040909120805460ff19169091179055565b6000546001600160a01b0316331461055f5760405162461bcd60e51b815260040161018f906106b3565b61056960006105cd565b565b606060018054806020026020016040519081016040528092919081815260200182805480156105c357602002820191906000526020600020905b81546001600160a01b031681526001909101906020018083116105a5575b5050505050905090565b600080546001600160a01b038381166001600160a01b0319831681178455604051919092169283917f8be0079c531659141344cd1fd0a4f28419497f9722a3daafe3b4186f6b6457e09190a35050565b60006020828403121561062f57600080fd5b5035919050565b60006020828403121561064857600080fd5b81356001600160a01b038116811461065f57600080fd5b9392505050565b6020808252825182820181905260009190848201906040850190845b818110156106a75783516001600160a01b031683529284019291840191600101610682565b50909695505050505050565b6020808252818101527f4f776e61626c653a2063616c6c6572206973206e6f7420746865206f776e6572604082015260600190565b634e487b7160e01b600052603260045260246000fd5b634e487b7160e01b600052601160045260246000fd5b6000600019821415610728576107286106fe565b5060010190565b600082821015610741576107416106fe565b500390565b634e487b7160e01b600052603160045260246000fdfea264697066735822122050867c807428f1729235b5b1134c1131f9f2d219930ccd5f2edf55332359337b64736f6c634300080b0033",
  "linkReferences": {},
  "deployedLinkReferences": {}
}